:400000000080002011000000250D0000250D000008B5044B1A6803F53F5302331A6000F0A1FE00BFFA46004010B5054C237833B9044B13B10448AFF300800123237010BD74
:400040008081FF1F000000002C540000084B10B51BB108490848AFF300800848036803B910BD074B002BFBD0BDE81040184700BF000000008481FF1F2C540000C880FF1F92
:400080000000000070B584B001F02EFF044642F2107000F0C3FE01F047FF0246A07063782078E578267A618989B2074C03910296019500900549204603F0BAFA204601F09F
:4000C00047FB04B070BD00BF2882FF1F4057000008B5104B1B78DBB20F4A32F813309BB29289934202D2013A0B4B9A81094B1B78DBB2094A32F813309BB29289934202D9B8
:400100000132054B9A81044B988901F0D9FB01F0E3FB08BD9C81FF1FCC80FF1F08B5094B5B78DBB2042B03D8012001F079FC08BD044B5B78DBB20A2B02D9002001F070FCB0
:4001400008BD00BF9C81FF1F184B5B78DBB2182B03D90522154B1A707047144B5B78DBB2172B03D90422114B1A7070470F4B5B78DBB2162B03D903220C4B1A7070470B4B8C
:400180005B78DBB2152B03D90222084B1A707047064B5B78DBB2142B03D90122034B1A7070470022014B1A70704700BF9C81FF1F08B5002000F0A0FBC0B2034B5870FFF7FE
:4001C000C3FFFFF7ABFF08BD9C81FF1F08B5012000F092FBC0B208BD08B5002001F08EFC01F03EFC0028FBD101F042FC014B588008BD00BF9C81FF1F38B50B4B5D686B18F7
:40020000B3F5007F03D3094801F0A2FA38BD0C46074B0A460146284601F040F9024B5A6814445C6038BD00BF9C81FF1F685700005083FF1FF0B583B0144C23899BB20133F4
:400240009BB22381FFF7B4FF23899BB20A2B19D16678F6B2FFF7BAFF0746FFF7BDFF0C4D00903B4632460B49284603F0E1F9E060284601F06DFAE16801312846FFF7BCFF87
:400280000023238101F0C0FA03B0F0BD9C81FF1F2882FF1F8C570000F0B583B006460F4600242546A019B0F5007F03D30B4801F04FFA0EE00A4B01220DF1070100F0F4FFEF
:4002C0009DF807300BB101347B559DF80730002BE7D100233B55204603B0F0BDCC5700005083FF1F10B500240D492046FFF7D4FF0C4BD86010B10A4801F02AFA094BDB6879
:400300001C440134B4F5007F03D3074801F020FA01E0002BE8D10122044B1A7010BD00BFCC82FF1F9C81FF1FF0570000CB82FF1F10B5042818D8DFE800F003070B0F13005B
:400340000E4801F005FA10BD0D4801F001FA10BD0C4801F0FDF910BD0B4801F0F9F910BD0A4801F0F5F910BD094C02460949204603F05EF9204601F0EBF910BD1458000040
:400380002058000040580000645800008C580000CC82FF1FA458000030B591B062B601F095F9254801F000FA01F068FA234801F029FB01F0D7FA224801F0FCFA37238DF84B
:4003C00034308DF835300D238DF8363007238DF838308DF83C3040F2DF73ADF83E300DA801F086FD01F072FD01F04AFD01F05CFD00F03EFA134801F0A9FB134B187008B133
:40040000FFF796FF6C46114D0FCD0FC495E80F0007C423700023CDF81D30CDF82130CDF82530CDF82930CDF82D308DF83130684601F08EF9FEE700BF2506000035020000D1
:40044000D1000000005500000C83FF1F0057000030B40178CCB24278D2B23C2C98BF3C2A94BF012100218378DBB2172B8CBF002201F00102037A13F0FF0F05D0037ADBB2E6
:400480000C2B03D9002102E0002100E0012143899BB2002B0CBF002301F00103134034D0027A013A1A490A4492F83442428992B21849A1FB0251C9094FF4C87505FB112239
:4004C00092B272B1428912F0030F10D1428992B21049A1FB02514909642505FB112292B22AB1027AD2B2022A01D10134E4B2C27812F0FF0F05D0C278D2B2944203D20022DE
:4005000002E0002200E001221340184630BC7047005500001F85EB5110B586B03A4801F017F903AB04AA05A9384803F069F805A803F011F9022861D804A803F00CF90228F4
:400540005CD803A803F007F9022801D9042855D12F4801F0FDF802AB01AA69462B4803F08BF805A802F0A6FFC0B20024E07004A802F0A0FFC0B2207203A802F09BFF80B232
:40058000608102A802F096FFC0B2207001A802F091FFC0B26070684602F08CFFC0B2A07063899BB2042B0AD963899BB2194AA2FB03125209642101FB12339BB26381002002
:4005C000FFF746FFB0B13224002001F091FC013C01F0B0FC012801D0002CF5D101F0AAFC012803D00C4801F0B3F80AE00B4801F0AFF806E00A4802F0FBFF02E0084802F005
:40060000F7FF06B010BD00BFC0580000E0580000EC5800001F85EB511C590000405900006059000010B501F05FF8044601F084F82B4B1B7C742B01D0542B05D10D2C03D1A4
:40064000284801F085F841E0642B01D0442B07D10D2C05D1244801F07BF8FFF75DFF35E03F2B15D10D2C13D11D4B5B7C742B05D0542B03D0642B01D0442B05D11B4801F023
:4006800067F8FFF7FFFC21E0194801F061F81DE0612B01D0412B0AD10D2C08D1154801F057F80022144B1A70FFF71CFE0EE0632B01D0432B0AD10D2C08D1104801F048F8A2
:4006C0000F4800F0A1FF0F4801F042F8044B1A7C5A741C7401F01EF801F074F810BD00BF9C81FF1FA0590000CC590000F8590000205A00006C5A0000CB82FF1F8C5A000023
:400700005083FF1FB05A000010B5002001F094F94FF4F07000F098FB012001F08DF9462000F092FB01F094F904464FF4CD7000F08BFB204610BD00BF10B5002001F0F4F947
:400740004FF4F07000F080FB012001F0EDF9462000F07AFB01F0F4F904464FF4CD7000F073FB204610BD00BF08B501280CD1002001F062F90A2000F067FB012001F05CF99E
:40078000402000F061FB08BD002001F055F93C2000F05AFB012001F04FF90A2000F054FB08BD00BF08B501280CD1002001F0BCF90A2000F049FB012001F0B6F9402000F089
:4007C00043FB08BD002001F0AFF93C2000F03CFB012001F0A9F90A2000F036FB08BD00BF10B5002001F028F90A2000F02DFB012001F022F90A2000F027FB01F029F9044638
:40080000322000F021FB204610BD00BF10B5002001F08AF90A2000F017FB012001F084F90A2000F011FB01F08BF90446322000F00BFB204610BD00BF38B50546002405E0F4
:4008400005F00100FFF790FF6D100134072CF7DD38BD00BF38B50546002405E005F00100FFF7A0FF6D100134072CF7DD38BD00BF08B5FFF749FFCC20FFF7DEFF4E20FFF739
:40088000DBFF5520FFF7D8FFA220FFF7D5FF7F20FFF7D2FFFFF750FFCC20FFF7DBFF4E20FFF7D8FF5520FFF7D5FFA220FFF7D2FF7F20FFF7CFFF08BD38B50024254606E09C
:4008C0006410FFF78DFF08B144F080040135072DF6DD204638BD00BF38B50024254606E06410FFF793FF08B144F080040135072DF6DD204638BD00BF2DE9F0410646FFF78B
:4009000003FFCC20FFF798FF4420FFF795FF4FF4967000F099FAFFF7F7FECC20FFF78CFFBE20FFF789FFFFF707FFCC20FFF792FF4420FFF78FFF40F2EE2000F085FAFFF7D2
:40094000FBFECC20FFF786FFBE20FFF783FF0022304B1A600CE0FFF7AFFF2F4B18552D4C2568FFF7B9FF2D4B5855236801332360284B1C68082CEEDD274B5878284A1060FE
:400980001B78284A1360254A5178274C21601278264C226043EA002000B2254B188042EA0122244B1A8002F039F80022224B02F09BF802F0ABFA0746204C20606060A168E6
:4009C00002F0FAFA8046A060E5680135E5603946206902F0F1FA2061606901306061012E09D1284602F09CFB0146404602F0A0FC134B186007E002F093FB0146404602F00B
:400A000097FC0F4B18600E4B186802F02DFDBDE8F08100BF2483FF1F3883FF1F2883FF1F1083FF1F1C83FF1F4483FF1F3483FF1F2083FF1F1883FF1F0000B03FB481FF1F3C
:400A40001483FF1FFEE700BFF0B40022174611E050F82760F3B226F0FF0608E001EB420511F812406D78A5550132013BDBB2002BF4D101371D2FEBD9F0BC70470C4B1B78A4
:400A8000DBB203F007010B4A11701B09013213701022094B1A70002203F255731A70202203F269231A704422A3F265231A707047CF0100496E5800401D51004008B50A469A
:400AC000002102F032FD08BD38B53C4A1578EDB201213B4B198018233A490B7017200231088002310B701921374801800230037042F6DF60354B188002331970022103F2F2
:400B00007223197008214FF040231970F32103F20A3319700323137084222D4B1A700522013B1A702B4C04E04FF4F07001F028FC013C24B1284B1B7813F0200FF4D01F4BAB
:400B40001D700322A3F593631A70244B1B78DBB2234A13700822234B1A8041F25122023B1A80002419250CE01F4B1B7803F0010343EA440404F003044FF4F07001F000FC3B
:400B8000013D0DB1032CEFD115B90320FFF75AFF164B4FF480721A8007221A70002214490A704820023108701A700222033B1A70104A137843F00F03137038BD98460040E5
:400BC0008040004082400040884000408C40004009430040A08601000843004008010049A146004022420040254200400440004006400040A243004008B502F08BFC08BDB3
:400C0000032807D8044B53F820201844017C13780B431370704700BFBC5A000038B572B62F4A137843F00403137000240BE02D4863001A19510001440A46098B5069FFF7F6
:400C40003DFF0134E4B2072CF1D927494FF09040FFF7FAFE40F20332244B1A80244A03F534430A331A60234A137843F0020313701032137843F0020313701F4C237843F08B
:400C800040032370A2F58632513A137843F0100313700A2219491A48FFF7AEFF082219491948FFF7A9FF0A2218491948FFF7A4FF184A137843F008031370174D61232B705A
:400CC000FFF702FF81232B700122144B1A70FFF7D5FE0E2221461248FFF78EFF38BD00BFE8460040BC5A0000780000484E5800400404044403500140A04300406C080048D4
:400D0000C051004078080048125100408008004820510040224300400048004004000840B043004008B502F0C9FB03680C2B00D1FEE7FEE708B5094B1A681044084BC31A03
:400D4000802B02DC054B186005E002F0B7FB0C2303604FF0FF32104608BD00BFDC80FF1F7883FF1F08B5104E104D16E029686B68AC68002204E051F8040B43F8040B043266
:400D8000A242F8D1E868002203E0002143F8041B04328242F9D11035013E002EE6D102F093FBFFF7F9FAFEE701000000045D000008B5104A104B1A60104A136843F400736E
:400DC000136000230AE0032B03D80D4A52F8231000E00C490C4A42F8231001332F2BF2D90A4B1A780A4B1A70074A0A4B1A60FFF715FF08BD0004FA050CED00E014ED00E0D3
:400E000000000000250D00000080FF1FBC760040C080FF1F08ED00E001BE704710B5044605E0084B186801F0ABFAA4F50044B4F5004FF6D8034B586800FB04F001F0A0FA3F
:400E400010BD00BFE080FF1F08B5034B1B7A00FB03F001F095FA08BDE080FF1F08B501F097FA00BF00BF00BF00BF00BF00BF00BF00BF00BF00BF00BF00BF00BF00BF00BFA7
:400E800000BF064A13889BB243F0040313801388BFF36F8F01F080FA08BD00BF0048004070B504460E46074B1D681F2802D90020FFF7B2FF04F01F04103455F8240045F820
:400EC000246070BD08ED00E038B504460D46072902D90020FFF7A0FF1F2C02D90020FFF79BFF04F01F0000F1604000F564406D01EDB2057038BD00BF38B5054601F048FA6E
:400F0000074B1978074A92F842300B4303F0070423EA050382F8423001F03EFA204638BD90430040CC81FF1F70B48A6902600024264608E013681BB19E4201D202601E4681
:400F400002F5807201344D680B6903FB05F39C42F0D370BC704700BF8B6904E003F580730A68934203D21A688242F7D100E000231846704730B4044618B1086800F58070A0
:400F800008600D681868854201D398690860002010605868844218D31C69012C13D90968A1EB00259B699D420BD204F1FF1404F57F4400FB04F003EB0020C91A08441060EF
:400FC00003E0156001E00B68136030BC704700BF10B404460022FF2013E0A35C584000230BE010F0800F04D04000C0B280F0310001E04000C0B20133DBB2072BF1D9013250
:4010000092B28A42E9D110BC704700BFC1680268D30912F07F0200D001221A44436803FB02F3027A02FB033301EB032321B1B3F5802F03D903207047032070470020704772
:40104000F0B5059C069F00251560DD01A54206D85E1CF601013EB44203D9002602E0002600E00126D6B104F07F02803202603C44A54206D80133DB01013B9C4203D9002313
:4010800002E0002300E001231BB117440F600020F0BD4FF480730B600020F0BD04EB070E754505D80133DB01013B9E4500D8012666B180230360FB1864F07F041C440C60BA
:4010C00003681C1B274417600020F0BD0120F0BD70B504460E46C0F3072501F0B7F932462946C4F3074001F037FA0446FFF7B6FE0CB1042070BD002070BD00BFF0B5C3B061
:401100000446836800931D680127002623E0009F4FF48072394601A802F0FCF901350195802121A8FFF754FF2090224601A93846FFF7CEFFA069009B1B1A2068224601A939
:401140001844FFF7C5FF0746234641AA69462846FFF710FF01366268236903FB02F39E42D5D3384643B0F0BD2DE9F047C0B005468A4690469946489EB469041B33681C44C6
:40118000C76F80210844FFF723FF874207D14A4605EB0801504602F0BDF900241BE0E76F80216018FFF714FF874213D14FF480722146684602F0AEF9324669462846FFF7DA
:4011C00087FF044638B94A460DEB8801504602F0A1F900E00224204640B0BDE8F08700BF70B505460E461446FFF772FF034650B9227D42B1A069281A23682246314618444A
:40120000FFF766FF034603B9A560184670BD00BFF8B500293DD00D4600283CD0C368002B3BD043680A2B3AD80768002F39D00446FFF7ECFE0646002834D1EF6063682B6152
:40124000237A2B75637A6B75E368AB612368DA0913F07F0300D0012313446B60626802FB03F3E26802EB03232C4644F8083B29462046FFF759FEAB681B689BB92B7D8BB119
:401280002846FFF73BFF064629462046FFF74CFE08E0012606E0012604E0012602E0012600E001263046F8BD2DE9F04F8BB00691002A00F0E68081461F46934613181C4694
:4012C0000793FB689C4200F2DF80002900F0DF80B8680368099304F1FF3A4FEAD913C3EBDA1A0AF1010ABC69031B7A681502B3FBF5F303FB02F304EB0323039300250EE0A5
:40130000B9EBC51F06D36B1CDB01013B994503D9002302E0002300E001231BB901359542EED30025039BC01A030A184605933B69012B09D905EB0A03013B854207D898421A
:4013400008D20123049307E00023049304E00123049301E000230493C84600260123CDF82090894635E0039B03EB052008F07F0404F180010136B24502D9C4F1800400E088
:401380005C46049B63B1059B9D4209D97B68A0EB0320BA69904203D238685B1BA0EB03203B7D5BB1009723460A464946FFF7DCFE034648B18246DDF820900FE022460144BA
:4013C000484602F0A7F80023A044C4EB0B0BA14401355645C7D39A46DDF820905346002B57D1099B002B54D07D689D4228BF1D46013D5D1BDDF81880079E1C463EE0394699
:401400002846FFF7A9FD8646002836D0436881681944994504D29E4294BF0022012203E089452CBF002201223AB3994502D3C3EB090C01E04FF0000C994502D2C9EB0300B2
:4014400000E000200CF10C0CB14228BF314699452CBFC9EB0103CB1A40443A7D42B10097624601467046FFF77FFE824628B110E01A460EEB0C0102F04DF80135A542BED9E1
:4014800007E001239A4604E001239A4601E001239A4650460BB0BDE8F08F00BF2DE9F04FCDB01D4600230B930A93AB6809930391002A00F09F80824693461318EA6893423E
:4014C00000F29A80002900F099800BF1FF331B094C4AA2FB0323059301330493002307939946012081E0099B1C682B4608AA09A92046FFF73FFD4FF4807200210CA802F0F1
:4015000014F804F10108CDF83080CDF834A00399059B994502D1CDF838B007E070230E93ABF1700B9A44039B703303930E9A0FA801F0F0FF089921B1802211442CA801F0A4
:40154000E9FF6C68A04503D9C4EB0804013400E00124002731E0444501D10CAE04E029462046FFF7F9FC0646AA69099B9A1A120A6968B2FBF1F301FB132356B17268B168A7
:401580000191009207AA0AA90BA8FFF759FD074600E001374FB90B98079931440A9A121A0C310CAB184401F0B5FF2B7D23B180212CA8FFF70DFD2B9001344445CBD92A463C
:4015C0000CA90998FFF784FD2B7D4BB140B9AA69099B9B1A28682A460CA91844FFF778FD68B9099BAB6009F10109049B9945FFF47AAF04E0012002E0012000E001204DB026
:40160000BDE8F08F26499224F0B5C3B00646846841944FF480720021684601F086FF23680BB37768336903FB07F7337D2BB180210DEB0100FFF7CCFC1F90042000250FE037
:40164000419B1C68334640AA41A92046FFF792FC01340094324669464198FFF7C1FD0135BD42EDD300E0042043B0F0BD7222084B1A70202202331A7006225E3B1A70472297
:4016800010331A70002203F5A7731A70704700BF8864004010B500F07BFE04460A4A137843F0200313700232137843F01003137002F58072137843F01003137000F088F898
:4016C000204600F069FE10BD9864004008B5054B1B7823B9FFF7CAFF0122024B1A70FFF7D9FF08BD0F82FF1F084B1B78DBB213F0200F06D0064A1078C0B213F01E0F02D1E5
:401700007047002070470020704700BF6A6400404965004008B500F03BFE064B1A7842F001021A701A7802F0FE021A7000F034FE08BD00BF99650040034B1B7813F0040F18
:40174000FAD1024B187070476A6500404A65004038B5074B1B782BB938BDFFF7EDFF0134A4B201E005460024285D0028F5D138BD0F82FF1F014B1B681865704708ED00E0BD
:401780004001C0B2014B1870704700BF04E400E01022014B1A60704700E100E01022014B1A60704780E100E010B50446FFF7F6FF2046FFF7DFFF0720FFF7E2FFFFF7E8FFF5
:4017C00010BD00BF1022014B1A60704780E200E0054A137843F0040313701032137843F004031370704700BFA2430040024A137843F08003137070477D640040014B1870F4
:40180000704700BF8D640040014B1878704700BF6D640040014B1870704700BF2D640040014B1878704700BF4D640040014B1870704700BF0D64004008B501E0FFF7F0FFC2
:40184000FFF7E2FF10F0080FF8D108BD08B5F920FFF7E0FFF920FFF7E9FF00F099FD064A137843F01003137000F096FDFFF7E4FF0120FFF7C3FF08BD9D64004008B5054BD8
:401880001B7823B9FFF7E2FF0122024B1A70FFF7ADFF08BD1182FF1F024A137843F08003137070477F640040014B1880704700BF1C680040014B1880704700BF9C6800402A
:4018C000014B1880704700BF5C680040014B1870704700BF8F640040014B1878704700BF6F640040014B188880B27047BC68004008B501E0FFF7F6FFFFF7EEFF10F0100FE4
:40190000F8D108BD10B5154A137803F0C00343F0090313701F32137843F001031370104C237843F00103237044F61F60FFF7BCFF44F61F60FFF7BEFF40F2DB50FFF7C0FFB3
:401940000120FFF7C3FF00F023FD237843F01003237000F021FDFFF7CBFF10BD7F6400409F64004008B5054B1B7823B9FFF7CAFF0122024B1A70FFF78FFF08BD1282FF1FD9
:40198000014B1B689864704708ED00E04001C0B2014B1870704700BF02E400E00422014B1A60704700E100E00422014B1A60704780E100E010B50446FFF7F6FF2046FFF76F
:4019C000DFFF0720FFF7E2FFFFF7E8FF10BD00BF014B1B68D864704708ED00E04001C0B2014B1870704700BF03E400E00822014B1A60704700E100E00822014B1A60704738
:401A000080E100E010B50446FFF7F6FF2046FFF7DFFF0720FFF7E2FFFFF7E8FF10BD00BF044A137803F0FD03400000F0020018431070704720510040044A137803F0BF03FB
:401A4000800100F0400018431070704720510040024B1878C0F38010704700BF21510040024B187800F00100704700BF4E83FF1F014B33F8100070474883FF1F08B50922E8
:401A800000231A70FFF7BCF808BD00BF024B187040081033187070472B64004038B50446064D2B18187900F039F82A7A044B1A70044B185DFFF7EAFF38BD00BFF080FF1FFC
:401AC0005B6500404C83FF1F38B50546FFF7E6FF084C237843F001032370074A137803F0FE0313702846FFF7C9FF237843F00203237038BD7B6400407258004008B5054B1D
:401B000000221A70044A107081221A70FFF7DCFF08BD00BF4E83FF1F4D83FF1F014B1870704700BF815B0040044A137803F07F03C001C0B218431070704700BF20510040E3
:401B4000014B1878C00970472151004000B585B000238DF809304FF4807200928DF8083001230193039003496846FFF751FB05B05DF804FB5083FF1F30B4022901D8013A64
:401B800092B20E4CA4FB0243C3F34F15C5EB9205C3F3CF142B1913440139094A525C02441A440848A2FB0001501A01EB50008008C0EBC000101AC0B230BC70471F85EB5189
:401BC000005B000025499224964A0023D3801179D3889BB20B449BB2D38053899BB2924AA2FB0312D2094FF4C87101FB12339BB283B18C4B5B8913F0030F12D1894B5B89B4
:401C00009BB2894AA2FB03125209642101FB12339BB233B1854A137843F002031370002310E0824A137803F0FD031370F7E77D48C28892B27E491944097B0A4492B2C280DE
:401C40000133DBB2774A127A013A9342EFD310B5764B1B7813F0020F0AD0724B1B7ADBB2022B05D96F4AD3889BB201339BB2D3806C4C2079217A628992B2FFF77DFF0130A0
:401C8000C0B2E070E37813F0FF0F03D0E378DBB2E37004E0634AD3780733DBB2D370614B9B78DBB20B2B05D8604A137803F0FB03137004E05D4A137843F0040313705B4B81
:401CC0005B7813F0010F11D0564B1A7BD2B21B78DBB29A4205D1554A937843F00103937004E0524A937803F0FE0393704F4B5B7813F0020F11D04B4B5A7BD2B25B78DBB27A
:401D00009A4205D1494A937843F00203937004E0464A937803F0FD039370444B5B7813F0040F11D03F4B9A7BD2B29B78DBB29A4205D13E4A937843F00403937004E03B4A9C
:401D4000937803F0FB039370384B5B7813F0080F11D0344BDA7BD2B2DB78DBB29A4205D1324A937843F00803937004E02F4A937803F0F70393702D4B5B7813F0200F11D0AB
:401D8000284B5A8A92B2DB889BB29A4205D1274A937843F02003937004E0244A937803F0DF039370214B5B7813F0100F11D01D4B1A7CD2B21B79DBB29A4205D11B4A937815
:401DC00043F01003937004E0184A937803F0EF039370164B5B7813F0400F11D0114B1A7DD2B21B7ADBB29A4205D1104A937843F04003937004E00D4A937803F0BF039370D3
:401E00000A4B5B7813F0800F19D0064BDA8A92B25B899BB29A420DD1044A937843F0800393700CE0FC80FF1F1F85EB511382FF1F005B00000B4A937803F07F039370094B69
:401E40005B7803F0FF025BB1064B9B7832EA030306D1044B1A7842F008021A7000229A7010BD00BF1382FF1F0222014B1A60704700E100E00222014B1A60704780E100E0DC
:401E800008B5FFF7A1FE0222054B1A6005490120FFF706F807210120FFF716F808BD00BF80E100E0491F000008B500F071FA054A137843F03003137000F06EFA0222024B61
:401EC0001A6008BD8243004000E100E008B5054BDB7823B9FFF7D4FF0122024BDA70FFF7E3FF08BD1382FF1F00487047FC80FF1F10B50446FFF7BEFF2278D2B2094B1A7077
:401F00006278D2B25A70A278D2B29A702279D2B21A71227AD2B21A72628992B25A81FFF7A3FF10BDFC80FF1F014B9878704700BFFC80FF1F034B18781A7802F0F7021A7021
:401F4000704700BF1382FF1F08B50420FEF7D4FF954A13780133DBB213701378DBB23B2B40F2D28153780133DBB25370002313705378DBB23B2B40F29B8193780133DBB211
:401F80009370002353709378DBB2172B40F25481134612790132D2B21A7100229A70DA8892B2013292B2DA80DA780132D2B2DA70DB78DBB2072B02D901227B4BDA707B4B55
:401FC0001B7813F0020F0ED0774B1B7ADBB2022B09D1754B1A79D2B21B7A013B7449CB5C01339A4222D8714B1B7813F0020F0DD06D4B1B7ADBB2022B08D06B4A1379DBB2EE
:40200000127A013A6A498A5C93420FD8674B1B7813F0020F40F09D80634A1379DBB2127A013A63498A5C934240F293805E4A137A0133DBB2137201231371137ADBB20C2B31
:402040005BD953899BB201339BB2538101231372D38053899BB2574AA2FB0312D2094FF4C87101FB12339BB283B14F4B5B8913F0030F11D14C4B5B899BB24E4AA2FB031296
:402080005209642101FB12339BB22BB1474A137843F00203137004E0444A137803F0FD031370454B1B7813F0800F12D0434B5A8992B23D4B5B899BB29A4205D1404A1378C0
:4020C00043F08003137004E03D4A137803F07F031370394B1B7803F0FF0263B1384B1B7832EA030307D1314A137843F0080313700022334B1A70334B1B782F4B1B7813F078
:40210000400F12D02D4B1A7AD2B2274B1B7ADBB29A4205D12A4A137843F04003137004E0274A137803F0BF031370234B1B7803F0FF0263B1224B1B7832EA030307D11B4A20
:40214000137843F00803137000221D4B1A701D4B1B78194B1B7813F0080F12D0174BDA78D2B2114BDB78DBB29A4205D1144A137843F00803137004E0114A137803F0F7038A
:4021800013700D4B1B7813F0200F22D00B4BDA8892B2054BDB889BB29A4215D1084A137843F02003137014E0FC80FF1F1382FF1F0C5B00001F85EB511482FF1F0881FF1F36
:4021C0001582FF1F1782FF1F664A137803F0DF031370654B1B7813F0100F12D0634B1A79D2B2634B1B79DBB29A4205D15D4A137843F01003137004E05A4A137803F0EF0360
:402200001370594B1B7803F0FF0263B1554B1B7832EA030307D1574A137843F0080313700022504B1A70544B1B78514BDB78DBB2012B01D1504B1B784D4B9B78DBB20B2B33
:4022400005D84C4A137803F0FB03137004E0494A137843F004031370434B1B7813F0040F12D0424B9A78D2B2414B9B78DBB29A4205D13C4A137843F00403137004E0394ADE
:40228000137803F0FB031370374B1B7803F0FF0263B1344B1B7832EA030307D1354A137843F00803137000222E4B1A70324B1B782D4B1B7813F0020F12D02C4B5A78D2B228
:4022C0002B4B5B78DBB29A4205D1264A137843F00203137004E0234A137803F0FD031370214B1B7803F0FF0263B11E4B1B7832EA030307D11F4A137843F00803137000227A
:40230000184B1A701C4B1B78174B1B7813F0010F12D0164B1A78D2B2154B1B78DBB29A4205D1104A137843F00103137004E00D4A137803F0FE0313700B4B1B7803F0FF026A
:4023400063B1084B1B7832EA030307D1094A137843F0080313700022024B1A70064B1B7808BD00BF1582FF1F1482FF1F0881FF1FFC80FF1F1382FF1F1782FF1F0000000055
:402380000230800803D000BF01380046FCD17047EFF3108072B6704780F31088704700BF10B500F0E3F800F091F910BB012000F06FF9072818D102210F4800F0E9F8022821
:4023C0000AD102E00120FEF73FFD0C4B1B7813F0020FF7D0002409E0084B1B7813F0020FE9D04FF0FF3401E04FF0FF3400F094F900E00424204610BD6C83FF1F2247004016
:4024000010B500F0B3F800F061F9D0B900F0A0F90446072812D102E00120FEF715FD0A4B1B7813F0020FF7D0074B1B7813F0020F04D0054B1B789B0800D1002400F06CF91A
:4024400000E00424204610BD2247004008B5FFF7D7FF034610B9FFF7A3FF0346184608BD2DE9F041441FE4B23A2C01D9002500E0012510F0800F00D00125412800D9012541
:402480003F2803D8B1F5807F06D808E0802900D90125102B02D102E0012500E0012502B90125002D50D1984616460F46044600F00DF9002847D1434632463946204600F097
:4024C00081F8064607283AD102E00120FEF7BCFC1F4B1B7813F0020FF7D01D4B1B7813F0020F06D01A4B1B789B0805D04FF0FF3603E04FF0FF3600E02E4606BB154A5378F6
:4025000012783946204600F09DF8072804D0064615E00120FEF798FC0D4B1B7813F0020FF7D00B4B1B7813F0020F06D0084B1B789B0804D04FF0FF3601E04FF0FF3600F00A
:40254000EBF8354600E004252846BDE8F08100BF224700406C83FF1F08B53F2801D9102301E04FF48073FFF77BFF08BD08B5FFF70FFF064A137843F0080313701032137854
:4025800043F008031370FFF707FF08BDA043004070B506460D4600240CE00120FEF754FC064B1B7813F0010FF7D0054B1B7833550134E4B2AC42F3D3204670BD2247004058
:4025C0002047004070B41D4C247814F0020F2CD01B4CB6252570D5252570022525700234247814F0020F22D1154C2070002404E0165D134D2E700134A4B29C42F8D3B3F5B8
:40260000807F16D13F2816D800F5103001EB00214801002305E01A5CD2B209490A7001339BB21F2BF7D9072006E0042004E0092002E0072000E0072070BC70472247004091
:402640002047004030B4104C247814F0020F15D00E4CB6252570D8252570052525700234247814F0020F0BD1084C2070080A2070C9B2217022702370072002E0042000E03B
:40268000092030BC704700BF22470040204700400C4B1B7813F0020F0FD00B4BB6221A70E1221A700E221A7002331B7813F0020F05D1054B187007207047042070470920F7
:4026C000704700BF224700402047004010B5FFF75FFE0F4B1B78A3B901220D4B1A700D4B1B6813F0010F0ED00A4A136823F00103136000BF00BF00BF0122054B5A600024FB
:4027000002E0042400E00024FFF746FE204610BD1882FF1F0400084008B5FFF739FE0A4B00221A705B68012B0AD1084A136843F00103136000BF00BF00BF0022024B5A6088
:40274000FFF72AFE08BD00BF1882FF1F04000840074B1B7813F0020F08D0064BB6221A70E0221A700D221A700720704704207047224700402047004081F0004102E000BF8E
:4027800083F0004330B54FEA41044FEA430594EA050F08BF90EA020F1FBF54EA000C55EA020C7FEA645C7FEA655C00F0E2804FEA5454D4EB5555B8BF6D420CDD2C4480EA4E
:4027C000020281EA030382EA000083EA010180EA020281EA0303362D88BF30BD11F0004F4FEA01314FF4801C4CEA113102D0404261EB410113F0004F4FEA03334CEA1333E2
:4028000002D0524263EB430394EA050F00F0A780A4F10104D5F1200E0DDB02FA0EFC22FA05F2801841F1000103FA0EF2801843FA05F359410EE0A5F120050EF1200E012A36
:4028400003FA0EFC28BF4CF0020C43FA05F3C01851EBE37101F0004507D54FF0000EDCF1000C7EEB00006EEB0101B1F5801F1BD3B1F5001F0CD349085FEA30004FEA3C0C65
:4028800004F101044FEA445212F5800F80F09A80BCF1004F08BF5FEA500C50F1000041EB045141EA050130BD5FEA4C0C404141EB010111F4801FA4F10104E9D191F0000F0F
:4028C00004BF01460020B1FA81F308BF2033A3F10B03B3F120020CDA0C3208DD02F1140CC2F10C0201FA0CF021FA02F10CE002F11402D8BFC2F1200C01FA02F120FA0CFCB0
:40290000DCBF41EA0C019040E41AA2BF01EB0451294330BD6FEA04041F3C1CDA0C340EDC04F11404C4F1200220FA04F001FA02F340EA030021FA04F345EA030130BDC4F129
:402940000C04C4F1200220FA02F001FA04F340EA0300294630BD21FA04F0294630BD94F0000F83F4801306BF81F480110134013D4EE77FEA645C18BF7FEA655C29D094EACD
:40298000050F08BF90EA020F05D054EA000C04BF1946104630BD91EA030F1EBF0021002030BD5FEA545C05D14000494128BF41F0004130BD14F580043CBF01F5801130BDBA
:4029C00001F0004545F0FE4141F470014FF0000030BD7FEA645C1ABF194610467FEA655C1CBF0B46024650EA013406BF52EA033591EA030F41F4002130BD00BF90F0000F40
:402A000004BF0021704730B54FF4806404F132044FF000054FF0000150E700BF90F0000F04BF0021704730B54FF4806404F1320410F0004548BF40424FF000013EE700BFF7
:402A400042004FEAE2014FEA31014FEA02701FBF12F07F4393F07F4F81F06051704792F0000F14BF93F07F4F704730B54FF4607401F0004521F0004120E700BF50EA010223
:402A800008BF704730B54FF000050AE050EA010208BF704730B511F0004502D5404261EB41014FF4806404F132045FEA915C3FF4DCAE4FF003025FEADC0C18BF03325FEAA9
:402AC000DC0C18BF033202EBDC02C2F1200300FA03FC20FA02F001FA03FE40EA0E0021FA02F11444C1E600BF70B54FF0FF0C4CF4E06C1CEA11541DBF1CEA135594EA0C0FF3
:402B000095EA0C0F00F0DEF82C4481EA030621EA4C5123EA4C5350EA013518BF52EA033541F4801143F4801338D0A0FB02CE4FF00005E1FB02E506F00042E0FB03E54FF0FE
:402B40000006E1FB03569CF0000F18BF4EF0010EA4F1FF04B6F5007F64F5407404D25FEA4E0E6D4146EB060642EAC62141EA55514FEAC52040EA5E504FEACE2EB4F1FD0C69
:402B800088BFBCF5E06F1ED8BEF1004F08BF5FEA500E50F1000041EB045170BD06F0004646EA010140EA020081EA0301B4EB5C04C2BFD4EB0C0541EA045170BD41F48011B1
:402BC0004FF0000E013C00F3AB8014F1360FDEBF002001F0004170BDC4F10004203C35DA0C341BDC04F11404C4F1200500FA05F320FA04F001FA05F240EA020001F0004234
:402C000021F0004110EBD37021FA04F642EB06015EEA430E08BF20EAD37070BDC4F10C04C4F1200500FA04F320FA05F001FA04F240EA020001F0004110EBD37041F1000182
:402C40005EEA430E08BF20EAD37070BDC4F1200500FA05F24EEA020E20FA04F301FA05F243EA020321FA04F001F0004121FA04F220EA020000EBD3705EEA430E08BF20EA3C
:402C8000D37070BD94F0000F0FD101F00046400041EB010111F4801F08BF013CF7D041EA060195F0000F18BF704703F00046520043EB030313F4801F08BF013DF7D043EA6B
:402CC0000603704794EA0C0F0CEA135518BF95EA0C0F0CD050EA410618BF52EA4306D1D181EA030101F000414FF0000070BD50EA410606BF1046194652EA430619D094EA5D
:402D00000C0F02D150EA013613D195EA0C0F05D152EA03361CBF104619460AD181EA030101F0004141F0FE4141F470014FF0000070BD41F0FE4141F4780170BD70B54FF02E
:402D4000FF0C4CF4E06C1CEA11541DBF1CEA135594EA0C0F95EA0C0F00F0A7F8A4EB050481EA030E52EA03354FEA013100F088804FEA03334FF0805545EA131343EA1263E0
:402D80004FEA022245EA111545EA10654FEA00260EF000419D4208BF964244F1FD0404F5407402D25B084FEA3202B61A65EB03055B084FEA32024FF480104FF4002CB6EB3F
:402DC000020E75EB030E22BFB61A754640EA0C005B084FEA3202B6EB020E75EB030E22BFB61A754640EA5C005B084FEA3202B6EB020E75EB030E22BFB61A754640EA9C00A8
:402E00005B084FEA3202B6EB020E75EB030E22BFB61A754640EADC0055EA060E18D04FEA051545EA16754FEA06164FEAC30343EA52734FEAC2025FEA1C1CC0D111F4801FED
:402E40000BD141EA00014FF000004FF0004CB6E711F4801F04BF01430020B4F1FD0C88BFBCF5E06F3FF6AFAEB5EB030C04BFB6EB020C5FEA500C50F1000041EB045170BDDC
:402E80000EF0004E4EEA113114EB5C04C2BFD4EB0C0541EA045170BD41F480114FF0000E013C90E645EA060E8DE60CEA135594EA0C0F08BF95EA0C0F3FF43BAF94EA0C0F65
:402EC0000AD150EA01347FF434AF95EA0C0F7FF425AF104619462CE795EA0C0F06D152EA03353FF4FDAE1046194622E750EA410618BF52EA43067FF4C5AE50EA41047FF453
:402F00000DAF52EA43057FF4EBAE12E74FEA4102B2F1E04324BFB3F5001CDCF1FE5C0DD901F0004C4FEAC0024CEA5070B2F1004F40EB830008BF20F00100704711F0804F29
:402F400021D113F13872BCBF01F00040704741F480114FEA5252C2F11802C2F1200C10FA0CF320FA02F018BF40F001004FEAC1234FEAD32303FA0CFC40EA0C0023FA02F349
:402F80004FEA4303CCE77FEA625307D150EA01331EBF4FF0FE4040F44000704701F0004040F0FE4040F40000704700BF80F0004002E000BF81F0004142001FBF5FEA4103FD
:402FC00092EA030F7FEA226C7FEA236C6AD04FEA1262D2EB1363C1BFD218414048404140B8BF5B42192B88BF704710F0004F40F4000020F07F4018BF404211F0004F41F4C0
:40300000000121F07F4118BF494292EA030F3FD0A2F1010241FA03FC10EB0C00C3F1200301FA03F100F0004302D5494260EB4000B0F5000F13D3B0F1807F06D340084FEA6E
:40304000310102F10102FE2A51D2B1F1004F40EBC25008BF20F0010040EA03007047490040EB000010F4000FA2F10102EDD1B0FA80FCACF1080CB2EB0C0200FA0CF0AABF37
:4030800000EBC25052421843BCBFD0401843704792F0000F81F4000106BF80F400000132013BB5E74FEA41037FEA226C18BF7FEA236C21D092EA030F04D092F0000F08BF4E
:4030C0000846704790EA010F1CBF0020704712F07F4F04D1400028BF40F00040704712F100723CBF00F50000704700F0004343F0FE4040F4000070477FEA226216BF0846E1
:403100007FEA23630146420206BF5FEA412390EA010F40F4800070474FF0000304E000BF10F0004348BF40425FEA000C08BF704743F0964301464FF000001CE050EA01025F
:4031400008BF70474FF000030AE000BF50EA010208BF704711F0004302D5404261EB41015FEA010C02BF84460146002043F0B64308BFA3F18053A3F50003BCFA8CF2083A4D
:40318000A3EBC25310DB01FA02FC634400FA02FCC2F12002BCF1004F20FA02F243EB020008BF20F00100704702F1200201FA02FCC2F1200250EA4C0021FA02F243EB0200A3
:4031C00008BF20EADC7070474FF0FF0C1CEAD0521EBF1CEAD15392EA0C0F93EA0C0F6FD01A4480EA010C400218BF5FEA41211ED04FF0006343EA501043EA5111A0FB013102
:403200000CF00040B1F5000F3EBF490041EAD3715B0040EA010062F17F02FD2A1DD8B3F1004F40EBC25008BF20F00100704790F0000F0CF0004C08BF49024CEA502040EAFA
:4032400051207F3AC2BFD2F1FF0340EAC250704740F400004FF00003013A5DDC12F1190FDCBF00F000407047C2F10002410021FA02F1C2F1200200FA02FC5FEA310040F1D8
:40328000000053EA4C0308BF20EADC70704792F0000F00F0004C02BF400010F4000F013AF9D040EA0C0093F0000F01F0004C02BF490011F4000F013BF9D041EA0C018FE7F3
:4032C0000CEAD15392EA0C0F18BF93EA0C0F0AD030F0004C18BF31F0004CD8D180EA010000F00040704790F0000F17BF90F0004F084691F0000F91F0004F14D092EA0C0FCC
:4033000001D142020FD193EA0C0F03D14B0218BF084608D180EA010000F0004040F0FE4040F40000704740F0FE4040F4400070474FF0FF0C1CEAD0521EBF1CEAD15392EA5E
:403340000C0F93EA0C0F69D0A2EB030280EA010C49024FEA402037D04FF0805343EA111143EA10130CF000408B4238BF5B0042F17D024FF4000C8B4224BF5B1A40EA0C0005
:40338000B3EB510F24BFA3EB510340EA5C00B3EB910F24BFA3EB910340EA9C00B3EBD10F24BFA3EBD10340EADC001B0118BF5FEA1C1CE0D1FD2A3FF650AF8B4240EBC25068
:4033C00008BF20F0010070470CF0004C4CEA50207F32C2BFD2F1FF0340EAC250704740F400004FF00003013A37E792F0000F00F0004C02BF400010F4000F013AF9D040EA88
:403400000C0093F0000F01F0004C02BF490011F4000F013BF9D041EA0C0195E70CEAD15392EA0C0F08D142027FF47DAF93EA0C0F7FF470AF084676E793EA0C0F04D14B02DE
:403440003FF44CAF08466EE730F0004C18BF31F0004CCAD130F000427FF45CAF31F000437FF43CAF5FE700BF4FEA4002B2F1FE4F0FD34FF09E03B3EB12620DD94FEA002308
:4034800043F0004310F0004F23FA02F018BF404270474FF00000704712F1610F01D1420205D110F0004008BF6FF0004070474FF0000070470A22002100F0DCB9014B1868E2
:4034C000704700BF7481FF1F0E4B70B51E460E4C0025E41AA410A54204D056F8253098470135F8E702F0FCFB084B094C1E46E41AA4100025A54204D056F82530984701359F
:40350000F8E770BDEC5C0000EC5C0000EC5C0000F45C000010B5431E0A44914204D011F8014B03F8014FF8E710BD03460244934202D003F8011BFAE77047000070B50E4692
:40354000054618B183690BB900F084FBAB69AC6813B9284600F07EFB224B9C4201D16C6808E0214B9C4201D1AC6803E01F4B9C4208BFEC68A3891B0701D523693BB92146F3
:40358000284600F0E7F910B14FF0FF3070BD013EA36816F8011F013BA36091B1002B04DAA269934206DB0A2904D023685A1C22601970EDE72246284600F066F90130E7D1B9
:4035C000E2E7002B08DA22460A21284600F05CF90130D9D00A2070BD23680A205A1C2260187070BD245C0000445C0000645C0000024B01461868FFF7A1BF00BF7481FF1F00
:403600000FB40A4B13B51C6824B1A36913B9204600F020FB05AB049A61682046019301F0C9FA02B0BDE8104004B070477481FF1F0EB400B54FF402719CB0ADF814106FF07D
:403640000041049107914FF6FF711DAB02900690084853F8042BADF81610006802A9019300F014FD029B00221A701CB05DF804EB03B070477481FF1F0EB430B59CB01FAC66
:403680004FF4017254F8045BADF814200290069000F061F80B4B03900B9300230F9314934FF6FF7307900848ADF816302A46234602A90068019400F039FE1CB0BDE830405A
:4036C00003B07047EF3600007481FF1F10B50C46B1F90E1001F0EEFB0028ABBF636DA3891B1823F48053ACBF6365A38110BD002070472DE9F0411F468B890546DB050C468C
:40370000164605D502230022B1F90E1000F048FBA389324623F48053A381B4F90E103B462846BDE8F04100F003B910B50C46B1F90E1000F035FB431CA38915BF606523F4E9
:40374000805343F48053A38118BFA38110BDB1F90E1000F06DB9034613F8012B002AFBD1181A0138704700002DE9F0470F4680463F48D0F800903D4615F8014B09EB0400EF
:40378000407800F0080000F0FF0608B12F46F2E72D2C03D1BD1C7C78012603E02B2C04BF7C78BD1C13B1102B0AD15BE0302C57D1287800F0DF0058284DD16C78102302357E
:4037C000002E14BF4FF0004C6FF0004CBCFBF3FA0027384603FB1ACC09EB040E9EF801E01EF0040F01D0303C0BE01EF0030E1BD0BEF1010F0CBF4FF0370E4FF0570ECEEB2A
:403800000404A34210DDB7F1FF3F0AD0504506D801D1644503DC03FB0040012701E04FF0FF3715F8014BD7E77B1C0CD1002E4FF0220314BF4FF000406FF00040C8F8003067
:403840002AB9BDE8F08706B1404272B107B1691E1160BDE8F0873024002BB1D10823AFE70A23ADE7302CA3D0AAE7BDE8F08700BF7881FF1F13460A46014602480068FFF7B4
:4038800073BF00BF7481FF1FF8B50F461446064618B183690BB900F0DDF9224B9C4201D1746808E0204B9C4201D1B46803E01F4B9C4208BFF468A369A360A3891A0709D57D
:4038C00023693BB123682069FDB2181A636998420FDB08E02146304600F03CF80028F1D04FF0FF30F8BD2146304600F037F90028F6D1A368013BA36023685A1C22601F708E
:403900006269431C934204D0A389DB0707D50A2D05D12146304600F021F90028E0D12846F8BD00BF245C0000445C0000645C000038B5074C054608461146002222601A4607
:4039400001F06CFD431C02D1236803B12B6038BD7083FF1F324B70B51D6806460C4625B1AB6913B9284600F075F92E4B9C4201D16C6808E02C4B9C4201D1AC6803E02B4B2B
:403980009C4208BFEC68B4F90C309AB215071DD4D00602D4092232603AE0510712D5616B41B104F14403994202D0304600F06AFA00236363A38923F02403A3810023636040
:4039C00023692360A38943F00803A38123694BB9A38903F42073B3F5007F03D02146304600F014FAA28912F0010305D00023A36063695B42A36103E0920758BF6369A36014
:403A000023695BB9B4F90C3003F0800080B230B143F04003A3814FF0FF3070BD002070BD7481FF1F245C0000445C0000645C000038B5064C002305460846236001F0C6FCD1
:403A4000431C02D1236803B12B6038BD7083FF1F8A892DE9F041054610070C4659D44B68002B02DC0B6C002B17DDE66AAEB102F48052002392B22F682B600AB1606D15E03A
:403A8000216A01232846B047411C0FD12B686BB11D2B01D0162B03D12F600020BDE8F081A38943F04003A381BDE8F081A3895A0705D56368C01A636B0BB1236CC01A002315
:403AC0000246E66A216A2846B047431CA38906D129681D2939D8204ACA40D60735D5002262602269D904226004D5421C01D12B6803B96065616B2F600029CED004F1440350
:403B0000994202D0284600F0BDF900206063BDE8F0810F69002FC0D093070E680CBF4B690023C7EB06080F608B6002E00744C0EB0808B8F1000FB0DD43463A46216A284699
:403B4000A66AB0470028F1DCA38943F04003A3814FF0FF30BDE8F0810100402038B50B6905460C46DBB118B183690BB900F072F80C4B9C4201D16C6808E00B4B9C4201D178
:403B8000AC6803E0094B9C4208BFEC68B4F90C302BB121462846BDE83840FFF759BF002038BD00BF245C0000445C0000645C0000014620B9044B0549186800F0D3B8044B41
:403BC0001868FFF7CBBF00BF1C5B00005D3B00007481FF1F014900F0C5B800BF5D3B000010B50446002303604360836081814366C281036143618361194608225C30FFF7D6
:403C000094FC054B24626362044BA362044BE362044B236310BD00BFCD360000F33600002B3700004F37000070B568234D1E5D430E4605F1740100F071F9044640B10021CC
:403C400080E842000C30A06005F16802FFF76DFC204670BD836910B5044633BB8364C3640365124B124A1B688262984204BF0123836100F01FF86060204600F01BF8A060B8
:403C8000204600F017F80022E06004216068FFF7A7FF01220921A068FFF7A2FF02221221E068FFF79DFF0123A36110BD1C5B0000D53B0000F8B51C4B07461E68B36913B94C
:403CC0003046FFF7C7FF4836B4687368013B04D4B4F90C507DB16834F8E733680BB13668F2E704213846FFF79FFF30600028F6D10C233B60F8BD4FF6FF73E3810123A381F1
:403D000065662560A560656025616561A5610822294604F15C00FFF708FC6563A563A564E5642046F8BD00BF1C5B00002DE9F041884600F1480400268CB1A5686768013FEF
:403D40000BD4AB89012B06D9B5F90E30013302D02846C04706436835F1E72468ECE73046BDE8F0812DE9F8438046894600F14804002694B1A5686768013F0CD4AB89012B2B
:403D800007D9B5F90E30013303D029464046C84706436835F0E72468EBE73046BDE8F88338B5074C054608461146002222601A4601F024FB431C02D1236803B12B6038BD46
:403DC0007083FF1F70B50E46B1F90E1090B0002914461D4606DA00232B60B3891A060ED540230EE001AA01F073FA0028F3DB029A02F47042A2F500535A425A412A604FF4FC
:403E000080630020236010B070BD00008B8973B59E0705460C4610D401AB6A46FFF7D2FF00990646284600F079F868B9B4F90C309A0522D443F00203A38104F14703236019
:403E400023610123636118E00D4BAB62A389206043F08003A381009B20616361019B4BB1B4F90E10284601F045FA18B1A38943F00103A381A0893043A08102B070BD00BF67
:403E8000D53B000038B50546002944D051F8043C0C1F002BB8BFE41801F065FA1E4A1368114613B96360146030E0A3420DD92268A018834201BF18685B681218226063604A
:403EC0000C6023E0A24203D813465A68002AF9D118681918A1420BD12168014458188242196013D110685268014419605A600DE002D90C232B6009E021686018824201BF1C
:403F0000106852680918216062605C602846BDE8384001F029BA38BD2482FF1F70B5CD1C25F0030508350C2D38BF0C25002D064601DBA94202D90C23336046E001F013FA4D
:403F4000234B1C681A462146A1B10B685B1B0ED40B2B03D90B60CC18CD501EE08C420BBF63684B681360636018BF0C4615E00C464968E9E7174C23681BB9304601F03EF853
:403F800020602946304601F039F8431C18D0C41C24F00304A0420DD12560304601F0E4F904F10B00231D20F00700C31A0ED05A42E25070BD211A304601F020F80130EBD1FB
:403FC0000C233360304601F0CFF9002070BD00BF2482FF1F2082FF1F2DE9F0478E6882469E420C46914698463ED88A8912F4906F3AD02568096902236F1A656905EB450561
:4040000095FBF3F57B1C43449D4238BF1D4653050FD52946FFF782FF064698B13A462169FFF778FAA38923F4906343F08003A38113E02A4601F099F9064670B921695046FD
:40404000FFF720FF0C23CAF80030A3894FF0FF3043F04003A381BDE8F08726613E44266046466561ED1BA560464528BF464649463246206801F05CF9A36800209B1BA36015
:4040800023681E442660BDE8F08700002DE9F04F9DB003938B8980461C060D4616460DD50B695BB94021FFF739FF2860286118B90C23C8F80030CDE040236B6100230993F9
:4040C00020238DF82930DFF89CB130238DF82A3037463C4614F8013B1BB9B7EB060910D003E0252BF9D02746F3E74B46324629464046FFF771FF013000F0A780099B4B447B
:4041000009933B78002B00F0A08000234FF0FF3204930793059206938DF853301A930126052221784E4801F0F5F8671C049B38B14B4A3C46801A06FA00F018430490EFE780
:40414000D90644BF20228DF853201A0744BF2B228DF8532022782A2A03D0079A00210A200BE0039A111D12680391002A10DA524243F00200079204900BE027463B780134FF
:40418000303B092B03D800FB02320121F5E701B107923B782E2B1ED17B782A2B0AD1039B02371A1D1B680392002BB8BF4FF0FF33059310E0002319460593781C0A24074605
:4041C0003A780130303A092A03D804FB01210123F5E703B1059103223978224801F09AF840B14023CBEB000003FA00F0049B013718430490397806221B487E1C8DF82810E6
:4042000001F088F888B1194B33B9039B073323F007030833039314E003AB00932A46144B04A94046AFF3008007E003AB00932A460F4B04A9404600F043FAB0F1FF3F82466C
:4042400003D0099B5344099342E7AB895B0601D4099801E04FF0FF301DB0BDE8F08F00BF845C00008A5C00008E5C000000000000D93F00004B1C70B50E46144602D14FF04D
:40428000FF3070BD9389CDB223F020039381536B526883B1A36B9A4207DA23685A1E226003F8016C636801331FE0214600F064FF0028F2D0E3E72169236851B1994208D221
:4042C00013F8011C8D4204D1013B0132236062600CE0E36304F1440363630323A3632346226403F8466F236001236360284670BD10B50C46496B69B104F14403994201D06D
:40430000FFF7C0FD236C00206063636013B1E36B236010BD23694FF0FF30236000236360A38943F02003A38110BD00002DE9F04FDFF89C9207460D46CA46ADF5257D01937B
:404340000023469347939E4B0DF10C08A2939D4BDFF874B2CDF82081A3931478002C00F02781D9F8003023445B7803F0080303F0FF01F3B16B68002B10DD2B68DAF8000046
:404380001978014449780C0710D5479901330131479169682B6001396960EBE7A39B2946384600929847009A0028E6D0561C3246D3E7252C02F1010652D143914591537884
:4043C0002A2B02BF1023961C43930A2231783446A1F13003092B06F1010605D8459B02FB0313303B4593F1E70322774800F092FF40B134460123CBEB000003FA00F0439B46
:4044000003434393661C2478672C16D8652C7FD2472C07D8452C7BD2002C00F0CB80252C1ED077E05B2C51D002D8582C3ED071E0632C57D0642C3FD06CE0702C32D007D84F
:404440006E2C55D03AD8692C64D1002344933BE0752C31D0782C29D0732C5BD102233FE06B68002B0DDD2B681A78944240F0A08001336A682B60479B013A01336A60479385
:4044800095E7A39B2946384698470028EBD04698002800F08F80AB8913F0400F18BF4FF0FF3089E0439B43F020034393439B43F400734393102302E00A2300E008236E2C0B
:4044C000449301DD04230BE0032309E03146404600F0A4FD0646439B43F040034393012349931BE0439B43F0400343930023F7E7439AD0063FF55BAF12F0010F019A479B3C
:4045000002F104010191126814BF138013604EE70523E5E7032349930A2344936B68002B03DD439B590611D518E0A39B2946384698470028F5D0AAE7479A013247926A682F
:40454000013A002A6A6013DD01332B602B68DAF800101A780A4452781207EDD4499B022B0DDC01AB2A4643A9384600F04BFB19E0A39B2946384698470028E7D087E7042B2F
:4045800006DC01AB2A4643A9384600F0A1FB09E00E4B002B3FF40BAF01AB2A4643A93846AFF30080012803D002287FF400AF6EE7469801E04FF0FF300DF5257DBDE8F08F73
:4045C00075420000F14200008A5C0000000000007881FF1F2DE9F04791461F460A698B6806469342B8BF1346C9F8003091F843200C46DDF8208012B10133C9F800302368DD
:40460000990642BFD9F800300233C9F80030256815F0060510D104F1190A07E00123524639463046C04701301AD00135E368D9F800209B1A9D42F1DB94F8433022680033D5
:4046400018BF012392060FD5E118302081F843005A1C94F845102244023382F8431003E04FF0FF30BDE8F08704F1430239463046C0470130F4D02268D9F80050E36802F07F
:404680000602042A08BF5D1B2269A3680CBF25EAE57500259342C4BF9B1AED184FF000091A344D4509D00123224639463046C0470130D5D009F10109F3E70020BDE8F0870B
:4046C0002DE9F04317460A7E85B06E2A984606460C460C9B01F1430E00F0AE8011D8632A22D009D8002A00F0BB80582A40F0CA8081F84520834955E0642A1ED0692A1CD0C7
:40470000C0E0732A00F0B08009D86F2A2ED0702A40F0B8800A6842F020020A603EE0752A24D0782A3AD0ADE01A6801F14205111D1960136884F84230A8E021681A6811F029
:40474000800F02D0111D196008E011F0400F02F10401196002D0B2F9003000E01368002B3CDA2D225B4284F8432037E021681A6811F0800F02D0111D196007E011F0400F12
:4047800002F10401196001D0138800E01368227E5C496F2A14BF0A2208221BE078225A4984F845202268186812F0800F00F104051D6003D1550601D5038800E00368D007DD
:4047C00044BF42F0200222601BB9226822F0200222601022002084F8430001E049490A226568002DA56008DB206820F0040020602BB9002D7DD175460CE0002B79D07546E9
:40480000B3FBF2F002FB1033CB5C05F8013D03460028F5D1082A0BD12368DA0708D5236962689A42DEBF302305F8013C05F1FF35C5EB0E0323612EE008681A6810F0800F5E
:40484000496903D0101D1860136808E010F0400F02F104001860136801D0198000E0196000232361754616E01A68111D1960156800216268284600F04DFD08B1401B60604A
:40488000636804E004F1420584F8422001232361002384F84330CDF800803B4603AA21463046FFF797FE013002D14FF0FF3026E023692A4639463046C0470130F5D02368A9
:4048C0009B0710D5002504F1190907E001234A4639463046C0470130E7D00135E368039A9B1A9D42F2DBE068039B9842B8BF184605E00B7804F1420584F842308AE705B0AA
:40490000BDE8F083955C0000A65C00002DE9F04FDFF89C9207460D46CA46ADF5257D01930023469347939E4B0DF10C08A2939D4BDFF874B2CDF82081A3931478002C00F05B
:404940002781D9F8003023445B7803F0080303F0FF01F3B16B68002B10DD2B68DAF800001978014449780C0710D5479901330131479169682B6001396960EBE7A39B2946E4
:40498000384600929847009A0028E6D0561C3246D3E7252C02F1010652D14391459153782A2B02BF1023961C43930A2231783446A1F13003092B06F1010605D8459B02FB38
:4049C0000313303B4593F1E70322774800F0A2FC40B134460123CBEB000003FA00F0439B03434393661C2478672C16D8652C7FD2472C07D8452C7BD2002C00F0CB80252C9F
:404A00001ED077E05B2C51D002D8582C3ED071E0632C57D0642C3FD06CE0702C32D007D86E2C55D03AD8692C64D1002344933BE0752C31D0782C29D0732C5BD102233FE0B0
:404A40006B68002B0DDD2B681A78944240F0A08001336A682B60479B013A01336A60479395E7A39B2946384698470028EBD04698002800F08F80AB8913F0400F18BF4FF073
:404A8000FF3089E0439B43F020034393439B43F400734393102302E00A2300E008236E2C449301DD04230BE0032309E03146404600F0B4FA0646439B43F040034393012304
:404AC00049931BE0439B43F0400343930023F7E7439AD0063FF55BAF12F0010F019A479B02F104010191126814BF138013604EE70523E5E7032349930A2344936B68002B2A
:404B000003DD439B590611D518E0A39B2946384698470028F5D0AAE7479A013247926A68013A002A6A6013DD01332B602B68DAF800101A780A4452781207EDD4499B022B4B
:404B40000DDC01AB2A4643A9384600F05BF819E0A39B2946384698470028E7D087E7042B06DC01AB2A4643A9384600F0B1F809E00E4B002B3FF40BAF01AB2A4643A9384623
:404B8000AFF30080012803D002287FF400AF6EE7469801E04FF0FF300DF5257DBDE8F08FED510000ED4E00008A5C0000000000007881FF1F2DE9F0410C4616461F46054626
:404BC00018B183690BB9FFF745F80B4B9C4201D16C6808E0094B9C4201D1AC6803E0084B9C4208BFEC683B46324621462846BDE8F041FFF78BBE00BF245C0000445C00003E
:404C0000645C00002DE9F84315468A6880460C4632B98A69002A0CBF01224FF0FF328A602268DFF8A890D10658BF1A684FF000065EBF111D19601768A069F8B923680136A1
:404C4000DA065EBF2B681B783B702A686B6802F101022A60A26803F1FF3302F1FF326B6058BF0137A260E2B1002BE5DCD4F880312946404698470028DED012E0012806D179
:404C80002B681A7863699B5C002BD7D119E0022807D12B68D9F800201B7813445B781B07CCD5236813F0100305D1E2680132E260A26902B13B70236900201E442661BDE861
:404CC000F883002EEDD1BDE8F88300BF7881FF1F2DE9F04F0C469A46724B87B08346164693E8070003ABA76883E807006E4BA1696E4A04F11C09032918BF1A467B1EB3F5CD
:404D0000AE7F84BF40F25D13A360236888BF6FF4AE7543F4506323604B4600928CBF7F1900274FF000083168019303AB53F828000222097800F0EEFA019B002833D0B8F1EA
:404D4000010F0BD162682AB908226260226842F400722260226822F4A0620CE0B8F1020F0AD1226802F4C061B1F5007F1BD11021616042F480722260A268511EA16092B1CC
:404D800032685D1C511C316012781A707368013B002B736006DCD4F88031314658469847002841D12B4608F10108B8F1030FBAD162680AB90A22626062683D496069891A3C
:404DC000019300F02BF9019B4FF000081D46A36863B3316860690A78805C38B3302A226808D1100506D508F1010857B10133013FA36006E022F4106222600B78013505F825
:404E0000013C7368013B002B736003DD33680133336005E0D4F8803131465846984728B9A368013BA360D2E74FF000082368D9050CD54D4508D915F8011C6F1ED4F87C3170
:404E40003246584698473D464D4527D0226812F010021BD12A70636849465846009EB0472268DAF8003012F0200F07D1D20705D51A1DCAF800201B68188004E01A1DCAF827
:404E800000201B681860E3680133E3602369C9EB050545441D442561002000E0012007B0BDE8F08FB85C00007D50000069370000D45C000038B5074C05460846114600225C
:404EC00022601A4600F0A2FA431C02D1236803B12B6038BD7083FF1F838903F00903092B01D1FEF765BE002070470000F8B50C46054618B183690BB9FEF7ACFE3A4B9C427D
:404F000001D16C6808E0394B9C4201D1AC6803E0374B9C4208BFEC68B4F90C200023636093B29E065BD458071AD4D90605D4092342F040022B60A28151E01A070BD521467A
:404F40002846FEF70BFE002849D1A389A06023F00803A381A061A38943F00403A38110E0616B71B104F14403994202D02846FEF789FF236C00206063636013B1E36B23600E
:404F8000F8BD23691BB921462846FEF73FFFB4F90C70BEB2B3070FD00123A381154B1649186806F00906FEF7C1FE092EA78103D121462846FEF74CFD2269666A2260636973
:404FC000216A2846B047002860600BDCA38917BF002243F0200343F040036260A3814FF0FF30F8BD0020F8BD245C0000445C0000645C00001C5B0000D94E000038B5064C67
:405000000023054608462360FBF794FE431C02D1236803B12B6038BD7083FF1F70B50B78441E5E2B13BF4A1C8A1C4B78002108BF012100F1FF0504F8011FAC42FBD10BB9DE
:40504000501E70BD81F001041146C4540D784A1C2D2D06D05D2D0FD00DB12B46F4E7084670BD4E785D2EF8D0B342F6DC023101339E42C454FBDCE9E7104670BD2DE9F047F1
:405080000E4680463B48D0F80090354615F8014B09EB0400407800F0080000F0FF0708B12E46F2E72D2C03D1B51C7478012703E02B2C04BF7478B51C13B1102B0AD153E0AA
:4050C000302C4FD1287800F0DF00582845D16C78102302354FF0FF3CBCFBF3FC03FB0CFA00266FEA0A0A304609EB040E9EF801E01EF0040F01D0303C0BE01EF0030E1AD0E5
:40510000BEF1010F0CBF4FF0370E4FF0570ECEEB0404A3420FDD002E08DB604506D801D1544503DC03FB0040012601E04FF0FF3615F8014BD8E7002E07DA2223C8F8003037
:405140004FF0FF302AB9BDE8F08707B1404272B106B1691E1160BDE8F0873024002BB9D10823B7E70A23B5E7302CABD0B2E7BDE8F08700BF7881FF1F2DE9F0410C46496B50
:4051800004F1440399421AD14FF48061FEF7C6FE18B94FF0FF30BDE8F0814FF48063A36394F84630606380F8FF3394F8453000F2FD30437094F844300370206012E0A66B57
:4051C00077003A4600F0D1F805460028E1D000EB0608014632464046FEF79CF9C4F800806563A7630020BDE8F0810000F8B54D1C06460F46144602D14FF0FF30F8BD18B1FF
:4052000083690BB9FEF726FD2E4B9C4201D1746808E02D4B9C4201D1B46803E02B4B9C4208BFF468B4F90C3023F02003A3819BB2590713D4DA06DFD51B070BD521463046D1
:40524000FEF78CFC0028D7D1A389A06023F00803A381A061A38943F00403A381636BFDB262688BB1A36B9A4207DA23685A1E226003F8017C6368013320E021463046FFF7CB
:405280007BFF0028F1D0B7E72169236851B1994208D213F8011C8D4204D1013B0132236062600CE0E36304F1440363630323A3632346226403F8467F2360012363602846BA
:4052C000F8BD00BF245C0000445C0000645C000038B5074C0023054608461146236000F07DF8431C02D1236803B12B6038BD00BF7083FF1F38B5064C0023054608462360E0
:4053000000F074F8431C02D1236803B12B6038BD7083FF1F10B5C9B202449042034605D01C7801308C42F8D1184610BD002010BD884210B501EB020301D8421E0BE09842A7
:40534000FBD28118D21AD34204D013F8014D01F8014DF8E710BD994204D011F8014B02F8014FF8E710BD70477047F8B5074615460E4621B91146BDE8F840FEF7CFBD1AB933
:40538000FEF780FD2846F8BD00F015F885420ED929463846FEF7C2FD044650B131462A46FEF7B8F831463846FEF76CFD01E03046F8BD2046F8BD51F8040C0028BEBF09189C
:4053C00051F8043CC018043870470000024B58221A604FF0FF3070477083FF1F024B58221A604FF0FF3070477083FF1F024B58221A600020704700BF7083FF1F024B5822BC
:405400001A604FF0FF3070477083FF1F024B58221A604FF0FF3070477083FF1F024B58221A604FF0FF3070477083FF1F0000000000000000000000000000000000000000CE
:40544000000000000000000000000000000000000000000000000000000000000000000000000000000000000000000000000000000000000000000000000000000000002C
:4054800000000000000000000000000000000000000000000000000000000000000000000000000000000000000000000000000000000000000000000000000000000000EC
:4054C00000000000000000000000000000000000000000000000000000000000000000000000000000000000000000000000000000000000000000000000000000000000AC
:40550000000000000000000000000000000000000000000000000000000000000000000000000000000000000000000000000000000000000000000000000000000000006B
:40554000000000000000000000000000000000000000000000000000000000000000000000000000000000000000000000000000000000000000000000000000000000002B
:4055800000000000000000000000000000000000000000000000000000000000000000000000000000000000000000000000000000000000000000000000000000000000EB
:4055C00000000000000000000000000000000000000000000000000000000000000000000000000000000000000000000000000000000000000000000000000000000000AB
:40560000000000000000000000000000000000000000000000000000000000000000000000000000000000000000000000000000000000000000000000000000000000006A
:40564000000000000000000000000000000000000000000000000000000000000000000000000000000000000000000000000000000000000000000000000000000000002A
:4056800000000000000000000000000000000000000000000000000000000000000000000000000000000000000000000000000000000000000000000000000000000000EA
:4056C00000000000000000000000000000000000000000000000000000000000000000000000000000000000000000000000000000000000000000000000000000000000AA
:405700002A2A2A477265656E20486F7573652050726F6A6563742A2A2A200A0D0000000000000000000000000000000000000000000000001F1C1F1E1F1E1F1F1E1F1E1FBD
:405740000D43757272656E742054696D653A202575203A202575203A202575202025752F25752F25750D0A0057726974653A20456D5F454550524F4D2073697A65206578D5
:40578000636565646564210A0D0000007B20202220524F4F4D2054454D50223A202575202C2022534F494C2054454D50223A202575202C2022534F494C204D4F49535455BA
:4057C0005245223A202564207D0D0A0057726974653A20456D5F454550524F4D2073697A6520657863636565646564210A0D0000526561643A20456D5F454550524F4D207F
:4058000073697A6520657863636565646564210A0D0000004E6F204572726F720A00000054686520696E70757420706172616D6574657220697320696E76616C69640A006B
:40584000546865206461746120696E20454550524F4D20697320636F72726575707465640A0000004661696C656420746F20706C6163652074686520454550524F4D2069CC
:405880006E20666C6173680A00000000577269746520746F20454550524F4D206661696C65640A00454550524F4D20556E6B6E6F776E204572726F722025640A0000000008
:4058C0000D0A456E746572206E6577206461746520284444204D4D205959290D0A0000002573202573202573000000000D456E746572206E65772074696D6520696E20323A
:40590000342D686F757220666F726D617420284848204D4D205353290D0A00000D0A4661696C656420746F20757064617465206461746520616E642074696D650D0A00000E
:405940000D0A4461746520616E642054696D6520757064617465642021210D0A000000000D0A496E76616C69642076616C7565732120506C6561736520656E746572207415
:4059800068652076616C75657320696E2073706563696669656420666F726D61740D00000A53657474696E67207468652063757272656E742074696D6520666F7220746853
:4059C00065206465766963650D0A00000A53657474696E67207468652063757272656E742064617920666F7220746865206465766963650D0A0000000A53656E64696E6790
:405A0000206F7574207468652063757272656E74206465766963652074696D650D0A00000A477265656E486F75736520636F6E74726F6C6C657220302E312C2064657665F2
:405A40006C6F7065642062792059616D656E6920476C65656E20616E64204E6461737369204861726F6C640D0A0000000A53656E64696E6720616C6C207361766564206441
:405A80006174612E2E2E0D0A000000000A436C656172696E6720746865206C6F6767696E67206D656D6F72792E2E2E0D0A000000636C656172656420210000002443004066
:405AC0001C510040DB5A00408B5A004000100110005100401000305100404000F0510040100000000140001000140140000800400140000A004C0140000200500140200092
:405B00000003020500030501040602041F1C1F1E1F1E1F1F1E1F1E1F430000001481FF1F0020202020202020202028282828282020202020202020202020202020202020D7
:405B4000208810101010101010101010101010101004040404040404040404101010101010104141414141410101010101010101010101010101010101010101101010101B
:405B800010104242424242420202020202020202020202020202020202020202101010102000000000000000000000000000000000000000000000000000000000000000B1
:405BC00000000000000000000000000000000000000000000000000000000000000000000000000000000000000000000000000000000000000000000000000000000000A5
:405C00000000000000000000000000000000000000000000000000000000000000000000000000000000000000000000000000000000000000000000000000000000000064
:405C40000000000000000000000000000000000000000000000000000000000000000000000000000000000000000000000000000000000000000000000000000000000024
:405C800000000000232D302B2000686C4C00656667454647003031323334353637383941424344454600303132333435363738396162636465660000D65C0000D95C00008A
:405CC000DC5C0000412D46612D66383930313233343536375D002B2D0030300078580000F8B500BFF8BC08BC9E4670474D000000B10D0000F8B500BFF8BC08BC9E467047C9
:405D000029000000185D0000C880FF1FB8000000F8010000000000000000000083032705CB066F08130AB70B830300007883FF1F0000E02EC05D00001800000000366E014E
:405D400001000000C800000003010000000000010100010001006C07000000010100010001006C0700000000245C0000445C0000645C000000000000000000000000000088
:405D800000000000185B0000000000000000000000000000000000000000000000000000000000000000000000000000000000000000000000000000000000000000000070
:405DC000000000001481FF1F205B00000000000000000000000000000000000000000000000000000000000000000000000000000000000000000000000000000000000075
:405E00000000000000000000000000000000000000000000000000000000000000000000000000000000000000000000000000000000000000000000000000000000000062
:405E40000000000000000000000000000000000000000000000000000000000000000000000000000000000000000000000000000000000000000000000000000000000022
:405E800000000000000000000000000000000000000000000000000000000000000000000000000000000000000000000000000000000000000000000000000000000000E2
:405EC00000000000000000000000000000000000000000000000000000000000000000000000000000000000000000000000000000000000000000000000000000000000A2
:020000040003F7
:0200000480007A
:40000000035200400664004007650040010101400103014001050140010701405E0801404D0901404B0A0140430B01405B0C01403F0D01405D0E0140350F01405918014042
:4000400049190140531A0140541B014009400140064101400542014005430140074501400146014003470140034C0140094D014005500140025101401104618064400BFFC7
:4000800088728A388C1F8D0D8F0D08FF0BFF18FF1BFF28FF2BFF8A0FE208E201E604EA020203041C050E06010701081F0C040D0F140715071618170819091A041B061D0236
:4000C000201C2104220224082818290F2C102D01330F361F3A804004410249FF4AFF4BFF4C024D0C4EF856025710580459045A045B045C025D205F01624863A168F06AF0FD
:400100006CF06EF0840686088A208B018C068E1892019414950196089C069E08A201A301A60AA901AA20AE10B01EB301B420B601B908BA02BE50C004C102C9FFCAFFCBFF25
:40014000CC03CD0CCEF4D804D904DA04DC22DF01E248E3A1E8F0EAF0ECF0EEF00010021003020408060A074009080A420C080F0410A0120413401480160117241804194202
:400180001B021E021F8020102504260428882B802D012F0930083510368839103D8841024310450247104C044D105C40628063026D206E046F0175207621772490409190EB
:4001C000920A9362948495089601980899109B189D629E219F40A020A1C0A208A308A404A605A701AE02C0F7C26DC4FFCAB5CC72CE54D0A5D6100F011101190221013103F2
:4002000039025418560459045B045C205D205F0180018304842C8610870A88018A028C028F0A90389106920493089415950E9628990E9A019E029F04A101A201A420A50AB6
:40024000A608A704A803A90EAD01AE04B00CB230B302B401B501B602B70CB920BE40C062C550C620C740C82AC9FFCAFFCBFFCC02CD20CF05D110D207D804D904DA04DB0423
:40028000DF01E040E140E280E480E6800482059007100E680F021540168017241C801D901E601F1821012340240225402608272929022C802F1A302032013580360437219C
:4002C00039803C803E043F0247104C804F2057125A016004614062026D406E046F04800190409190920A9302954A98089A809B109D229E219F40A020A444A601A708C0F0C3
:40030000C2F0C4F0CAF1CCF5CED8D020D220D601D80D020104060502080209020D01110214061601180719011C061E012502280129012A062C042F013102320733013A2896
:400340003F014002474049FF4A074BFF4C404D204EF04F0550085602580459045A045B045C025D025E085F01604061A86240632081098310851486018D1C8F02910C9201E8
:4003800093119703A110A30CAD10B001B31FBE01C052C5ECC620C80BC9FFCAFFCBFFCF01D018D280D401D604D804D904DA04DB04DC20DD33DF01E040E240E440E540E680BD
:4003C000E880EA80EC80EE80032005200620074008080B600E1616091A801E141F102108220424402608271029022B012D402F183108320136013710398A3C883D103E18AC
:400400004320472049054B404C205320570159055A80620266806702734076807E0882029180920295029B209D02A420A701B004C074C2E8C4C0CA79CCA3CE7BD024D20863
:40044000D60BD801DE20030C07030D0C0E060F0311011202130E1E03200621012201230626012E052F083607370F3A803B804010410349FF4AFF4BFF4DA04F045018580474
:4004800059045A045C225D015F01604062C06440654066C068C06AC06CC06EC0810287148B0891039A029D049E02A308A701AD03AE01B104B303B402B508B601B710B90877
:4004C000BF14C010C103C5D1C620C80BC9FFCAFFCBFFCDAFCE0FCF04D018D280D405D604D804D904DA04DB04DC11DD11DF01E040E2C0E440E540E6C0E8C0EAC0ECC0EEC044
:40050000020108010A020D800F0410201282174019801A021C081D801F80200221402280244426402720280129022B012C202D842F8032013502364239863A013C023E20F5
:400540003F0441804220458046204F0556205C445F01678077408740C001C2C9C48DCAD9CC91CEEBD05AD6D0D880010A0410050109010A0F0C0F0F181101140F150617202C
:400580001A0C1C05200A21142630271E2D183010310132033306340C353836203E143F1440264103450246064805580459045A045C205F01610C62F0630C650C670C6840F6
:4005C000694C6A406B4C6C906D586F0C87028B088F0891089B089F01A108A706B108B504B703BF41C064C102C205C401C60CC70EC814C9FFCAFFCBFFCC62CDA0CEF0CF41DE
:40060000D00CD904DA04DC20DD02DF01E640E702E910EA30EB10ED10EE10EF120590062008080B100C040F0A150117081D2A1F4020012384244825042740282029022D8180
:400640002F1030203283340436083701382439803A103D203E043F82404942084528480C49404C044F0850805204574059405A4085809190920E9322948095099641970476
:40068000980899129A019B2D9E1E9F40A020A190A209A302A48CA502A701B548C0E0C2E0C430CAD3CCCDCEFED06DD22CE00810011802320134023E144041410546CE470BC6
:4006C000481C49FF4AFF4BFF4EF04F44500C540158045A045B045D225F0166C06A406B0280428120840C851F8804891F8E7391149309947F97409873990A9A0C9B119C1C55
:400700009D019E639F06A063A320A421A720A80FAA70AC08B01CB360B40FB518B660B707BA20BF04C012C103C560C720C822D608D804D904DA04DB0CDC22DF01E10CE2F039
:40074000E30CE50CE70CE840E94CEA40EB4CEC90ED58EF0C04400501072408010A080B800E0A0F10142015101601170219141C081E4924042680271229202A102D012F10A2
:400780003420350136883D203E043F0241404302458447104A024C404D0150105104521053405701580159245B805C8065807F018024815188808C208E0290409110920C48
:4007C000933294A4950996419A019BA49C209D809E02A020A194A20BA302A404A680A701B220B340C0F0C2EAC4F0CAC0CCF0CEE0D079D208D61FD810DE10E40430023380F3
:40080000358037043A108402CCF0CE10E21083049D809E109F04A780E28083809D809E10A780E6202D809D80AE10CA20EA403B1058109810B010CE08D401E80497100104F9
:400840009710C00887109104971012807001800189048E809104C408DC01E206000F0C050E0F10051C0500FB01030000800040808000800000000000000B0B000000100019
:40088000C40000C6020004000000000000000000000000000000000000000000000000000000000000000000000000000000000000000000000000000000000000000000A8
:4008C00000000000000000000000000000000000000000000000000000000000000000000000000000000000000000000000000000000000000000000000000000000000F8
:4009000000000000000000000000000000000000000000000000000000000000000000000000000000000000000000000000000000000000000000000000000000000000B7
:400940000000000000000000000000000000000000000000000000000000000000000000000000000000000000000000000000000000000000000000000000000000000077
:400980000000000000000000000000000000000000000000000000000000000000000000000000000000000000000000000000000000000000000000000000000000000037
:0200000490006A
:0400000000004005B7
:0200000490105A
:04000000BC90ACAF55
:0200000490303A
:020000003CB30F
:0200000490402A
:4000000000000000000000000000000000000000000000000000000000000000000000000000000000000000000000000000000000000000000000000000000000000000C0
:400040000000000000000000000000000000000000000000000000000000000000000000000000000000000000000000000000000000000000000000000000000000000080
:400080000000000000000000000000000000000000000000000000000000000000000000000000000000000000000000000000000000000000000000000000000000000040
:4000C0000000000000000000000000000000000000000000000000000000000000000000000000000000000000000000000000000000000000000000000000000000000000
:0200000490501A
:0C00000000012E16106900012E3B4D1C63
:00000001FF