:400000000080002011000000390400003904000008B5044B1A6803F53F5302331A6000F02BFA00BFFA46004010B5054C237833B9044B13B10448AFF300800123237010BDD8
:400040003881FF1F0000000048150000084B10B51BB108490848AFF300800848036803B910BD074B002BFBD0BDE81040184700BF000000003C81FF1F48150000C880FF1F68
:400080000000000030B58FB062B600F0ABFA0F4800F016FB00F07CFB01AC0D4D0FCD0FC495E80F0007C423700023CDF82130CDF82530CDF82930CDF82D30CDF831308DF8D2
:4000C000353001A800F0D0FAFEE700BF590100004C15000010B592B00021682000F0D4FC04460246194905A800F00AFE05A800F0BBFA002CF0D1002000F058FD0021682083
:4001000000F002FD06E0012000F07CFD104B18550134E4B2052CF6D9002000F073FD0C4B987100F027FD00240BE0094B1B5D22460849684600F0E4FD684600F095FA013464
:40014000E4B2062CF1D912B010BD00BF801500006081FF1F9415000010B5FFF7BBFF00F04FFA0446742801D0542803D11C4800F07BFA2EE0642801D0442803D1194800F0E8
:4001800073FA26E03F2815D1174B1B78742B01D0542B03D1154800F067FA1AE0642B01D0442B03D1124800F05FFA12E0114800F05BFA0EE0612801D0412803D10E4800F07E
:4001C00053FA06E0632801D0432802D10B4800F04BFA054B1C7000F029FA00F07FFA10BDA4150000D01500005481FF1FFC150000241600004C16000098160000B4160000CF
:40020000FEE700BFF0B40022174611E050F82760F3B226F0FF0608E001EB420511F812406D78A5550132013BDBB2002BF4D10137192FEBD9F0BC7047064B1B78DBB203F02B
:400240000701054A11701B09013213704422034B1A707047CF0100496E5800407658004008B50A46002100F042FD08BD38B51925234B1D80182202331A70022203F27E239F
:400280001A7008224FF040231A70032103F5007319701C4B1B78DBB21B490B701B4B1A8041F25122023B1A8000240CE0184B1B7803F0010343EA440404F003044FF4F07053
:4002C00000F0CEFC013D0DB1032CEFD115B90320FFF796FF0F4B4FF480721A8007221A7000220D490A704820023108701A700222033B1A70094A137843F00103137038BDF9
:400300008040004008010049A146004022420040254200400440004006400040A243004008B500F0D9FC08BD38B572B6334A137843F00403137000240CE0314D6300191986
:400340004A0011462A44084691882858FFF788FF0134E4B2082CF0D900240CE02848A20011194B000344B3F84020D96B986BFFF7D7FF0134E4B2012CF0D922494FF090400B
:40038000FFF740FF204A137843F0020313701032137843F0020313701C4C237843F040032370A2F58632513A137843F0100313700A2217491748FFF7B3FF0A221649174819
:4003C000FFF7AEFF082216491648FFF7A9FF164A137843F008031370144D61232B70FFF745FF81232B700122114B1A70FFF724FF0E2221460F48FFF793FF38BDE846004035
:40040000D81600006800004803500140A043004030040048005100403C040048C05100404804004812510040224300400048004004000840B043004008B500F021FC036869
:400440000C2B00D1FEE7FEE708B5094B1A681044084BC31A802B02DC054B186005E000F00FFC0C2303604FF0FF32104608BD00BFCC80FF1F8081FF1F08B5104E104D16E08F
:4004800029686B68AC68002204E051F8040B43F8040B0432A242F8D1E868002203E0002143F8041B04328242F9D11035013E002EE6D100F0EBFBFFF7E5FDFEE701000000A8
:4004C0008017000008B5104A104B1A60104A136843F40073136000230AE0032B03D80D4A52F8231000E00C490C4A42F8231001332F2BF2D90A4B1A780A4B1A70074A0A4BE0
:400500001A60FFF711FF08BD0004FA050CED00E014ED00E000000000390400000080FF1FBC760040C080FF1F08ED00E001BE704770B504460E46074B1D681F2802D90020E7
:40054000FFF7F4FF04F01F04103455F8240045F8246070BD08ED00E038B504460D46072902D90020FFF7E2FF1F2C02D90020FFF7DDFF04F01F0000F1604000F564406D01B4
:40058000EDB2057038BD00BF7222074B1A702022013B1A700622613B1A70472210331A700022AF3B1A7070478A65004010B500F05FFB04460A4A137843F020031370013AAF
:4005C000137843F010031370A2F58072137843F01003137000F088F8204600F04DFB10BD9A65004008B5054B1B7823B9FFF7CCFF0122024B1A70FFF7D9FF08BD5581FF1FF2
:40060000084B1B78DBB213F0200F06D0064A1078C0B213F01E0F02D17047002070470020704700BF696500404965004008B500F01FFB064B1A7842F001021A701A7802F0E5
:40064000FE021A7000F018FB08BD00BF99650040034B1B7813F0040FFAD1024B18707047696400404964004038B5074B1B782BB938BDFFF7EDFF0134A4B201E0054600247B
:40068000285D0028F5D138BD5581FF1F014B1B681864704708ED00E04001C0B2014B1870704700BF00E400E00122014B1A60704700E100E00122014B1A60704780E100E004
:4006C00010B50446FFF7F6FF2046FFF7DFFF0720FFF7E2FFFFF7E8FF10BD00BF0122014B1A60704780E200E0054A137843F0010313701032137843F001031370704700BFEC
:40070000A243004038B50222114B1A7081220E3B1A70082202331A700F2511331D70002401331C704FF400420A4B1A6007212846FFF712FF08492846FFF7FAFE1022074B33
:400740001A70074B1C70074B1C70074B1C7038BDD649004080E100E0B90700006781FF1F7081FF1F7A81FF1F7881FF1F08B500F07FFA064A137843F0040313701032137830
:4007800043F00403137000F077FA08BDA543004008B5074B1B7823B9FFF7B4FF0122044B1A70FFF7E3FF4FF40042024B1A6008BD5781FF1F00E100E038B5A54B1C78A54B0A
:4007C0001B7813F0400F00F03A81E4B214F0010F00F01D819F4B1B78453B052B00F21481DFE813F006008200120112010600DF0004F0DF0504F00A04082C42D1954B1B788C
:40080000DBB2452B35D1944B1B7813F0FF0F10D0924B1B681B78DBB2914A137004228C4B1A7001228F4B1A7046228A4B1A702C46EDE08D4B1B7813F0020F0DD08B4A1378A4
:4008400043F00A0313706022824B1A704FF40042874B1A602C46DAE0864A137843F0100313701022844B1A700422023B1A702C46CDE00022764B1A704A22764B1A702C468E
:40088000C5E00A2C2BD1794A137843F0A0031370754B1B7813F0020F14D06E4B1B7813F0080F01D0092300E00A23704A11780B4313706022674B1A704FF400426C4B1A6077
:4008C0002C46A4E06B4A137843F0100313701022694B1A700422023B1A702C4697E00020FFF724FE2C4692E014F0020F36D15D4B1A78D2B2584B1B78DBB29A4210D2594A99
:400900001378DBB255490968CB5CDBB254490B7004214F4B197013780133DBB2137076E0514B1B7813F0020F0CD0504A137843F00A0313706022474B1A704FF400424C4B96
:400940001A6064E04B4A137843F0100313701022494B1A700422023B1A7058E0424B1B7813F0020F0CD0414A137843F09A0313706022384B1A704FF400423D4B1A6046E0A6
:400980003C4A137843F01003137010223A4B1A700422023B1A70354A137843F09003137035E0364A1378DBB2354908682C490978C9B2C15413780133DBB213701278D2B2DE
:4009C000304B1B78DBB29A4203D21022204B1A701DE0254B1B7813F0020F0CD0234A137843F00903137060221A4B1A704FF400421F4B1A600BE01F4A137843F01003137058
:400A00000022134B1A7002E00020FFF78FFD14F0200F1CD00F4B1B7813F0080F01D0012300E00223114A11780B431370114A137803F0EF0313701022064B1A7038BD054BB3
:400A40001B7813F0100F02D11022024B1A7038BDD74900406781FF1F6881FF1F6C81FF1FD84900407881FF1F7981FF1F7081FF1F80E100E0D6490040D94900407A81FF1FBE
:400A80007481FF1F7181FF1F1A4B1B78DBB2102B29D1194B1B7813F0080F26D14FF40042164B1A604000C0B229B140F001004922104B1A7002E045220E4B1A70104B1870D5
:400AC000012201331A700F4B1B7813F0010FFAD00C4B1B7803F00A030A2B08D11022054B1A700320704702207047012070470020704700BF6781FF1FD949004080E100E07D
:400B0000D8490040D7490040164B1B7813F0040F23D04000C0B229B140F001004922124B1A7002E04522104B1A70104B1870122201331A700422023B1A700D4B1B7813F00A
:400B4000010FFAD00A4B1B7803F00A030A2B06D11022054B1A7003207047022070470020704700BFD94900406781FF1FD8490040D74900400A4B1B7813F0040F0ED010231A
:400B8000074A13700421023A1170064A1370064B1B7813F0210FFAD00020704702207047D94900406781FF1FD7490040114B1B7813F0040F1BD0104B18700422013B1A7094
:400BC00046220E4B1A700E4B1B7813F0010FFAD00B4B1B7813F0020F04D16022074B1A70002070476022054B1A70032070470220704700BFD9490040D84900406781FF1F43
:400C0000D7490040114B1B7813F0040F1BD0104B1B78DBB2492B05D100220E4B1A704A220B4B1A700B4B1B7813F0010FFAD00A4B1B78DBB218B11021064A117004E06021E3
:400C4000034A117000E0002318467047D94900406781FF1FD7490040D8490040000000000230800803D000BF01380046FCD17047EFF3108072B6704780F31088704700BF44
:400C8000014B1868704700BF3081FF1F0E4B70B51E460E4C0025E41AA410A54204D056F8253098470135F8E700F058FD084B094C1E46E41AA4100025A54204D056F8253038
:400CC00098470135F8E770BD6817000068170000681700007017000010B5431E0A44914204D011F8014B03F8014FF8E710BD03460244934202D003F8011BFAE77047000083
:400D00000EB400B54FF402719CB0ADF814106FF00041049107914FF6FF711DAB02900690084853F8042BADF81610006802A9019300F064F8029B00221A701CB05DF804EB1E
:400D400003B070473081FF1F2DE9F0478E6882469E420C46914698463ED88A8912F4906F3AD02568096902236F1A656905EB450595FBF3F57B1C43449D4238BF1D46530534
:400D80000FD5294600F040FB064698B13A462169FFF7A2FFA38923F4906343F08003A38113E02A4600F08EFB064670B92169504600F0DEFA0C23CAF80030A3894FF0FF307B
:400DC00043F04003A381BDE8F08726613E44266046466561ED1BA560464528BF464649463246206800F0A8FAA36800209B1BA36023681E442660BDE8F08700002DE9F04F68
:400E00009DB003938B8980461C060D4616460DD50B695BB9402100F0F7FA2860286118B90C23C8F80030CDE040236B610023099320238DF82930DFF89CB130238DF82A3065
:400E400037463C4614F8013B1BB9B7EB060910D003E0252BF9D02746F3E74B46324629464046FFF771FF013000F0A780099B4B4409933B78002B00F0A08000234FF0FF3287
:400E800004930793059206938DF853301A930126052221784E4800F041FA671C049B38B14B4A3C46801A06FA00F018430490EFE7D90644BF20228DF853201A0744BF2B2276
:400EC0008DF8532022782A2A03D0079A00210A200BE0039A111D12680391002A10DA524243F00200079204900BE027463B780134303B092B03D800FB02320121F5E701B1E6
:400F000007923B782E2B1ED17B782A2B0AD1039B02371A1D1B680392002BB8BF4FF0FF33059310E0002319460593781C0A2407463A780130303A092A03D804FB0121012370
:400F4000F5E703B1059103223978224800F0E6F940B14023CBEB000003FA00F0049B013718430490397806221B487E1C8DF8281000F0D4F988B1194B33B9039B073323F0BB
:400F800007030833039314E003AB00932A46144B04A94046AFF3008007E003AB00932A460F4B04A9404600F093F8B0F1FF3F824603D0099B5344099342E7AB895B0601D479
:400FC000099801E04FF0FF301DB0BDE8F08F00BF261700002C1700003017000000000000490D00002DE9F04791461F460A698B6806469342B8BF1346C9F8003091F8432077
:401000000C46DDF8208012B10133C9F800302368990642BFD9F800300233C9F80030256815F0060510D104F1190A07E00123524639463046C04701301AD00135E368D9F80D
:4010400000209B1A9D42F1DB94F843302268003318BF012392060FD5E118302081F843005A1C94F845102244023382F8431003E04FF0FF30BDE8F08704F14302394630465D
:40108000C0470130F4D02268D9F80050E36802F00602042A08BF5D1B2269A3680CBF25EAE57500259342C4BF9B1AED184FF000091A344D4509D00123224639463046C0474D
:4010C0000130D5D009F10109F3E70020BDE8F0872DE9F04317460A7E85B06E2A984606460C460C9B01F1430E00F0AE8011D8632A22D009D8002A00F0BB80582A40F0CA80E7
:4011000081F84520834955E0642A1ED0692A1CD0C0E0732A00F0B08009D86F2A2ED0702A40F0B8800A6842F020020A603EE0752A24D0782A3AD0ADE01A6801F14205111DFB
:401140001960136884F84230A8E021681A6811F0800F02D0111D196008E011F0400F02F10401196002D0B2F9003000E01368002B3CDA2D225B4284F8432037E021681A6812
:4011800011F0800F02D0111D196007E011F0400F02F10401196001D0138800E01368227E5C496F2A14BF0A2208221BE078225A4984F845202268186812F0800F00F1040502
:4011C0001D6003D1550601D5038800E00368D00744BF42F0200222601BB9226822F0200222601022002084F8430001E049490A226568002DA56008DB206820F00400206025
:401200002BB9002D7DD175460CE0002B79D07546B3FBF2F002FB1033CB5C05F8013D03460028F5D1082A0BD12368DA0708D5236962689A42DEBF302305F8013C05F1FF3533
:40124000C5EB0E0323612EE008681A6810F0800F496903D0101D1860136808E010F0400F02F104001860136801D0198000E0196000232361754616E01A68111D1960156813
:4012800000216268284600F049F808B1401B6060636804E004F1420584F8422001232361002384F84330CDF800803B4603AA21463046FFF797FE013002D14FF0FF3026E0FA
:4012C00023692A4639463046C0470130F5D023689B0710D5002504F1190907E001234A4639463046C0470130E7D00135E368039A9B1A9D42F2DBE068039B9842B8BF18461F
:4013000005E00B7804F1420584F842308AE705B0BDE8F083371700004817000010B5C9B202449042034605D01C7801308C42F8D1184610BD002010BD884210B501EB0203C6
:4013400001D8421E0BE09842FBD28118D21AD34204D013F8014D01F8014DF8E710BD994204D011F8014B02F8014FF8E710BD000038B50546002944D051F8043C0C1F002B9A
:40138000B8BFE41800F0D4F81E4A1368114613B96360146030E0A3420DD92268A018834201BF18685B681218226063600C6023E0A24203D813465A68002AF9D1186819187F
:4013C000A1420BD12168014458188242196013D110685268014419605A600DE002D90C232B6009E021686018824201BF106852680918216062605C602846BDE8384000F068
:4014000098B838BD5C81FF1F70B5CD1C25F0030508350C2D38BF0C25002D064601DBA94202D90C23336046E000F082F8234B1C681A462146A1B10B685B1B0ED40B2B03D94E
:401440000B60CC18CD501EE08C420BBF63684B681360636018BF0C4615E00C464968E9E7174C23681BB9304600F052F820602946304600F04DF8431C18D0C41C24F0030477
:40148000A0420DD12560304600F053F804F10B00231D20F00700C31A0ED05A42E25070BD211A304600F034F80130EBD10C233360304600F03EF8002070BD00BF5C81FF1F0A
:4014C0005881FF1FF8B5074615460E4621B91146BDE8F840FFF798BF1AB9FFF749FF2846F8BD00F027F885420ED929463846FFF78BFF044650B131462A46FFF7EDFB31460C
:401500003846FFF735FF01E03046F8BD2046F8BD38B5064C0023054608462360FEF794FF431C02D1236803B12B6038BD7C81FF1F7047704751F8040C0028BEBF091851F8F4
:40154000043CC01804387047000000002A2A2A477265656E20486F7573652050726F6A6563742A2A2A200A0D00000000000000000000000000000000000000000000000021
:40158000456E646C657373206C6F6F703A2025640D0A000042797465202564203A2025640D0A000053657474696E67207468652063757272656E742074696D6520666F729A
:4015C00020746865206465766963650D0A00000053657474696E67207468652063757272656E742064617920666F7220746865206465766963650D0A0000000053656E642A
:40160000696E67206F7574207468652063757272656E74206465766963652074696D650D0A00000053656E64696E67206F7574207468652063757272656E7420646576696E
:401640006365206461790D0A00000000477265656E486F75736520636F6E74726F6C6C657220302E312C20646576656C6F7065642062792059616D656E6920476C65656E98
:4016800020616E64204E6461737369204861726F6C640D0A0000000053656E64696E6720616C6C20736176656420646174612E2E2E0D0A00436C656172696E67207468658F
:4016C000206C6F6767696E67206D656D6F72792E2E2E0D0A00000000C84900401900205100405000F051004010000000014000100014014080040019014000030040014085
:40170000000A004C01400002005001402000000060520040A8030048060080180140B003004880004300232D302B2000686C4C00656667454647003031323334353637381A
:4017400039414243444546003031323334353637383961626364656600000000F8B500BFF8BC08BC9E4670474D000000C5040000F8B500BFF8BC08BC9E46704729000000FC
:4017800090170000C880FF1F7000000048000000000000008081FF1F000000000000000000000000000000000000000000000000000000000000000024170000000000000A
:4017C0000000000000000000000000000000000000000000000000000000000000000000000000000000000000000000000000000000000000000000D080FF1F000000007B
:4018000000000000000000000000000000000000000000000000000000000000000000000000000000000000000000000000000000000000000000000000000000000000A8
:401840000000000000000000000000000000000000000000000000000000000000000000000000000000000000000000000000000000000000000000000000000000000068
:401880000000000000000000000000000000000000000000000000000000000000000000000000000000000000000000000000000000000000000000000000000000000028
:4018C00000000000000000000000000000000000000000000000000000000000000000000000000000000000000000000000000000000000000000000000000000000000E8
:020000040003F7
:0200000480007A
:4000000003520040016400400265004001050140010701405508014033090140010B014002150140021701401B180140391901403B1A0140391B01400240014008410140F6
:400040000942014005430140014601400347014007480140034901400D4C01400A4D014004500140025101400040014004C0890F89388A72E208EE0100100306040C05102F
:400080000611070509100B030C090D200E100F0111061203131118101A0C1C14201C210822022F02301F313033073508361F39023B083F10580459045F01840385118604F5
:4000C000870688038A0C8B108C0A8E048F0C910C92089313961099119B0EA205A313A403A520A604AA10AF08B010B10FB320B40FB710BA20BB02BE01BF44C024C103C50E89
:40010000C6CBC80DC9FFCAFFCBFFCEF0CF44D00CD401D804D904DA04DB04DF01E6C0EA40EB0201200202031004400680071009090C800E84107012081502180819201A04F8
:400140001B011E801F802101224624542501271028C029042B422E802F8232023310360238683C103D023E043F8040904204490450B058125A88C0B7C2DCC41ECA9BCC85AF
:40018000CEFED007D60FEE01E208EA01EC80E404E60105060F02110419061F0123013106350139023F114001474049FF4A074BFF4C404D204EF04F05500859045A045F0183
:4001C000604061A8624063200012030108090A4A1104135018111901235024042780280929042F8030823110320433043682371039063B503E043F804009410143214780CC
:400200004A084B40510852805742590160846302808092049B10A202A301A508A608A742B406B504C00BC20FC407CA8ECCBFCE5FD01DD20CD601D80DE404002401380506EC
:400240000604086009060C7F0F08101C110412621302147C15301601186719081A181B301C401D3820102102230524082510281829302B082D202E63301F310633383478B4
:4002800035013A2256025711580459045B045F0189018D019201960198019D01A001A501B301B601B880BB80BF04D804D904DF01001A03010A460B100D010E440F101080E2
:4002C000136417011A441B201F802008220925802640271129402A2A2F20318432013320364039163B403E603F105B10680269146B04708071547208732488018A029010F1
:400300009350950496429D149F05A483A608A7A0C00FC27FC41FCA4FCC1FCE3FD604EA01EC803240CC100A010F08580266209680C2C0D640D8803E108620920196809C0232
:400340009E20A304CE20E21092019690A304A802EE8086409E409F02AB028240830492019690A304E420E680AA10B201EA8012401320170279017F2083209E409F02A00269
:40038000B402C40EDE03EC02104074028840A002AB20B101C408DE04E201EC0100010C0110011C01000303C08080000040000000280E060000010000640C1902600000024F
:4003C00000016000600100001C04000050080600000000001C0C00000002600C000C600260011C0E0000030000000008000040002504060001000E0C14FFFFFF62A0F04155
:400400000C0000001800040004040404000000010000000000004002001030100010101200000000000000000000000000000000C0000000C000C00000000000800040803F
:400440008000800000000000000B0B000000000000000000000000000000000000000000000000000000000000000000000000000000000000000000000000000000000066
:40048000000000000000000000000000000000000000000000000000000000000000000000000000000000000000000000000000000000000000000000000000000000003C
:4004C00000000000000000000000000000000000000000000000000000000000000000000000000000000000000000000000000000000000000000000000000000000000FC
:4005000000000000000000000000000000000000000000000000000000000000000000000000000000000000000000000000000000000000000000000000000000000000BB
:40054000000000000000000000000000000000000000000000000000000000000000000000000000000000000000000000000000000000000000000000000000000000007B
:0200000490006A
:0400000000004005B7
:0200000490105A
:04000000BC90ACAF55
:0200000490303A
:0200000041EBD2
:0200000490402A
:4000000000000000000000000000000000000000000000000000000000000000000000000000000000000000000000000000000000000000000000000000000000000000C0
:400040000000000000000000000000000000000000000000000000000000000000000000000000000000000000000000000000000000000000000000000000000000000080
:400080000000000000000000000000000000000000000000000000000000000000000000000000000000000000000000000000000000000000000000000000000000000040
:4000C0000000000000000000000000000000000000000000000000000000000000000000000000000000000000000000000000000000000000000000000000000000000000
:0200000490501A
:0C00000000012E16106900012E1F525442
:00000001FF