:4000000000800020110000007D0500007D05000008B5044B1A6803F53F5302331A6000F0CDFA00BFFA46004010B5054C237833B9044B13B10448AFF300800123237010BDAC
:400040004881FF1F00000000E0180000084B10B51BB108490848AFF300800848036803B910BD074B002BFBD0BDE81040184700BF000000004C81FF1FE0180000C880FF1F12
:400080000000000008B5104B1B78DBB20F4A32F813309BB29289934202D2013A0B4B9A81094B1B78DBB2094A32F813309BB29289934202D90132054B9A81044B988900F03B
:4000C000DDFE00F0E7FE08BD6481FF1FCC80FF1F30B58FB062B600F02BFB144800F096FB00F0AAFE124800F06BFF00F019FF114800F03EFF00F0F2FB01AC0F4D0FCD0FC480
:4001000095E80F0007C423700023CDF82130CDF82530CDF82930CDF82D30CDF831308DF8353001A800F046FBFEE700BF6D020000DD01000085000000E418000008B5094BD5
:400140005B78DBB2042B03D8012000F047FF08BD044B5B78DBB20A2B02D9002000F03EFF08BD00BF6481FF1F184B5B78DBB2182B03D90522154B1A707047144B5B78DBB2FD
:40018000172B03D90422114B1A7070470F4B5B78DBB2162B03D903220C4B1A7070470B4B5B78DBB2152B03D90222084B1A707047064B5B78DBB2142B03D90122034B1A7079
:4001C00070470022014B1A70704700BF6481FF1F08B5FFF7C9FFFFF7B1FF08BD08B5FFF7F7FF00F0EFFD08BD10B592B00021682000F0F0FC04460246194905A800F04CFF3F
:4002000005A800F0D7FA002CF0D1002000F074FD0021682000F01EFD06E0012000F098FD104B18550134E4B2052CF6D9002000F08FFD0C4B987100F043FD00240BE0094B80
:400240001B5D22460849684600F026FF684600F0B1FA0134E4B2062CF1D912B010BD00BF181900007481FF1F2C19000010B5FFF7BBFF00F06BFA0446742801D0542803D1D2
:400280001C4800F097FA2EE0642801D0442803D1194800F08FFA26E03F2815D1174B9B78742B01D0542B03D1154800F083FA1AE0642B01D0442B03D1124800F07BFA12E031
:4002C000114800F077FA0EE0612801D0412803D10E4800F06FFA06E0632801D0432802D10B4800F067FA054B9C7000F045FA00F09BFA10BD3C190000681900006481FF1F36
:4003000094190000BC190000E4190000301A00004C1A0000FEE700BFF0B40022174611E050F82760F3B226F0FF0608E001EB420511F812406D78A5550132013BDBB2002BCB
:40034000F4D101371C2FEBD9F0BC7047064B1B78DBB203F00701054A11701B09013213704422034B1A707047CF0100496E5800407658004008B50A46002100F084FE08BD71
:4003800038B51722294B1A801823294A13701925023215800232137042F6DF62254B1A8002331D70022203F276231A7008224FF040231A70032103F5007319701E4B1B782F
:4003C000DBB21E490B701E4B1A8041F25122023B1A8000240CE01B4B1B7803F0010343EA440404F003044FF4F07000F005FE013D0DB1032CEFD115B90320FFF78BFF124B4F
:400400004FF480721A8007221A7000220F490A704820023108701A700222033B1A700C4A137843F00703137038BD00BF80400040824000408840004008010049A1460040E5
:4004400022420040254200400440004006400040A243004008B500F00BFE08BD38B572B6354A137843F00403137000240CE0334D630019194A0011462A4408469188285890
:40048000FFF778FF0134E4B2072CF0D900240BE02A49A3001819420088180622416B006BFFF7D8FF0134E4B2002CF1D024494FF09040FFF731FF234A137843F002031370B7
:4004C0001032137843F0020313701F4C237843F040032370A2F58632513A137843F0100313700A2219491A48FFF7B4FF0A2219491948FFF7AFFF082218491948FFF7AAFF80
:40050000082218491848FFF7A5FF184A137843F008031370164D61232B70FFF731FF81232B700122134B1A70FFF710FF0E2221461148FFF78FFF38BDE8460040701A000030
:400540007400004803500140A0430040480500480051004054050048C051004060050048125100406805004822510040224300400048004004000840B043004008B500F0DF
:400580004BFD03680C2B00D1FEE7FEE708B5094B1A681044084BC31A802B02DC054B186005E000F039FD0C2303604FF0FF32104608BD00BFDC80FF1F9881FF1F08B5104E9B
:4005C000104D16E029686B68AC68002204E051F8040B43F8040B0432A242F8D1E868002203E0002143F8041B04328242F9D11035013E002EE6D100F015FDFFF769FDFEE765
:4006000001000000041B000008B5104A104B1A60104A136843F40073136000230AE0032B03D80D4A52F8231000E00C490C4A42F8231001332F2BF2D90A4B1A780A4B1A70BB
:40064000074A0A4B1A60FFF709FF08BD0004FA050CED00E014ED00E0000000007D0500000080FF1FBC760040C080FF1F08ED00E001BE704770B504460E46074B1D681F28BE
:4006800002D90020FFF7F4FF04F01F04103455F8240045F8246070BD08ED00E038B504460D46072902D90020FFF7E2FF1F2C02D90020FFF7DDFF04F01F0000F1604000F58A
:4006C00064406D01EDB2057038BD00BF7222084B1A702022A3F581731A700622603B1A70472210331A70002203F5A8731A7070478A65004010B500F087FC04460B4A1378CD
:4007000043F020031370A2F58172137843F01003137002F58072137843F01003137000F089F8204600F074FC10BD00BF9A65004008B5054B1B7823B9FFF7C8FF0122024B1A
:400740001A70FFF7D7FF08BD6781FF1F084B1B78DBB213F0200F06D0064A1078C0B213F01E0F02D17047002070470020704700BF686400404865004008B500F045FC064B34
:400780001A7842F001021A701A7802F0FE021A7000F03EFC08BD00BF98650040034B1B7813F0040FFAD1024B18707047686500404965004038B5074B1B782BB938BDFFF705
:4007C000EDFF0134A4B201E005460024285D0028F5D138BD6781FF1F014B1B689864704708ED00E04001C0B2014B1870704700BF02E400E00422014B1A60704700E100E046
:400800000422014B1A60704780E100E010B50446FFF7F6FF2046FFF7DFFF0720FFF7E2FFFFF7E8FF10BD00BF0422014B1A60704780E200E0054A137843F00203137010327D
:40084000137843F002031370704700BFA243004038B50222114B1A7081220E3B1A70082202331A700F2511331D70002401331C704FF400420A4B1A6007212846FFF70EFF6B
:4008800008492846FFF7F6FE1022074B1A70074B1C70074B1C70074B1C7038BDD649004080E100E0050900007B81FF1F8481FF1F8E81FF1F8C81FF1F08B500F0A5FB064A12
:4008C000137843F0040313701032137843F00403137000F09DFB08BDA543004008B5074B1B7823B9FFF7B4FF0122044B1A70FFF7E3FF4FF40042024B1A6008BD6981FF1F9D
:4009000000E100E038B5A54B1C78A54B1B7813F0400F00F03A81E4B214F0010F00F01D819F4B1B78453B052B00F21481DFE813F006008200120112010600DF0004F0DF05E4
:4009400004F00A04082C42D1954B1B78DBB2452B35D1944B1B7813F0FF0F10D0924B1B681B78DBB2914A137004228C4B1A7001228F4B1A7046228A4B1A702C46EDE08D4B8B
:400980001B7813F0020F0DD08B4A137843F00A0313706022824B1A704FF40042874B1A602C46DAE0864A137843F0100313701022844B1A700422023B1A702C46CDE00022DD
:4009C000764B1A704A22764B1A702C46C5E00A2C2BD1794A137843F0A0031370754B1B7813F0020F14D06E4B1B7813F0080F01D0092300E00A23704A11780B4313706022B4
:400A0000674B1A704FF400426C4B1A602C46A4E06B4A137843F0100313701022694B1A700422023B1A702C4697E00020FFF720FE2C4692E014F0020F36D15D4B1A78D2B28D
:400A4000584B1B78DBB29A4210D2594A1378DBB255490968CB5CDBB254490B7004214F4B197013780133DBB2137076E0514B1B7813F0020F0CD0504A137843F00A031370EB
:400A80006022474B1A704FF400424C4B1A6064E04B4A137843F0100313701022494B1A700422023B1A7058E0424B1B7813F0020F0CD0414A137843F09A0313706022384BE2
:400AC0001A704FF400423D4B1A6046E03C4A137843F01003137010223A4B1A700422023B1A70354A137843F09003137035E0364A1378DBB2354908682C490978C9B2C15443
:400B000013780133DBB213701278D2B2304B1B78DBB29A4203D21022204B1A701DE0254B1B7813F0020F0CD0234A137843F00903137060221A4B1A704FF400421F4B1A60E1
:400B40000BE01F4A137843F0100313700022134B1A7002E00020FFF78BFD14F0200F1CD00F4B1B7813F0080F01D0012300E00223114A11780B431370114A137803F0EF03A3
:400B800013701022064B1A7038BD054B1B7813F0100F02D11022024B1A7038BDD74900407B81FF1F7C81FF1F8081FF1FD84900408C81FF1F8D81FF1F8481FF1F80E100E00A
:400BC000D6490040D94900408E81FF1F8881FF1F8581FF1F1A4B1B78DBB2102B29D1194B1B7813F0080F26D14FF40042164B1A604000C0B229B140F001004922104B1A708D
:400C000002E045220E4B1A70104B1870012201331A700F4B1B7813F0010FFAD00C4B1B7803F00A030A2B08D11022054B1A700320704702207047012070470020704700BFD5
:400C40007B81FF1FD949004080E100E0D8490040D7490040164B1B7813F0040F23D04000C0B229B140F001004922124B1A7002E04522104B1A70104B1870122201331A70E7
:400C80000422023B1A700D4B1B7813F0010FFAD00A4B1B7803F00A030A2B06D11022054B1A7003207047022070470020704700BFD94900407B81FF1FD8490040D7490040F9
:400CC0000A4B1B7813F0040F0ED01023074A13700421023A1170064A1370064B1B7813F0210FFAD00020704702207047D94900407B81FF1FD7490040114B1B7813F0040FEA
:400D00001BD0104B18700422013B1A7046220E4B1A700E4B1B7813F0010FFAD00B4B1B7813F0020F04D16022074B1A70002070476022054B1A70032070470220704700BF10
:400D4000D9490040D84900407B81FF1FD7490040114B1B7813F0040F1BD0104B1B78DBB2492B05D100220E4B1A704A220B4B1A700B4B1B7813F0010FFAD00A4B1B78DBB2F5
:400D800018B11021064A117004E06021034A117000E0002318467047D94900407B81FF1FD7490040D8490040024A137843F080031370704779640040014B1870704700BFB2
:400DC00089640040014B1878704700BF69640040014B1870704700BF29640040014B1878704700BF49640040014B1870704700BF0964004008B501E0FFF7F0FFFFF7E2FFC0
:400E000010F0080FF8D108BD08B5F920FFF7E0FFF920FFF7E9FF00F0F7F8064A137843F01003137000F0F4F8FFF7E4FF0120FFF7C3FF08BD9964004008B5054B1B7823B9DC
:400E4000FFF7E2FF0122024B1A70FFF7ADFF08BD6A81FF1F024A137843F080031370704774650040014B1880704700BF086A0040014B1880704700BF886A0040014B1880D5
:400E8000704700BF486A0040014B1870704700BF85650040014B1878704700BF65650040014B188880B27047A86A004008B501E0FFF7F6FFFFF7EEFF10F0100FF8D108BDBA
:400EC00010B5154A137803F0C00343F0090313702032137843F001031370104C237843F00103237044F61F60FFF7BCFF44F61F60FFF7BEFF40F2DB50FFF7C0FF0020FFF775
:400F0000C3FF00F081F8237843F01003237000F07FF8FFF7CBFF10BD746500409565004008B5054B1B7823B9FFF7CAFF0122024B1A70FFF78FFF08BD6B81FF1F014B1B6874
:400F40001864704708ED00E04001C0B2014B1870704700BF00E400E00122014B1A60704700E100E00122014B1A60704780E100E010B50446FFF7F6FF2046FFF7DFFF07200B
:400F8000FFF7E2FFFFF7E8FF10BD00BF014B1B685864704708ED00E04001C0B2014B1870704700BF01E400E00222014B1A60704700E100E00222014B1A60704780E100E0D4
:400FC00010B50446FFF7F6FF2046FFF7DFFF0720FFF7E2FFFFF7E8FF10BD00BF044A137803F0FD03400000F0020018431070704720510040000000000230800803D000BFC9
:4010000001380046FCD17047EFF3108072B6704780F31088704700BF014B1868704700BF4081FF1F0E4B70B51E460E4C0025E41AA410A54204D056F8253098470135F8E755
:4010400000F04EFD084B094C1E46E41AA4100025A54204D056F8253098470135F8E770BDEC1A0000EC1A0000EC1A0000F41A000010B5431E0A44914204D011F8014B03F848
:40108000014FF8E710BD03460244934202D003F8011BFAE7704700000EB400B54FF402719CB0ADF814106FF00041049107914FF6FF711DAB02900690084853F8042BADF82C
:4010C0001610006802A9019300F064F8029B00221A701CB05DF804EB03B070474081FF1F2DE9F0478E6882469E420C46914698463ED88A8912F4906F3AD0256809690223E7
:401100006F1A656905EB450595FBF3F57B1C43449D4238BF1D4653050FD5294600F040FB064698B13A462169FFF7A2FFA38923F4906343F08003A38113E02A4600F08EFB57
:40114000064670B92169504600F0DEFA0C23CAF80030A3894FF0FF3043F04003A381BDE8F08726613E44266046466561ED1BA560464528BF464649463246206800F0A8FA94
:40118000A36800209B1BA36023681E442660BDE8F08700002DE9F04F9DB003938B8980461C060D4616460DD50B695BB9402100F0F7FA2860286118B90C23C8F80030CDE07F
:4011C00040236B610023099320238DF82930DFF89CB130238DF82A3037463C4614F8013B1BB9B7EB060910D003E0252BF9D02746F3E74B46324629464046FFF771FF013006
:4012000000F0A780099B4B4409933B78002B00F0A08000234FF0FF3204930793059206938DF853301A930126052221784E4800F041FA671C049B38B14B4A3C46801A06FACD
:4012400000F018430490EFE7D90644BF20228DF853201A0744BF2B228DF8532022782A2A03D0079A00210A200BE0039A111D12680391002A10DA524243F0020007920490B9
:401280000BE027463B780134303B092B03D800FB02320121F5E701B107923B782E2B1ED17B782A2B0AD1039B02371A1D1B680392002BB8BF4FF0FF33059310E0002319469B
:4012C0000593781C0A2407463A780130303A092A03D804FB01210123F5E703B1059103223978224800F0E6F940B14023CBEB000003FA00F0049B01371843049039780622DC
:401300001B487E1C8DF8281000F0D4F988B1194B33B9039B073323F007030833039314E003AB00932A46144B04A94046AFF3008007E003AB00932A460F4B04A9404600F079
:4013400093F8B0F1FF3F824603D0099B5344099342E7AB895B0601D4099801E04FF0FF301DB0BDE8F08F00BFAC1A0000B21A0000B61A000000000000E11000002DE9F047BE
:4013800091461F460A698B6806469342B8BF1346C9F8003091F843200C46DDF8208012B10133C9F800302368990642BFD9F800300233C9F80030256815F0060510D104F149
:4013C000190A07E00123524639463046C04701301AD00135E368D9F800209B1A9D42F1DB94F843302268003318BF012392060FD5E118302081F843005A1C94F84510224449
:40140000023382F8431003E04FF0FF30BDE8F08704F1430239463046C0470130F4D02268D9F80050E36802F00602042A08BF5D1B2269A3680CBF25EAE57500259342C4BF6E
:401440009B1AED184FF000091A344D4509D00123224639463046C0470130D5D009F10109F3E70020BDE8F0872DE9F04317460A7E85B06E2A984606460C460C9B01F1430ED8
:4014800000F0AE8011D8632A22D009D8002A00F0BB80582A40F0CA8081F84520834955E0642A1ED0692A1CD0C0E0732A00F0B08009D86F2A2ED0702A40F0B8800A6842F01F
:4014C00020020A603EE0752A24D0782A3AD0ADE01A6801F14205111D1960136884F84230A8E021681A6811F0800F02D0111D196008E011F0400F02F10401196002D0B2F9E9
:40150000003000E01368002B3CDA2D225B4284F8432037E021681A6811F0800F02D0111D196007E011F0400F02F10401196001D0138800E01368227E5C496F2A14BF0A229D
:4015400008221BE078225A4984F845202268186812F0800F00F104051D6003D1550601D5038800E00368D00744BF42F0200222601BB9226822F0200222601022002084F8A9
:40158000430001E049490A226568002DA56008DB206820F0040020602BB9002D7DD175460CE0002B79D07546B3FBF2F002FB1033CB5C05F8013D03460028F5D1082A0BD19F
:4015C0002368DA0708D5236962689A42DEBF302305F8013C05F1FF35C5EB0E0323612EE008681A6810F0800F496903D0101D1860136808E010F0400F02F104001860136882
:4016000001D0198000E0196000232361754616E01A68111D1960156800216268284600F049F808B1401B6060636804E004F1420584F8422001232361002384F84330CDF843
:4016400000803B4603AA21463046FFF797FE013002D14FF0FF3026E023692A4639463046C0470130F5D023689B0710D5002504F1190907E001234A4639463046C0470130D8
:40168000E7D00135E368039A9B1A9D42F2DBE068039B9842B8BF184605E00B7804F1420584F842308AE705B0BDE8F083BD1A0000CE1A000010B5C9B202449042034605D05A
:4016C0001C7801308C42F8D1184610BD002010BD884210B501EB020301D8421E0BE09842FBD28118D21AD34204D013F8014D01F8014DF8E710BD994204D011F8014B02F873
:40170000014FF8E710BD000038B50546002944D051F8043C0C1F002BB8BFE41800F0D4F81E4A1368114613B96360146030E0A3420DD92268A018834201BF18685B681218DE
:40174000226063600C6023E0A24203D813465A68002AF9D118681918A1420BD12168014458188242196013D110685268014419605A600DE002D90C232B6009E02168601802
:40178000824201BF106852680918216062605C602846BDE8384000F098B838BD7081FF1F70B5CD1C25F0030508350C2D38BF0C25002D064601DBA94202D90C23336046E0B8
:4017C00000F082F8234B1C681A462146A1B10B685B1B0ED40B2B03D90B60CC18CD501EE08C420BBF63684B681360636018BF0C4615E00C464968E9E7174C23681BB93046B8
:4018000000F052F820602946304600F04DF8431C18D0C41C24F00304A0420DD12560304600F053F804F10B00231D20F00700C31A0ED05A42E25070BD211A304600F034F8C2
:401840000130EBD10C233360304600F03EF8002070BD00BF7081FF1F6C81FF1FF8B5074615460E4621B91146BDE8F840FFF798BF1AB9FFF749FF2846F8BD00F027F88542E9
:401880000ED929463846FFF78BFF044650B131462A46FFF7EDFB31463846FFF735FF01E03046F8BD2046F8BD38B5064C0023054608462360FEF76AFE431C02D1236803B132
:4018C0002B6038BD9081FF1F7047704751F8040C0028BEBF091851F8043CC01804387047000000002A2A2A477265656E20486F7573652050726F6A6563742A2A2A200A0D19
:40190000000000000000000000000000000000000000000000000000456E646C657373206C6F6F703A2025640D0A000042797465202564203A2025640D0A0000536574740E
:40194000696E67207468652063757272656E742074696D6520666F7220746865206465766963650D0A00000053657474696E67207468652063757272656E74206461792087
:40198000666F7220746865206465766963650D0A0000000053656E64696E67206F7574207468652063757272656E74206465766963652074696D650D0A00000053656E6414
:4019C000696E67206F7574207468652063757272656E7420646576696365206461790D0A00000000477265656E486F75736520636F6E74726F6C6C657220302E312C2064F0
:401A00006576656C6F7065642062792059616D656E6920476C65656E20616E64204E6461737369204861726F6C640D0A0000000053656E64696E6720616C6C207361766573
:401A40006420646174612E2E2E0D0A00436C656172696E6720746865206C6F6767696E67206D656D6F72792E2E2E0D0A00000000C84900401900305100404000F0510040D4
:401A8000100000000140001000140140000800400140000A004C01400002005001402000605200404005004806004300232D302B2000686C4C006566674546470030313253
:401AC0003334353637383941424344454600303132333435363738396162636465660000F8B500BFF8BC08BC9E4670474D00000009060000F8B500BFF8BC08BC9E4670471B
:401B000029000000181B0000C880FF1F8000000050000000000000000000000083032705CB066F08130AB70B830300009881FF1F000000000000000000000000000000007D
:401B400000000000000000000000000000000000AA1A00000000000000000000000000000000000000000000000000000000000000000000000000000000000000000000A1
:401B800000000000000000000000000000000000E080FF1F0000000000000000000000000000000000000000000000000000000000000000000000000000000000000000A7
:401BC00000000000000000000000000000000000000000000000000000000000000000000000000000000000000000000000000000000000000000000000000000000000E5
:401C000000000000000000000000000000000000000000000000000000000000000000000000000000000000000000000000000000000000000000000000000000000000A4
:401C40000000000000000000000000000000000000000000000000000000000000000000000000000000000000000000000000000000000000000000000000000000000064
:401C80000000000000000000000000000000000000000000000000000000000000000000000000000000000000000000000000000000000000000000000000000000000024
:020000040003F7
:0200000480007A
:400000000352004002640040036500400103014003050140010701406008014036090140040B0140010D01403D1401401D1501405E1801403D190140401A01403E1B0140B6
:40004000044001400B410140094201400443014001450140074601400547014002480140054901400B4C0140094D01400550014002510140004001C004C08838890D850D98
:40008000880F8A72E208E20CE810EC40E220020608180A230F0211041229150616021F0120162221241826252701281829062A203106323C3407370139023A283F4140014F
:4000C000470449FF4A074BFF4C404D204EF04F05500854185604580459045A045B045C015D115F01604061A86240632080048402850187068E02910C920193039402970812
:4001000099019B0E9F0CA201A303B006B10FB601B802BB02BE40C041C5ECC602C807C9FFCAFFCBFFCF01D018D280D401D604D804D904DA04DB04DC11DD22DF01E040E24005
:40014000E440E540E680E880EA80EC80EE80000402020380051209020A100C080F801080152619821A801C041D101E181F042101220227812B802F2430083110324236867F
:4001800039043B083F80414246404781490550805140540857C059855E02620166606780710297809E01C05DC23CC478CA61CCDFCE12D019D68BD8B1E22082018740E81072
:4001C000EC40E2082E01340136014010410449FF4AFF4BFF4DA04F045018528058045A045B045F01604062C06440654066C068C06AC06CC06EC08F0194029A03AF01B002E9
:40020000B201B501BF10C060C105C5D1C602C807C9FFCAFFCBFFCDAFCE0FCF04D018D405D604D804D904DA04DB04DF01E040E2C0E440E540E6C0E8C0EAC0ECC0EEC00E1080
:400240000F081002180119801B101E5027082D803F80400142804FA9568057405E405F09660170028201C260C401CA10CE10D009D230D6D0D880EA0105E308020E020F1021
:40028000118213291402152017C419E31A021C0122022B102D412F2A3002310C33E03401351037033E113F11402541064204440146C0470E481849FF4AFF4BFF4C624DA0B1
:4002C0004EF04F41500C5401580459045A045B045C105D115F016640670269106A306B106D106E106F128401852087188C0191019306952099189B22A112A320A528A80126
:40030000AD38AF04B13EB601B701BF40C031C106C5EBC6C0C80BC9FFCAFFCBFFCEF0CF44D00CD804D904DA04DC11DD01DF01E6C0EA40EB0200080140051006020C800D10F1
:400340000E101320153216401A021E4821822608275629062A402D802F08304831123280360837223B083C083D8042124380444046244744488049144B014E014F6051109A
:4003800057285D105E485F01910292109308952099129E20A008A380A681A720C0C5C2E0C412CA3BCCE7CE52D0BAD234D6F0000204030518083309080A0C0C010F2312237D
:4003C0001304141C153C16231702183F1C1F1D101E202008211C2321240425272718280C293F2D042F4030103140320F331F362C37383AA83B083E0156025713580459048A
:400400005B045C115D105F0182038403880389018C019203960397019803A002A301A901B603B701B980D804D904DC11DF01018102040318040205800604071009080A0684
:400440000B400D080E040F4010A0131015011702180219111A061B981E02210A2288254029902A042B802F883080310A360838283B403F205901680469406B2070B47310FB
:400480008980934095409B129D809E049F20A404A540A681A710AD80C0FFC27FC41ECAAFCC4BCE2ED601EA01EC02300233103580CC7009800D206208652086089D809F1045
:4004C000A402C2C0D8C0E2103E10818084029DA09F10A402B5A0CE20E230892096109D209F1085049508A104A310B504B710E808EC0288109508A104A310E20496109F102F
:4005000083109F10AA10E220EA801010132015087B107D0895089C10A104A310C40EDE03110174048901A004AB20AC04C408DE04E60100060C0610031A011C02003F03C051
:400540008080000040000000C0000000C000C00000000000800040808000800000000000000B0B0000000000000202000000000000000000000000000000000000000000A1
:40058000000000000000000000000000000000000000000000000000000000000000000000000000000000000000000000000000000000000000000000000000000000003B
:4005C00000000000000000000000000000000000000000000000000000000000000000000000000000000000000000000000000000000000000000000000000000000000FB
:4006000000000000000000000000000000000000000000000000000000000000000000000000000000000000000000000000000000000000000000000000000000000000BA
:40064000000000000000000000000000000000000000000000000000000000000000000000000000000000000000000000000000000000000000000000000000000000007A
:0200000490006A
:0400000000004005B7
:0200000490105A
:04000000BC90ACAF55
:0200000490303A
:020000005E6D33
:0200000490402A
:4000000000000000000000000000000000000000000000000000000000000000000000000000000000000000000000000000000000000000000000000000000000000000C0
:400040000000000000000000000000000000000000000000000000000000000000000000000000000000000000000000000000000000000000000000000000000000000080
:400080000000000000000000000000000000000000000000000000000000000000000000000000000000000000000000000000000000000000000000000000000000000040
:4000C0000000000000000000000000000000000000000000000000000000000000000000000000000000000000000000000000000000000000000000000000000000000000
:0200000490501A
:0C00000000012E16106900012E216ED6A2
:00000001FF