:400000000080002011000000190A0000190A000008B5044B1A6803F53F5302331A6000F01BFD00BFFA46004010B5054C237833B9044B13B10448AFF300800123237010BD19
:400040006081FF1F000000009C330000084B10B51BB108490848AFF300800848036803B910BD074B002BFBD0BDE81040184700BF000000006481FF1F9C330000C880FF1F34
:400080000000000008B5104B1B78DBB20F4A32F813309BB29289934202D2013A0B4B9A81094B1B78DBB2094A32F813309BB29289934202D90132054B9A81044B988901F03A
:4000C0000FFB01F019FB08BD7C81FF1FCC80FF1F08B5094B5B78DBB2042B03D8012001F0AFFB08BD044B5B78DBB20A2B02D9002001F0A6FB08BD00BF7C81FF1F184B5B7865
:40010000DBB2182B03D90522154B1A707047144B5B78DBB2172B03D90422114B1A7070470F4B5B78DBB2162B03D903220C4B1A7070470B4B5B78DBB2152B03D90222084BCE
:400140001A707047064B5B78DBB2142B03D90122034B1A7070470022014B1A70704700BF7C81FF1F08B5012000F058FAC0B2034B5870FFF7C3FFFFF7ABFF08BD7C81FF1F57
:4001800008B5FFF7EFFF01F04FFA08BDF0B583B006460F4600242546A019B0F5007F03D30B4801F023F80EE00A4B01220DF1070100F07EFE9DF807300BB101347B559DF88B
:4001C0000730002BE7D100233B55204603B0F0BDBC360000FC82FF1F10B500240D492046FFF7D4FF0C4B986010B10A4800F0FEFF094B9B681C440134B4F5007F03D30748E8
:4002000000F0F4FF01E0002BE8D10122044B1A7010BD00BF6482FF1F7C81FF1FE03600006382FF1F10B500F0ADFF0446742801D0542803D1224800F0D9FF39E0642801D046
:40024000442803D11F4800F0D1FF31E03F2815D11D4B1B7B742B01D0542B03D11B4800F0C5FF25E0642B01D0442B03D1184800F0BDFF1DE0174800F0B9FF19E0612801D0D6
:40028000412808D1144800F0B1FF0022134B1A70FFF7A2FF0CE0632801D0432808D1104800F0A4FF0F4800F0FDFE0F4800F09EFF054B1C7300F07CFF00F0D2FF10BD00BF2B
:4002C00004370000303700007C81FF1F5C37000084370000AC370000F83700006382FF1F14380000FC82FF1F3838000010B5042818D8DFE800F003070B0F13000E4800F071
:4003000075FF10BD0D4800F071FF10BD0C4800F06DFF10BD0B4800F069FF10BD0A4800F065FF10BD094C02460949204602F012FC204600F05BFF10BD4438000050380000BC
:400340007038000094380000BC3800006482FF1FD438000030B58FB062B600F005FF294800F070FF01F09AF9274801F05BFA01F009FA264801F02EFA00F0CCFF00F00AF9A3
:40038000234801F0F7FA234B187008B1FFF7AEFF0022214B1A7010E0002001F0C3FA01F06FFA0028FBD101F073FA1C4A538818445080194A137801331370174B1B78092BE1
:4003C000EAD9164B5B88164AA2FB0323DB08154A138001AC144D0FCD0FC495E80F0007C423700023CDF82130CDF82530CDF82930CDF82D30CDF831308DF8353001A800F01B
:40040000F5FEFEE725020000810100008500000000340000A482FF1F5682FF1F7C81FF1FCDCCCCCC5882FF1F0036000010B5002001F012FA4FF4F07000F06AFB012001F0E2
:400440000BFA462000F064FB01F012FA04464FF4CD7000F05DFB204610BD00BF10B5002001F076FA4FF4F07000F052FB012001F06FFA462000F04CFB01F076FA04464FF495
:40048000CD7000F045FB204610BD00BF08B501280CD1002001F0E0F90A2000F039FB012001F0DAF9402000F033FB08BD002001F0D3F93C2000F02CFB012001F0CDF90A2068
:4004C00000F026FB08BD00BF08B501280CD1002001F03EFA0A2000F01BFB012001F038FA402000F015FB08BD002001F031FA3C2000F00EFB012001F02BFA0A2000F008FBDD
:4005000008BD00BF10B5002001F0A6F90A2000F0FFFA012001F0A0F90A2000F0F9FA01F0A7F90446322000F0F3FA204610BD00BF10B5002001F00CFA0A2000F0E9FA012001
:4005400001F006FA0A2000F0E3FA01F00DFA0446322000F0DDFA204610BD00BF38B50546002405E005F00100FFF790FF6D100134072CF7DD38BD00BF38B50546002405E0DC
:4005800005F00100FFF7A0FF6D100134072CF7DD38BD00BF08B5FFF749FFCC20FFF7DEFF4E20FFF7DBFF5520FFF7D8FFA220FFF7D5FF7F20FFF7D2FFFFF750FFCC20FFF7F0
:4005C000DBFF4E20FFF7D8FF5520FFF7D5FFA220FFF7D2FF7F20FFF7CFFF08BD38B50024254606E06410FFF78DFF08B144F080040135072DF6DD204638BD00BF38B50024C5
:40060000254606E06410FFF793FF08B144F080040135072DF6DD204638BD00BF2DE9F0410646FFF703FFCC20FFF798FF4420FFF795FF40F2EE2000F06BFAFFF7F7FECC2047
:40064000FFF78CFFBE20FFF789FFFFF707FFCC20FFF792FF4420FFF78FFF40F2EE2000F057FAFFF7FBFECC20FFF786FFBE20FFF783FF0022304B1A600CE0FFF7AFFF2F4BF8
:4006800018552D4C2568FFF7B9FF2D4B5855236801332360284B1C68082CEEDD274B5878284A10601B78284A1360254A5178274C21601278264C226043EA002000B2254B07
:4006C000188042EA0122244B1A8001F0B7FC0022224B01F019FD01F029FF0746204C20606060A16801F078FF8046A060E5680135E5603946206901F06FFF206160690130DD
:400700006061012E09D1284602F01AF80146404602F01EF9134B186007E002F011F80146404602F015F90F4B18600E4B186802F0ABF9BDE8F08100BFBC82FF1FD082FF1F40
:40074000C082FF1FA882FF1FB482FF1FDC82FF1FCC82FF1FB882FF1FB082FF1F0000B03F9081FF1FAC82FF1FFEE700BFF0B40022174611E050F82760F3B226F0FF0608E054
:4007800001EB420511F812406D78A5550132013BDBB2002BF4D10137232FEBD9F0BC70470C4B1B78DBB203F007010B4A11701B09013213701022094B1A70002203F255731E
:4007C0001A70202203F269231A704422A3F265231A707047CF0100496E5800401D51004008B50A46002102F0ACF908BD38B501222E4B1A8018232E4A1370172102321180B1
:40080000023213701925023215800232137042F6DF62284B1A8002331D70C72202331A801B2202331A70022203F26E231A7008224FF040231A70032103F5007319701E4B3C
:400840001B78DBB21D490B701D4B1A8041F25122023B1A8000240CE01A4B1B7803F0010343EA440404F003044FF4F07001F098F8013D0DB1032CEFD115B90320FFF774FF20
:40088000114B4FF480721A8007221A7000220F490A704820023108701A700222033B1A700B4A137843F01F03137038BD80400040824000408C40004008010049A1460040A9
:4008C00022420040254200400440004006400040A243004008B502F029F908BD032807D8044B53F820201844017C13780B431370704700BFF038000038B572B6334A137814
:4009000043F00403137000240BE0314863001A19510001440A46098B5069FFF761FF0134E4B2072CF1D92B494FF09040FFF71EFF4FF44072284B1A8040F20332243B1A8093
:40094000264A03F532438A331A60254A137843F0020313701032137843F002031370214C237843F040032370A2F58632513A137843F0100313700A221B491C48FFF7AAFF54
:400980000A221B491B48FFF7A5FF0A221A491B48FFF7A0FF0A221A491A48FFF79BFF1A4A137843F008031370184D61232B70FFF71DFF81232B700122154B1A70FFF7F0FE2C
:4009C0000E2221461348FFF785FF38BDE8460040F038000090000048725800400404048403500140A0430040280900480051004034090048C05100404009004810510040C5
:400A00004C09004820510040224300400048004004000840B043004008B502F05BF803680C2B00D1FEE7FEE708B5094B1A681044084BC31A802B02DC054B186005E002F03E
:400A400049F80C2303604FF0FF32104608BD00BFDC80FF1F2083FF1F08B5104E104D16E029686B68AC68002204E051F8040B43F8040B0432A242F8D1E868002203E0002137
:400A800043F8041B04328242F9D11035013E002EE6D102F025F8FFF75DFCFEE7010000009039000008B5104A104B1A60104A136843F40073136000230AE0032B03D80D4A57
:400AC00052F8231000E00C490C4A42F8231001332F2BF2D90A4B1A780A4B1A70074A0A4B1A60FFF709FF08BD0004FA050CED00E014ED00E000000000190A00000080FF1F01
:400B0000BC760040C080FF1F08ED00E001BE704708B5034B1B7A00FB03F000F041FF08BDE080FF1F08B500F043FF00BF00BF00BF00BF00BF00BF00BF00BF00BF00BF00BF75
:400B400000BF00BF00BF00BF00BF064A13889BB243F0040313801388BFF36F8F00F02CFF08BD00BF0048004070B504460E46074B1D681F2802D90020FFF7C8FF04F01F0493
:400B8000103455F8240045F8246070BD08ED00E038B504460D46072902D90020FFF7B6FF1F2C02D90020FFF7B1FF04F01F0000F1604000F564406D01EDB2057038BD00BFFE
:400BC00070B48A6902600024264608E013681BB19E4201D202601E4602F5807201344D680B6903FB05F39C42F0D370BC704700BF8B6904E003F580730A68934203D21A6863
:400C00008242F7D100E000231846704730B4044618B1086800F5807008600D681868854201D398690860002010605868844218D31C69012C13D90968A1EB00259B699D42BF
:400C40000BD204F1FF1404F57F4400FB04F003EB0020C91A0844106003E0156001E00B68136030BC704700BF10B404460022FF2013E0A35C584000230BE010F0800F04D06C
:400C80004000C0B280F0310001E04000C0B20133DBB2072BF1D9013292B28A42E9D110BC704700BFC1680268D30912F07F0200D001221A44436803FB02F3027A02FB0333C2
:400CC00001EB032321B1B3F5802F03D903207047032070470020704770B504460E46C0F3072500F0C3FE32462946C4F3074000F043FF0446FFF716FF0CB1042070BD002065
:400D000070BD00BFF0B5C3B00446836800931D680127002623E0009F4FF48072394601A801F004FF01350195802121A8FFF79CFF2090224601A93846FFF7CEFFA069009BB3
:400D40001B1A2068224601A91844FFF7C5FF0746234641AA69462846FFF758FF01366268236903FB02F39E42D5D3384643B0F0BD2DE9F047C0B005468A4690469946489EEA
:400D8000B469041B33681C44C76F80210844FFF76BFF874207D14A4605EB0801504601F0C5FE00241BE0E76F80216018FFF75CFF874213D14FF480722146684601F0B6FE8A
:400DC000324669462846FFF787FF044638B94A460DEB8801504601F0A9FE00E00224204640B0BDE8F08700BF70B505460E461446FFF772FF034650B9227D42B1A069281A7D
:400E00002368224631461844FFF766FF034603B9A560184670BD00BFF8B500293DD00D4600283CD0C368002B3BD043680A2B3AD80768002F39D00446FFF734FF06460028F2
:400E400034D1EF6063682B61237A2B75637A6B75E368AB612368DA0913F07F0300D0012313446B60626802FB03F3E26802EB03232C4644F8083B29462046FFF7A1FEAB68E5
:400E80001B689BB92B7D8BB12846FFF73BFF064629462046FFF794FE08E0012606E0012604E0012602E0012600E001263046F8BD2DE9F04F8BB00691002A00F0E680814660
:400EC0001F46934613181C460793FB689C4200F2DF80002900F0DF80B8680368099304F1FF3A4FEAD913C3EBDA1A0AF1010ABC69031B7A681502B3FBF5F303FB02F304EBAD
:400F00000323039300250EE0B9EBC51F06D36B1CDB01013B994503D9002302E0002300E001231BB901359542EED30025039BC01A030A184605933B69012B09D905EB0A030B
:400F4000013B854207D8984208D20123049307E00023049304E00123049301E000230493C84600260123CDF82090894635E0039B03EB052008F07F0404F180010136B245C4
:400F800002D9C4F1800400E05C46049B63B1059B9D4209D97B68A0EB0320BA69904203D238685B1BA0EB03203B7D5BB1009723460A464946FFF7DCFE034648B18246DDF816
:400FC00020900FE022460144484601F0AFFD0023A044C4EB0B0BA14401355645C7D39A46DDF820905346002B57D1099B002B54D07D689D4228BF1D46013D5D1BDDF81880E9
:40100000079E1C463EE039462846FFF7F1FD8646002836D0436881681944994504D29E4294BF0022012203E089452CBF002201223AB3994502D3C3EB090C01E04FF0000C33
:40104000994502D2C9EB030000E000200CF10C0CB14228BF314699452CBFC9EB0103CB1A40443A7D42B10097624601467046FFF77FFE824628B110E01A460EEB0C0101F076
:4010800055FD0135A542BED907E001239A4604E001239A4601E001239A4650460BB0BDE8F08F00BFF0B5C3B00646846841944FF480720021684601F044FD23680BB37768BB
:4010C000336903FB07F7337D2BB180210DEB0100FFF7CAFD1F90042000250FE0419B1C68334640AA41A92046FFF790FD01340094324669464198FFF777FE0135BD42EDD3CF
:4011000000E0042043B0F0BD7222084B1A702022013B1A700622A3F25D131A70472210331A70002251331A70704700BF8A65004010B500F03DFC04460A4A137843F0200363
:401140001370013A137843F010031370FC3A137843F01003137000F089F8204600F02CFC10BD00BF9A65004008B5054B1B7823B9FFF7CAFF0122024B1A70FFF7D9FF08BD51
:40118000A881FF1F084B1B78DBB213F0200F06D0064A1078C0B213F01E0F02D17047002070470020704700BF696500404965004008B500F0FDFB064B1A7842F001021A70B9
:4011C0001A7802F0FE021A7000F0F6FB08BD00BF99650040034B1B7813F0040FFAD1024B187070476D6400404D64004038B5074B1B782BB938BDFFF7EDFF0134A4B201E0F5
:4012000005460024285D0028F5D138BDA881FF1F014B1B681865704708ED00E04001C0B2014B1870704700BF04E400E01022014B1A60704700E100E01022014B1A607047D4
:4012400080E100E010B50446FFF7F6FF2046FFF7DFFF0720FFF7E2FFFFF7E8FF10BD00BF1022014B1A60704780E200E0054A137843F0040313701032137843F00403137080
:40128000704700BFA243004038B50222114B1A7081220E3B1A70082202331A700F2511331D70002401331C704FF400420A4B1A6007212846FFF76CFC08492846FFF754FC07
:4012C0001022074B1A70074B1C70074B1C70074B1C7038BDD649004080E100E03D130000E082FF1FEC82FF1FF682FF1FF482FF1F08B500F05DFB064A137843F0040313708E
:401300001032137843F00403137000F055FB08BDA543004008B5074B1B7823B9FFF7B4FF0122044B1A70FFF7E3FF4FF40042024B1A6008BDAA81FF1F00E100E038B5A54B03
:401340001C78A54B1B7813F0400F00F03A81E4B214F0010F00F01D819F4B1B78453B052B00F21481DFE813F006008200120112010600DF0004F0DF0504F00A04082C42D1EF
:40138000954B1B78DBB2452B35D1944B1B7813F0FF0F10D0924B1B681B78DBB2914A137004228C4B1A7001228F4B1A7046228A4B1A702C46EDE08D4B1B7813F0020F0DD006
:4013C0008B4A137843F00A0313706022824B1A704FF40042874B1A602C46DAE0864A137843F0100313701022844B1A700422023B1A702C46CDE00022764B1A704A22764B9F
:401400001A702C46C5E00A2C2BD1794A137843F0A0031370754B1B7813F0020F14D06E4B1B7813F0080F01D0092300E00A23704A11780B4313706022674B1A704FF4004220
:401440006C4B1A602C46A4E06B4A137843F0100313701022694B1A700422023B1A702C4697E00020FFF752FB2C4692E014F0020F36D15D4B1A78D2B2584B1B78DBB29A4236
:4014800010D2594A1378DBB255490968CB5CDBB254490B7004214F4B197013780133DBB2137076E0514B1B7813F0020F0CD0504A137843F00A0313706022474B1A704FF45F
:4014C00000424C4B1A6064E04B4A137843F0100313701022494B1A700422023B1A7058E0424B1B7813F0020F0CD0414A137843F09A0313706022384B1A704FF400423D4BE2
:401500001A6046E03C4A137843F01003137010223A4B1A700422023B1A70354A137843F09003137035E0364A1378DBB2354908682C490978C9B2C15413780133DBB21370C0
:401540001278D2B2304B1B78DBB29A4203D21022204B1A701DE0254B1B7813F0020F0CD0234A137843F00903137060221A4B1A704FF400421F4B1A600BE01F4A137843F054
:40158000100313700022134B1A7002E00020FFF7BDFA14F0200F1CD00F4B1B7813F0080F01D0012300E00223114A11780B431370114A137803F0EF0313701022064B1A70AC
:4015C00038BD054B1B7813F0100F02D11022024B1A7038BDD7490040E082FF1FE482FF1FE882FF1FD8490040F482FF1FF582FF1FEC82FF1F80E100E0D6490040D94900401C
:40160000F682FF1FF082FF1FED82FF1F024A137843F08003137070477B650040014B1870704700BF8B650040014B1878704700BF6B650040014B1870704700BF2B6500401A
:40164000014B1878704700BF4B650040014B1870704700BF0B65004008B501E0FFF7F0FFFFF7E2FF10F0080FF8D108BD08B5F920FFF7E0FFF920FFF7E9FF00F099F9064ABB
:40168000137843F01003137000F096F9FFF7E4FF0120FFF7C3FF08BD9B65004008B5054B1B7823B9FFF7E2FF0122024B1A70FFF7ADFF08BDAB81FF1F024A137843F0800315
:4016C000137070477F640040014B1880704700BF1C680040014B1880704700BF9C680040014B1880704700BF5C680040014B1870704700BF8F640040014B1878704700BFA4
:401700006F640040014B188880B27047BC68004008B501E0FFF7F6FFFFF7EEFF10F0100FF8D108BD10B5154A137803F0C00343F0090313701F32137843F001031370104C2B
:40174000237843F00103237044F61F60FFF7BCFF44F61F60FFF7BEFF40F2DB50FFF7C0FF0020FFF7C3FF00F023F9237843F01003237000F021F9FFF7CBFF10BD7F6400400A
:401780009F64004008B5054B1B7823B9FFF7CAFF0122024B1A70FFF78FFF08BDAC81FF1F014B1B685864704708ED00E04001C0B2014B1870704700BF01E400E00222014BD4
:4017C0001A60704700E100E00222014B1A60704780E100E010B50446FFF7F6FF2046FFF7DFFF0720FFF7E2FFFFF7E8FF10BD00BF014B1B689864704708ED00E04001C0B270
:40180000014B1870704700BF02E400E00422014B1A60704700E100E00422014B1A60704780E100E010B50446FFF7F6FF2046FFF7DFFF0720FFF7E2FFFFF7E8FF10BD00BFB5
:40184000044A137803F0FD03400000F0020018431070704720510040044A137803F0BF03800100F0400018431070704720510040024B1878C0F38010704700BF215100405D
:40188000024B187800F00100704700BFFB82FF1F014B33F810007047F882FF1F08B50922044B1A70044A137863F07F031370FFF715F808BD0F5000400E520040024B1870A5
:4018C00040081033187070472A64004010B50446C82000F037F80322034B1A70034B1C442079FFF7EBFF10BD5B640040F080FF1F38B50546FFF7EAFF084C237843F001037F
:401900002370074A137803F0FE0313702846FFF7C5FF237843F00203237038BD796400407258004008B5054B00221A70044A107081221A70FFF7DCFF08BD00BFFB82FF1F73
:40194000FA82FF1F014B1870704700BF815B0040044A137803F07F03C001C0B218431070704700BF20510040014B1878C00970472151004000B585B000238DF809304FF4C8
:40198000807200928DF8083001230193039003496846FFF741FA05B05DF804FBFC82FF1F0230800803D000BF01380046FCD17047EFF3108072B6704780F31088704700BFAA
:4019C00010B500F0E3F800F091F910BB012000F06FF9072818D102210F4800F0E9F802280AD102E00120FFF793F80C4B1B7813F0020FF7D0002409E0084B1B7813F0020FE1
:401A0000E9D04FF0FF3401E04FF0FF3400F094F900E00424204610BD1883FF1F2247004010B500F0B3F800F061F9D0B900F0A0F90446072812D102E00120FFF769F80A4B47
:401A40001B7813F0020FF7D0074B1B7813F0020F04D0054B1B789B0800D1002400F06CF900E00424204610BD2247004008B5FFF7D7FF034610B9FFF7A3FF0346184608BDD8
:401A80002DE9F041441FE4B23A2C01D9002500E0012510F0800F00D00125412800D901253F2803D8B1F5807F06D808E0802900D90125102B02D102E0012500E0012502B962
:401AC0000125002D50D1984616460F46044600F00DF9002847D1434632463946204600F081F8064607283AD102E00120FFF710F81F4B1B7813F0020FF7D01D4B1B7813F0B7
:401B0000020F06D01A4B1B789B0805D04FF0FF3603E04FF0FF3600E02E4606BB154A537812783946204600F09DF8072804D0064615E00120FEF7ECFF0D4B1B7813F0020F0C
:401B4000F7D00B4B1B7813F0020F06D0084B1B789B0804D04FF0FF3601E04FF0FF3600F0EBF8354600E004252846BDE8F08100BF224700401883FF1F08B53F2801D9102378
:401B800001E04FF48073FFF77BFF08BD08B5FFF70FFF064A137843F0080313701032137843F008031370FFF707FF08BDA043004070B506460D4600240CE00120FEF7A8FF79
:401BC000064B1B7813F0010FF7D0054B1B7833550134E4B2AC42F3D3204670BD224700402047004070B41D4C247814F0020F2CD01B4CB6252570D5252570022525700234C8
:401C0000247814F0020F22D1154C2070002404E0165D134D2E700134A4B29C42F8D3B3F5807F16D13F2816D800F5103001EB00214801002305E01A5CD2B209490A700133F2
:401C40009BB21F2BF7D9072006E0042004E0092002E0072000E0072070BC7047224700402047004030B4104C247814F0020F15D00E4CB6252570D825257005252570023455
:401C8000247814F0020F0BD1084C2070080A2070C9B2217022702370072002E0042000E0092030BC704700BF22470040204700400C4B1B7813F0020F0FD00B4BB6221A7063
:401CC000E1221A700E221A7002331B7813F0020F05D1054B187007207047042070470920704700BF224700402047004010B5FFF75FFE0F4B1B78A3B901220D4B1A700D4BAD
:401D00001B6813F0010F0ED00A4A136823F00103136000BF00BF00BF0122054B5A60002402E0042400E00024FFF746FE204610BDB081FF1F0400084008B5FFF739FE0A4BF3
:401D400000221A705B68012B0AD1084A136843F00103136000BF00BF00BF0022024B5A60FFF72AFE08BD00BFB081FF1F04000840074B1B7813F0020F08D0064BB6221A704F
:401D8000E0221A700D221A700720704704207047224700402047004081F0004102E000BF83F0004330B54FEA41044FEA430594EA050F08BF90EA020F1FBF54EA000C55EA9D
:401DC000020C7FEA645C7FEA655C00F0E2804FEA5454D4EB5555B8BF6D420CDD2C4480EA020281EA030382EA000083EA010180EA020281EA0303362D88BF30BD11F0004FE7
:401E00004FEA01314FF4801C4CEA113102D0404261EB410113F0004F4FEA03334CEA133302D0524263EB430394EA050F00F0A780A4F10104D5F1200E0DDB02FA0EFC22FA86
:401E400005F2801841F1000103FA0EF2801843FA05F359410EE0A5F120050EF1200E012A03FA0EFC28BF4CF0020C43FA05F3C01851EBE37101F0004507D54FF0000EDCF13A
:401E8000000C7EEB00006EEB0101B1F5801F1BD3B1F5001F0CD349085FEA30004FEA3C0C04F101044FEA445212F5800F80F09A80BCF1004F08BF5FEA500C50F1000041EB72
:401EC000045141EA050130BD5FEA4C0C404141EB010111F4801FA4F10104E9D191F0000F04BF01460020B1FA81F308BF2033A3F10B03B3F120020CDA0C3208DD02F1140CB0
:401F0000C2F10C0201FA0CF021FA02F10CE002F11402D8BFC2F1200C01FA02F120FA0CFCDCBF41EA0C019040E41AA2BF01EB0451294330BD6FEA04041F3C1CDA0C340EDCE8
:401F400004F11404C4F1200220FA04F001FA02F340EA030021FA04F345EA030130BDC4F10C04C4F1200220FA02F001FA04F340EA0300294630BD21FA04F0294630BD94F00E
:401F8000000F83F4801306BF81F480110134013D4EE77FEA645C18BF7FEA655C29D094EA050F08BF90EA020F05D054EA000C04BF1946104630BD91EA030F1EBF002100205F
:401FC00030BD5FEA545C05D14000494128BF41F0004130BD14F580043CBF01F5801130BD01F0004545F0FE4141F470014FF0000030BD7FEA645C1ABF194610467FEA655CBC
:402000001CBF0B46024650EA013406BF52EA033591EA030F41F4002130BD00BF90F0000F04BF0021704730B54FF4806404F132044FF000054FF0000150E700BF90F0000F8B
:4020400004BF0021704730B54FF4806404F1320410F0004548BF40424FF000013EE700BF42004FEAE2014FEA31014FEA02701FBF12F07F4393F07F4F81F06051704792F0DA
:40208000000F14BF93F07F4F704730B54FF4607401F0004521F0004120E700BF50EA010208BF704730B54FF000050AE050EA010208BF704730B511F0004502D5404261EB93
:4020C00041014FF4806404F132045FEA915C3FF4DCAE4FF003025FEADC0C18BF03325FEADC0C18BF033202EBDC02C2F1200300FA03FC20FA02F001FA03FE40EA0E0021FAA6
:4021000002F11444C1E600BF70B54FF0FF0C4CF4E06C1CEA11541DBF1CEA135594EA0C0F95EA0C0F00F0DEF82C4481EA030621EA4C5123EA4C5350EA013518BF52EA033552
:4021400041F4801143F4801338D0A0FB02CE4FF00005E1FB02E506F00042E0FB03E54FF00006E1FB03569CF0000F18BF4EF0010EA4F1FF04B6F5007F64F5407404D25FEA33
:402180004E0E6D4146EB060642EAC62141EA55514FEAC52040EA5E504FEACE2EB4F1FD0C88BFBCF5E06F1ED8BEF1004F08BF5FEA500E50F1000041EB045170BD06F0004647
:4021C00046EA010140EA020081EA0301B4EB5C04C2BFD4EB0C0541EA045170BD41F480114FF0000E013C00F3AB8014F1360FDEBF002001F0004170BDC4F10004203C35DA1D
:402200000C341BDC04F11404C4F1200500FA05F320FA04F001FA05F240EA020001F0004221F0004110EBD37021FA04F642EB06015EEA430E08BF20EAD37070BDC4F10C04B7
:40224000C4F1200500FA04F320FA05F001FA04F240EA020001F0004110EBD37041F100015EEA430E08BF20EAD37070BDC4F1200500FA05F24EEA020E20FA04F301FA05F2D4
:4022800043EA020321FA04F001F0004121FA04F220EA020000EBD3705EEA430E08BF20EAD37070BD94F0000F0FD101F00046400041EB010111F4801F08BF013CF7D041EAD4
:4022C000060195F0000F18BF704703F00046520043EB030313F4801F08BF013DF7D043EA0603704794EA0C0F0CEA135518BF95EA0C0F0CD050EA410618BF52EA4306D1D1D4
:4023000081EA030101F000414FF0000070BD50EA410606BF1046194652EA430619D094EA0C0F02D150EA013613D195EA0C0F05D152EA03361CBF104619460AD181EA0301A7
:4023400001F0004141F0FE4141F470014FF0000070BD41F0FE4141F4780170BD70B54FF0FF0C4CF4E06C1CEA11541DBF1CEA135594EA0C0F95EA0C0F00F0A7F8A4EB050454
:4023800081EA030E52EA03354FEA013100F088804FEA03334FF0805545EA131343EA12634FEA022245EA111545EA10654FEA00260EF000419D4208BF964244F1FD0404F5AF
:4023C000407402D25B084FEA3202B61A65EB03055B084FEA32024FF480104FF4002CB6EB020E75EB030E22BFB61A754640EA0C005B084FEA3202B6EB020E75EB030E22BFB4
:40240000B61A754640EA5C005B084FEA3202B6EB020E75EB030E22BFB61A754640EA9C005B084FEA3202B6EB020E75EB030E22BFB61A754640EADC0055EA060E18D04FEA8F
:40244000051545EA16754FEA06164FEAC30343EA52734FEAC2025FEA1C1CC0D111F4801F0BD141EA00014FF000004FF0004CB6E711F4801F04BF01430020B4F1FD0C88BF60
:40248000BCF5E06F3FF6AFAEB5EB030C04BFB6EB020C5FEA500C50F1000041EB045170BD0EF0004E4EEA113114EB5C04C2BFD4EB0C0541EA045170BD41F480114FF0000E9F
:4024C000013C90E645EA060E8DE60CEA135594EA0C0F08BF95EA0C0F3FF43BAF94EA0C0F0AD150EA01347FF434AF95EA0C0F7FF425AF104619462CE795EA0C0F06D152EA6F
:4025000003353FF4FDAE1046194622E750EA410618BF52EA43067FF4C5AE50EA41047FF40DAF52EA43057FF4EBAE12E74FEA4102B2F1E04324BFB3F5001CDCF1FE5C0DD9D7
:4025400001F0004C4FEAC0024CEA5070B2F1004F40EB830008BF20F00100704711F0804F21D113F13872BCBF01F00040704741F480114FEA5252C2F11802C2F1200C10FAD2
:402580000CF320FA02F018BF40F001004FEAC1234FEAD32303FA0CFC40EA0C0023FA02F34FEA4303CCE77FEA625307D150EA01331EBF4FF0FE4040F44000704701F0004023
:4025C00040F0FE4040F40000704700BF80F0004002E000BF81F0004142001FBF5FEA410392EA030F7FEA226C7FEA236C6AD04FEA1262D2EB1363C1BFD21841404840414088
:40260000B8BF5B42192B88BF704710F0004F40F4000020F07F4018BF404211F0004F41F4000121F07F4118BF494292EA030F3FD0A2F1010241FA03FC10EB0C00C3F1200395
:4026400001FA03F100F0004302D5494260EB4000B0F5000F13D3B0F1807F06D340084FEA310102F10102FE2A51D2B1F1004F40EBC25008BF20F0010040EA03007047490011
:4026800040EB000010F4000FA2F10102EDD1B0FA80FCACF1080CB2EB0C0200FA0CF0AABF00EBC25052421843BCBFD0401843704792F0000F81F4000106BF80F400000132AB
:4026C000013BB5E74FEA41037FEA226C18BF7FEA236C21D092EA030F04D092F0000F08BF0846704790EA010F1CBF0020704712F07F4F04D1400028BF40F00040704712F1DD
:4027000000723CBF00F50000704700F0004343F0FE4040F4000070477FEA226216BF08467FEA23630146420206BF5FEA412390EA010F40F4800070474FF0000304E000BF1B
:4027400010F0004348BF40425FEA000C08BF704743F0964301464FF000001CE050EA010208BF70474FF000030AE000BF50EA010208BF704711F0004302D5404261EB4101A0
:402780005FEA010C02BF84460146002043F0B64308BFA3F18053A3F50003BCFA8CF2083AA3EBC25310DB01FA02FC634400FA02FCC2F12002BCF1004F20FA02F243EB020031
:4027C00008BF20F00100704702F1200201FA02FCC2F1200250EA4C0021FA02F243EB020008BF20EADC7070474FF0FF0C1CEAD0521EBF1CEAD15392EA0C0F93EA0C0F6FD0E7
:402800001A4480EA010C400218BF5FEA41211ED04FF0006343EA501043EA5111A0FB01310CF00040B1F5000F3EBF490041EAD3715B0040EA010062F17F02FD2A1DD8B3F1C6
:40284000004F40EBC25008BF20F00100704790F0000F0CF0004C08BF49024CEA502040EA51207F3AC2BFD2F1FF0340EAC250704740F400004FF00003013A5DDC12F1190F0C
:40288000DCBF00F000407047C2F10002410021FA02F1C2F1200200FA02FC5FEA310040F1000053EA4C0308BF20EADC70704792F0000F00F0004C02BF400010F4000F013A9E
:4028C000F9D040EA0C0093F0000F01F0004C02BF490011F4000F013BF9D041EA0C018FE70CEAD15392EA0C0F18BF93EA0C0F0AD030F0004C18BF31F0004CD8D180EA01007B
:4029000000F00040704790F0000F17BF90F0004F084691F0000F91F0004F14D092EA0C0F01D142020FD193EA0C0F03D14B0218BF084608D180EA010000F0004040F0FE409D
:4029400040F40000704740F0FE4040F4400070474FF0FF0C1CEAD0521EBF1CEAD15392EA0C0F93EA0C0F69D0A2EB030280EA010C49024FEA402037D04FF0805343EA11119D
:4029800043EA10130CF000408B4238BF5B0042F17D024FF4000C8B4224BF5B1A40EA0C00B3EB510F24BFA3EB510340EA5C00B3EB910F24BFA3EB910340EA9C00B3EBD10F40
:4029C00024BFA3EBD10340EADC001B0118BF5FEA1C1CE0D1FD2A3FF650AF8B4240EBC25008BF20F0010070470CF0004C4CEA50207F32C2BFD2F1FF0340EAC250704740F467
:402A000000004FF00003013A37E792F0000F00F0004C02BF400010F4000F013AF9D040EA0C0093F0000F01F0004C02BF490011F4000F013BF9D041EA0C0195E70CEAD15320
:402A400092EA0C0F08D142027FF47DAF93EA0C0F7FF470AF084676E793EA0C0F04D14B023FF44CAF08466EE730F0004C18BF31F0004CCAD130F000427FF45CAF31F0004314
:402A80007FF43CAF5FE700BF4FEA4002B2F1FE4F0FD34FF09E03B3EB12620DD94FEA002343F0004310F0004F23FA02F018BF404270474FF00000704712F1610F01D14202CF
:402AC00005D110F0004008BF6FF0004070474FF000007047014B1868704700BF5881FF1F0E4B70B51E460E4C0025E41AA410A54204D056F8253098470135F8E700F036FFEA
:402B0000084B094C1E46E41AA4100025A54204D056F8253098470135F8E770BD7839000078390000783900008039000010B5431E0A44914204D011F8014B03F8014FF8E7CD
:402B400010BD03460244934202D003F8011BFAE7704700000EB400B54FF402719CB0ADF814106FF00041049107914FF6FF711DAB02900690084853F8042BADF816100068F2
:402B800002A9019300F064F8029B00221A701CB05DF804EB03B070475881FF1F2DE9F0478E6882469E420C46914698463ED88A8912F4906F3AD02568096902236F1A65692B
:402BC00005EB450595FBF3F57B1C43449D4238BF1D4653050FD5294600F040FB064698B13A462169FFF7A2FFA38923F4906343F08003A38113E02A4600F08EFB064670B95F
:402C00002169504600F0DEFA0C23CAF80030A3894FF0FF3043F04003A381BDE8F08726613E44266046466561ED1BA560464528BF464649463246206800F0A8FAA368002003
:402C40009B1BA36023681E442660BDE8F08700002DE9F04F9DB003938B8980461C060D4616460DD50B695BB9402100F0F7FA2860286118B90C23C8F80030CDE040236B61A0
:402C80000023099320238DF82930DFF89CB130238DF82A3037463C4614F8013B1BB9B7EB060910D003E0252BF9D02746F3E74B46324629464046FFF771FF013000F0A78043
:402CC000099B4B4409933B78002B00F0A08000234FF0FF3204930793059206938DF853301A930126052221784E4800F041FA671C049B38B14B4A3C46801A06FA00F01843BF
:402D00000490EFE7D90644BF20228DF853201A0744BF2B228DF8532022782A2A03D0079A00210A200BE0039A111D12680391002A10DA524243F00200079204900BE02746D1
:402D40003B780134303B092B03D800FB02320121F5E701B107923B782E2B1ED17B782A2B0AD1039B02371A1D1B680392002BB8BF4FF0FF33059310E0002319460593781CEC
:402D80000A2407463A780130303A092A03D804FB01210123F5E703B1059103223978224800F0E6F940B14023CBEB000003FA00F0049B013718430490397806221B487E1C30
:402DC0008DF8281000F0D4F988B1194B33B9039B073323F007030833039314E003AB00932A46144B04A94046AFF3008007E003AB00932A460F4B04A9404600F093F8B0F170
:402E0000FF3F824603D0099B5344099342E7AB895B0601D4099801E04FF0FF301DB0BDE8F08F00BF363900003C39000040390000000000009D2B00002DE9F04791461F4601
:402E40000A698B6806469342B8BF1346C9F8003091F843200C46DDF8208012B10133C9F800302368990642BFD9F800300233C9F80030256815F0060510D104F1190A07E0A0
:402E80000123524639463046C04701301AD00135E368D9F800209B1A9D42F1DB94F843302268003318BF012392060FD5E118302081F843005A1C94F845102244023382F8C9
:402EC000431003E04FF0FF30BDE8F08704F1430239463046C0470130F4D02268D9F80050E36802F00602042A08BF5D1B2269A3680CBF25EAE57500259342C4BF9B1AED1889
:402F00004FF000091A344D4509D00123224639463046C0470130D5D009F10109F3E70020BDE8F0872DE9F04317460A7E85B06E2A984606460C460C9B01F1430E00F0AE8099
:402F400011D8632A22D009D8002A00F0BB80582A40F0CA8081F84520834955E0642A1ED0692A1CD0C0E0732A00F0B08009D86F2A2ED0702A40F0B8800A6842F020020A60D6
:402F80003EE0752A24D0782A3AD0ADE01A6801F14205111D1960136884F84230A8E021681A6811F0800F02D0111D196008E011F0400F02F10401196002D0B2F9003000E08A
:402FC0001368002B3CDA2D225B4284F8432037E021681A6811F0800F02D0111D196007E011F0400F02F10401196001D0138800E01368227E5C496F2A14BF0A2208221BE0AE
:4030000078225A4984F845202268186812F0800F00F104051D6003D1550601D5038800E00368D00744BF42F0200222601BB9226822F0200222601022002084F8430001E0CF
:4030400049490A226568002DA56008DB206820F0040020602BB9002D7DD175460CE0002B79D07546B3FBF2F002FB1033CB5C05F8013D03460028F5D1082A0BD12368DA077C
:4030800008D5236962689A42DEBF302305F8013C05F1FF35C5EB0E0323612EE008681A6810F0800F496903D0101D1860136808E010F0400F02F104001860136801D01980A9
:4030C00000E0196000232361754616E01A68111D1960156800216268284600F049F808B1401B6060636804E004F1420584F8422001232361002384F84330CDF800803B46D2
:4031000003AA21463046FFF797FE013002D14FF0FF3026E023692A4639463046C0470130F5D023689B0710D5002504F1190907E001234A4639463046C0470130E7D0013511
:40314000E368039A9B1A9D42F2DBE068039B9842B8BF184605E00B7804F1420584F842308AE705B0BDE8F083473900005839000010B5C9B202449042034605D01C78013055
:403180008C42F8D1184610BD002010BD884210B501EB020301D8421E0BE09842FBD28118D21AD34204D013F8014D01F8014DF8E710BD994204D011F8014B02F8014FF8E72E
:4031C00010BD000038B50546002944D051F8043C0C1F002BB8BFE41800F0D4F81E4A1368114613B96360146030E0A3420DD92268A018834201BF18685B68121822606360EE
:403200000C6023E0A24203D813465A68002AF9D118681918A1420BD12168014458188242196013D110685268014419605A600DE002D90C232B6009E021686018824201BFE8
:40324000106852680918216062605C602846BDE8384000F098B838BDBC81FF1F70B5CD1C25F0030508350C2D38BF0C25002D064601DBA94202D90C23336046E000F082F8AB
:40328000234B1C681A462146A1B10B685B1B0ED40B2B03D90B60CC18CD501EE08C420BBF63684B681360636018BF0C4615E00C464968E9E7174C23681BB9304600F052F80D
:4032C00020602946304600F04DF8431C18D0C41C24F00304A0420DD12560304600F053F804F10B00231D20F00700C31A0ED05A42E25070BD211A304600F034F80130EBD135
:403300000C233360304600F03EF8002070BD00BFBC81FF1FB881FF1FF8B5074615460E4621B91146BDE8F840FFF798BF1AB9FFF749FF2846F8BD00F027F885420ED929460D
:403340003846FFF78BFF044650B131462A46FFF7EDFB31463846FFF735FF01E03046F8BD2046F8BD38B5064C0023054608462360FDF75AFB431C02D1236803B12B6038BD41
:403380001C83FF1F7047704751F8040C0028BEBF091851F8043CC018043870470000000000000000000000000000000000000000000000000000000000000000000000006F
:4033C00000000000000000000000000000000000000000000000000000000000000000000000000000000000000000000000000000000000000000000000000000000000CD
:40340000000000000000000000000000000000000000000000000000000000000000000000000000000000000000000000000000000000000000000000000000000000008C
:40344000000000000000000000000000000000000000000000000000000000000000000000000000000000000000000000000000000000000000000000000000000000004C
:40348000000000000000000000000000000000000000000000000000000000000000000000000000000000000000000000000000000000000000000000000000000000000C
:4034C00000000000000000000000000000000000000000000000000000000000000000000000000000000000000000000000000000000000000000000000000000000000CC
:40350000000000000000000000000000000000000000000000000000000000000000000000000000000000000000000000000000000000000000000000000000000000008B
:40354000000000000000000000000000000000000000000000000000000000000000000000000000000000000000000000000000000000000000000000000000000000004B
:40358000000000000000000000000000000000000000000000000000000000000000000000000000000000000000000000000000000000000000000000000000000000000B
:4035C00000000000000000000000000000000000000000000000000000000000000000000000000000000000000000000000000000000000000000000000000000000000CB
:403600002A2A2A477265656E20486F7573652050726F6A6563742A2A2A200A0D000000000000000000000000000000000000000000000000456E646C657373206C6F6F70A3
:403640003A2025640D0A000042797465202564203A2025640D0A000057726974653A20456D5F454550524F4D2073697A65206578636565646564210A0D0000007B20202274
:4036800020524F4F4D2054454D50223A202575202C2022534F494C2054454D50223A202575202C2022534F494C204D4F495354555245223A202564207D0D0A005772697454
:4036C000653A20456D5F454550524F4D2073697A6520657863636565646564210A0D0000526561643A20456D5F454550524F4D2073697A6520657863636565646564210AF6
:403700000D00000053657474696E67207468652063757272656E742074696D6520666F7220746865206465766963650D0A00000053657474696E67207468652063757272C1
:40374000656E742064617920666F7220746865206465766963650D0A0000000053656E64696E67206F7574207468652063757272656E74206465766963652074696D650D05
:403780000A00000053656E64696E67206F7574207468652063757272656E7420646576696365206461790D0A00000000477265656E486F75736520636F6E74726F6C6C654F
:4037C0007220302E312C20646576656C6F7065642062792059616D656E6920476C65656E20616E64204E6461737369204861726F6C640D0A0000000053656E64696E6720CD
:40380000616C6C20736176656420646174612E2E2E0D0A00436C656172696E6720746865206C6F6767696E67206D656D6F72792E2E2E0D0A00000000636C656172656420EA
:40384000210000004E6F204572726F720A00000054686520696E70757420706172616D6574657220697320696E76616C69640A00546865206461746120696E2045455052B9
:403880004F4D20697320636F72726575707465640A0000004661696C656420746F20706C6163652074686520454550524F4D20696E20666C6173680A00000000577269747E
:4038C0006520746F20454550524F4D206661696C65640A00454550524F4D20556E6B6E6F776E204572726F722025640A000000001C5100401C510040DB5A00408B5A004040
:4039000080100110C84900401900305100404000F0510040100000000140001000140140000800400140000A004C014000020050014020004300232D302B2000686C4C0043
:403940006566674546470030313233343536373839414243444546003031323334353637383961626364656600000000F8B500BFF8BC08BC9E4670474D000000A50A0000C4
:40398000F8B500BFF8BC08BC9E46704729000000A0390000C880FF1F98000000C00100000000000083032705CB066F08130AB70B830300002083FF1F0000E02EC05D00007C
:4039C0001800000000366E01010000000B00000000000000000000000000000000000000000000000000000000000000000000003439000000000000000000000000000091
:403A0000000000000000000000000000000000000000000000000000000000000000000000000000000000000000000000000000F880FF1F000000000000000000000000F0
:403A40000000000000000000000000000000000000000000000000000000000000000000000000000000000000000000000000000000000000000000000000000000000046
:403A80000000000000000000000000000000000000000000000000000000000000000000000000000000000000000000000000000000000000000000000000000000000006
:403AC00000000000000000000000000000000000000000000000000000000000000000000000000000000000000000000000000000000000000000000000000000000000C6
:403B00000000000000000000000000000000000000000000000000000000000000000000000000000000000000000000000000000000000000000000000000000000000085
:020000040003F7
:0200000480007A
:4000000006520040076400400765004001010140020301400205014059080140380901405D0A01403D0B0140570C01403D0D0140440E0140210F0140281401400B1501409A
:4000400033160140131701405E180140341901404E1A0140491B0140094001400E4101400B42014005430140024401400945014007460140074701400C480140084901406D
:400080000B4C0140054D01400650014003510140008001C004C009400E8064400AFF0BFF1BFF2BFF8B1F8D0F8F0D08FF18FF28FF870D89388A728B0DE208E401E602E20168
:4000C000E8010201040E0601080F09020C070D0F0E08100D11041202140F150F19071B081D0E1E061F01260129092A062B062D012E08300332083404370F4003410649FF7A
:400100004AFF4BFF4C024D0C4EF8580459045A045F01624863A168F06AF06CF06EF0820C8303845C86208E019101942C96509C749E08A001A202A602A840AA10B003B102A2
:40014000B260B301B404B618BE01C003C102C6A0C9FFCAFFCBFFCC03CD0CCEF4D217D804D904DA04DB04DF01E248E3A1E8F0EAF0ECF0EEF000060201051607020A110E51C3
:4001800010A8140116201760180419081A911B101C101D141E481F08210A268027022C012F083102351A368038023A013E604004410845084F20502068096B2070808D40AD
:4001C000900294149540980299029A209B40A321A604A708C0FDC2B5C4EECA30CCF1CE31D046D22004010D011301190124012502350336013880392040624504465047028E
:40020000481949FF4AFF4BFF4C024D204F055110580459045A045C205F0160406140628064806680800C8203830284018508860E8A308B01900191109206951896039810F8
:400240009A409B069C109E209F05A208A420A610A703AA0CAB18AD06AF01B00FB260B307B410B718BA02BB08BE14BF40C023C104C560C620C80AD602D804D904DA04DB040A
:40028000DC22DE08DF01E10CE2F0E30CE50CE70CE840E94CEA40EB4CEC90ED58EF0C02200410050107100E880F6210201525162018021D291F022110230827122B102C10E7
:4002C0002F0A30103312351236443B403D053F2040044528470248284D024F0250085220562057205A805B4077407C049101934095409680980299109F18A310A702B0039D
:40030000B108C074C2F0C474CA72CCF5CEE8D0E4D204DE40E201E8010010040C061108090A100B010D041103120319031C1C1E022010220C28142D02301F310333043902E5
:400340003F054001454049FF4A074BFF4C404D204EF04F0550085608580459045A045B0F5C025D025F01604061A8624063208402850387048A028B058C028D038F0C9401E0
:4003800099039B049E02A602AB08AD0AAF04B10FB201B602BB02BE44C053C102C50CC6B0C70EC819C9FFCAFFCBFFCEF0CF44D00CD401D804D904DA04DB04DC20DD22DF01B2
:4003C000E6C0EA40EB0200200120020203100512071809080B020E400F021020152219841E402101220223402608274029102B032F033310360237103A203B443E403F2084
:4004000042204310474048104A024B044D035118542056205710580159A45D4064027E408608B401C077C295C454CA1CCCA4CE3ED016D208D61FD810DE80E008E401E60271
:4004400016012A0136014030410249FF4AFF4BFF4DA04F04501858045A045C015D015F01604062C06440654066C068C06AC06CC06EC08A029604A602AB01AD01AE01B00490
:40048000B201B402B701BE10C030C102C5D0C620C701C81AC9FFCAFFCBFFCDAFCE0FCF04D018D280D405D604D804D904DA04DB04DC11DD11DF01E040E2C0E440E540E6C01F
:4004C000E8C0EAC0ECC0EEC0041009080C0810081620174018021C101D081E081F0226402C082F024010412045284D015408552056205D015E88678077408740C040C224B3
:40050000C4A2CA30D066D6D0D880404249FF4AFF4BFF4F0150185A045D045F016040624064406540668068806A806C806E80C042C9FFCAFFCBFFCD83CE03CF01D018D2804E
:40054000DA04DB04DD44DF01E040E240E440E540E680E880EA80EC80EE804120428043204520468076809E80A320D0A5E602EA01404249FF4AFF4BFF4D834E034F0150181A
:400580005A045D045F016040624064406540668068806A806C806E8086018E01B601BE40C042C5ECC620C80BC9FFCAFFCBFFCD83CE03CF01D018D401D604D804DA04DB044C
:4005C000DD44DF01E040E240E440E540E680E880EA80EC80EE800321194041204280452046804701490551205320594563408740C005D0A5D60BD801E204EE41014A076055
:40060000116F176F19631B1025252B0C331C356037033A823F5440324104450247064811580459045A045C025F01610C62F0630C650C670C6840694C6A406B4C6C906D5815
:400640006F0C81018326851487498A018E04959F96049804999F9C049D80A202A50AA602A751AA01B107B204B318B401B580B602B760B808BE50BF40C032C104C206C4014E
:40068000C5C0C70EC812C9FFCAFFCBFFCC62CDA0CEF0CF41D00CD418D604D804D904DA04DB04DC22DD22DF01E640E702E910EA30EB10ED10EE10EF120010018009880A0404
:4006C0001080122814401502181419401C401D8020012115272A28202F283240331434023514393A3F0A404141104220472A48844F08520857085A02600461406201820144
:4007000098029914A321AA40B640C003C207C40ECA62CCEECEC3D0EFD204D601D80DEE4000010144021004630508060C084C0A230BE30C4F0DFF0E2010021180140C153C84
:4007400017C219E71B181C6F1D10200821C02404270429182A232C032D1C2FE1304031C03210331F340F3538362C3AA03B083E0156025713580459045B045C225D205F01AB
:400780008E01AE01B001BE01C041C5ECC720C823C9FFCAFFCBFFCF01D018D280D401D604D804DA04DB04DD33DF01E040E240E440E540E680E880EA80EC80EE800024018028
:4007C000038004040622080509800A100B8010801110120113041780180419951A041E80202821082221284429842A0130813118384239103B0446824D044F015602590104
:400800005D045E805F0167406A806B147080721073047680778087408C218F80904091109380968698409C209D809E209F14A180A404A508A620B104B340C08FC20DC48F99
:40084000CA0FCC0FCE0FD090D6D1D880EA01308033083580370238208580CCF0CE10E21009800F01634066048180874094209F02A480A708C2C0D8C0E480E6403E108204CD
:4008800094209E049F02A480A708AB01CE20E280E880942096109F02A480A7087002DC013B208310840287029040A402B440CE08E802830490419F02A310A801B310E804C2
:4008C00003208F2090419F06A310C008E20280108702942096109F02A310A708AB10B480E220E640EE807B108708A310A708AA10DE40E640EA801322170460407B107C017A
:4009000090419F06A310C40ED802DE0312808E80AB20C408E20200070C050E07101D1A101C0D00FF010303C0C0000000C000C00000000000800040808000800000000000F3
:400940004000004B8B00400010000000C00000C20200000000000000000000000000000000000000000000000000000000000000000000000000000000000000000000008D
:400980000000000000000000000000000000000000000000000000000000000000000000000000000000000000000000000000000000000000000000000000000000000037
:4009C00000000000000000000000000000000000000000000000000000000000000000000000000000000000000000000000000000000000000000000000000000000000F7
:400A000000000000000000000000000000000000000000000000000000000000000000000000000000000000000000000000000000000000000000000000000000000000B6
:400A40000000000000000000000000000000000000000000000000000000000000000000000000000000000000000000000000000000000000000000000000000000000076
:0200000490006A
:0400000000004005B7
:0200000490105A
:04000000BC90ACAF55
:0200000490303A
:020000004C3D75
:0200000490402A
:4000000000000000000000000000000000000000000000000000000000000000000000000000000000000000000000000000000000000000000000000000000000000000C0
:400040000000000000000000000000000000000000000000000000000000000000000000000000000000000000000000000000000000000000000000000000000000000080
:400080000000000000000000000000000000000000000000000000000000000000000000000000000000000000000000000000000000000000000000000000000000000040
:4000C0000000000000000000000000000000000000000000000000000000000000000000000000000000000000000000000000000000000000000000000000000000000000
:0200000490501A
:0C00000000012E16106900012E2E5CA6D7
:00000001FF