:400000000080002011000000290600002906000008B5044B1A6803F53F5302331A6000F023FB00BFFA46004010B5054C237833B9044B13B10448AFF300800123237010BDFB
:400040005881FF1F0000000038230000084B10B51BB108490848AFF300800848036803B910BD074B002BFBD0BDE81040184700BF000000005C81FF1F38230000C880FF1F2C
:400080000000000008B501F04DFB01F073FB80B2064B18801A8891B25A680A445A609A6801329A6001F0CCFC08BD00BF7481FF1F08B50F4A137802EB43035B889BB2D28943
:4000C000934202D2013A0A4BDA81094A137802EB43035B889BB2D289934202D90132044BDA81034BD88900F027FF00F031FF08BDCC80FF1F30B58FB062B600F077FB174832
:4001000000F0E2FB00F0F6FE154800F0B7FF00F065FF144800F08AFF01F0E8FA124801F081FC01F0F7FA00F037FC01AC0F4D0FCD0FC495E80F0007C423700023CDF8213067
:40014000CDF82530CDF82930CDF82D30CDF831308DF8353001A800F08BFBFEE7A502000015020000B1000000850000003C23000008B5094B1B7BDBB2042B03D8012000F06F
:400180008BFF08BD044B1B7BDBB20A2B02D9002000F082FF08BD00BF7481FF1F184B1B7BDBB2182B03D90522164B1A707047144B1B7BDBB2172B03D90422124B1A70704774
:4001C0000F4B1B7BDBB2162B03D903220D4B1A7070470B4B1B7BDBB2152B03D90222094B1A707047064B1B7BDBB2142B03D90122044B1A7070470022024B1A70704700BFA8
:400200007481FF1FCC80FF1F08B5FFF7C7FFFFF7AFFF08BD08B5FFF7F7FF00F031FE08BD10B592B00021682000F032FD04460246194905A801F05CFC05A800F019FB002C3C
:40024000F0D1002000F0B6FD0021682000F060FD06E0012000F0DAFD104B18550134E4B2052CF6D9002000F0D1FD0C4B987100F085FD00240BE0094B1B5D224608496846B1
:4002800001F036FC684600F0F3FA0134E4B2062CF1D912B010BD00BF70230000A881FF1F8423000010B5FFF7BBFF00F0ADFA0446742801D0542803D11C4800F0D9FA2EE0B2
:4002C000642801D0442803D1194800F0D1FA26E03F2815D1174B5B7B742B01D0542B03D1154800F0C5FA1AE0642B01D0442B03D1124800F0BDFA12E0114800F0B9FA0EE071
:40030000612801D0412803D10E4800F0B1FA06E0632801D0432802D10B4800F0A9FA054B5C7300F087FA00F0DDFA10BD94230000C02300007481FF1FEC23000014240000B7
:400340003C24000088240000A4240000FEE700BFF0B40022174611E050F82760F3B226F0FF0608E001EB420511F812406D78A5550132013BDBB2002BF4D10137212FEBD9D5
:40038000F0BC70470A4B1B78DBB203F00701094A11701B09013213700122074B1A70102203F6F3131A704422A3F28A231A707047CF0100496E5800400D51004008B50A464F
:4003C000002101F08CFB08BD08B501F07DFB08BD38B50024374B1C80502202331A70172202331A801823344A13701925023215800232137042F6DF62304B1A8002331D7002
:40040000632202331A801B2202331A7004222C492C48FFF7D9FF02222B4B1A7008224FF040231A70032103F500731970274B1B78DBB227490B70274B1A8041F25122023B91
:400440001A800CE0244B1B7803F0010343EA440404F003044FF4F07001F0FAFA013D0DB1032CEFD115B90320FFF770FF1B4B4FF480721A8007221A70002219490A70482076
:40048000023108701A700222033B1A7004220A331A70144A137843F01F031370013A137843F001031370013A137843F08003137038BD00BF80400040864000408C40004028
:4004C00058070048004100400043004008010049A146004022420040254200400440004006400040A2430040012807D8044B53F820201844017A13780B431370704700BFD3
:40050000C8240000012808D8044B53F820201844017A137823EA010313707047C824000038B572B62E4A137843F00403137000240BE02C4863001A19510001440A46098AEC
:40054000D068FFF73BFF0134E4B2072CF1D926494FF09040FFF7FCFE0A25244B1D70244A137843F0020313701032137843F002031370204C237843F040032370A2F5863217
:40058000513A137843F0100313702A461A491B48FFF71AFF2A461A491A48FFF715FF082219491A48FFF710FF082219491948FFF70BFF194A137843F008031370174D612361
:4005C0002B70FFF705FF81232B700122144B1A70FFF7D8FE0E2221461248FFF7F5FE38BDE8460040C8240000880000488358004003500140A0430040300700480051004074
:400600003C070048C051004048070048125100405007004822510040224300400048004004000840B043004008B501F021FA03680C2B00D1FEE7FEE708B5094B1A681044B9
:40064000084BC31A802B02DC054B186005E001F00FFA0C2303604FF0FF32104608BD00BFDC80FF1FD081FF1F08B5104E104D16E029686B68AC68002204E051F8040B43F8D6
:40068000040B0432A242F8D1E868002203E0002143F8041B04328242F9D11035013E002EE6D101F0EBF9FFF725FDFEE7010000006025000008B5104A104B1A60104A136832
:4006C00043F40073136000230AE0032B03D80D4A52F8231000E00C490C4A42F8231001332F2BF2D90A4B1A780A4B1A70074A0A4B1A60FFF715FF08BD0004FA050CED00E011
:4007000014ED00E000000000290600000080FF1FBC760040C080FF1F08ED00E001BE704708B5034B1B7A00FB03F001F091F908BDE080FF1F70B504460E46074B1D681F28C3
:4007400002D90020FFF7EAFF04F01F04103455F8240045F8246070BD08ED00E038B504460D46072902D90020FFF7D8FF1F2C02D90020FFF7D3FF04F01F0000F1604000F5E7
:4007800064406D01EDB2057038BD00BF7222084B1A702022A3F580731A7006225E3B1A70472210331A70002252331A70704700BF8965004010B501F053F904460A4A137816
:4007C00043F020031370A2F58072137843F0100313700432137843F01003137000F088F8204601F041F910BD9965004008B5054B1B7823B9FFF7CAFF0122024B1A70FFF782
:40080000D9FF08BD8281FF1F084B1B78DBB213F0200F06D0064A1078C0B213F01E0F02D17047002070470020704700BF696400404964004008B501F013F9064B1A7842F045
:4008400001021A701A7802F0FE021A7001F00CF908BD00BF99640040034B1B7813F0040FFAD1024B187070476D6400404D64004038B5074B1B782BB938BDFFF7EDFF013414
:40088000A4B201E005460024285D0028F5D138BD8281FF1F014B1B681865704708ED00E04001C0B2014B1870704700BF04E400E01022014B1A60704700E100E01022014B7E
:4008C0001A60704780E100E010B50446FFF7F6FF2046FFF7DFFF0720FFF7E2FFFFF7E8FF10BD00BF1022014B1A60704780E200E0054A137843F0040313701032137843F063
:4009000004031370704700BFA243004038B50222114B1A7081220E3B1A70082202331A700F2511331D70002401331C704FF400420A4B1A6007212846FFF710FF08492846A5
:40094000FFF7F8FE1022074B1A70074B1C70074B1C70074B1C7038BDD649004080E100E0C1090000AF81FF1FB881FF1FC281FF1FC081FF1F08B501F073F8064A137843F0F8
:40098000040313701032137843F00403137001F06BF808BDA543004008B5074B1B7823B9FFF7B4FF0122044B1A70FFF7E3FF4FF40042024B1A6008BD8481FF1F00E100E0F2
:4009C00038B5A54B1C78A54B1B7813F0400F00F03A81E4B214F0010F00F01D819F4B1B78453B052B00F21481DFE813F006008200120112010600DF0004F0DF0504F00A04E3
:400A0000082C42D1954B1B78DBB2452B35D1944B1B7813F0FF0F10D0924B1B681B78DBB2914A137004228C4B1A7001228F4B1A7046228A4B1A702C46EDE08D4B1B7813F036
:400A4000020F0DD08B4A137843F00A0313706022824B1A704FF40042874B1A602C46DAE0864A137843F0100313701022844B1A700422023B1A702C46CDE00022764B1A7067
:400A80004A22764B1A702C46C5E00A2C2BD1794A137843F0A0031370754B1B7813F0020F14D06E4B1B7813F0080F01D0092300E00A23704A11780B4313706022674B1A7002
:400AC0004FF400426C4B1A602C46A4E06B4A137843F0100313701022694B1A700422023B1A702C4697E00020FFF718FE2C4692E014F0020F36D15D4B1A78D2B2584B1B78DB
:400B0000DBB29A4210D2594A1378DBB255490968CB5CDBB254490B7004214F4B197013780133DBB2137076E0514B1B7813F0020F0CD0504A137843F00A0313706022474B4C
:400B40001A704FF400424C4B1A6064E04B4A137843F0100313701022494B1A700422023B1A7058E0424B1B7813F0020F0CD0414A137843F09A0313706022384B1A704FF468
:400B800000423D4B1A6046E03C4A137843F01003137010223A4B1A700422023B1A70354A137843F09003137035E0364A1378DBB2354908682C490978C9B2C1541378013390
:400BC000DBB213701278D2B2304B1B78DBB29A4203D21022204B1A701DE0254B1B7813F0020F0CD0234A137843F00903137060221A4B1A704FF400421F4B1A600BE01F4A8C
:400C0000137843F0100313700022134B1A7002E00020FFF783FD14F0200F1CD00F4B1B7813F0080F01D0012300E00223114A11780B431370114A137803F0EF031370102289
:400C4000064B1A7038BD054B1B7813F0100F02D11022024B1A7038BDD7490040AF81FF1FB081FF1FB481FF1FD8490040C081FF1FC181FF1FB881FF1F80E100E0D649004067
:400C8000D9490040C281FF1FBC81FF1FB981FF1F1A4B1B78DBB2102B29D1194B1B7813F0080F26D14FF40042164B1A604000C0B229B140F001004922104B1A7002E0452246
:400CC0000E4B1A70104B1870012201331A700F4B1B7813F0010FFAD00C4B1B7803F00A030A2B08D11022054B1A700320704702207047012070470020704700BFAF81FF1F10
:400D0000D949004080E100E0D8490040D7490040164B1B7813F0040F23D04000C0B229B140F001004922124B1A7002E04522104B1A70104B1870122201331A700422023BDD
:400D40001A700D4B1B7813F0010FFAD00A4B1B7803F00A030A2B06D11022054B1A7003207047022070470020704700BFD9490040AF81FF1FD8490040D74900400A4B1B787F
:400D800013F0040F0ED01023074A13700421023A1170064A1370064B1B7813F0210FFAD00020704702207047D9490040AF81FF1FD7490040114B1B7813F0040F1BD0104B97
:400DC00018700422013B1A7046220E4B1A700E4B1B7813F0010FFAD00B4B1B7813F0020F04D16022074B1A70002070476022054B1A70032070470220704700BFD949004034
:400E0000D8490040AF81FF1FD7490040114B1B7813F0040F1BD0104B1B78DBB2492B05D100220E4B1A704A220B4B1A700B4B1B7813F0010FFAD00A4B1B78DBB218B1102168
:400E4000064A117004E06021034A117000E0002318467047D9490040AF81FF1FD7490040D8490040024A137843F080031370704778640040014B1870704700BF886400408C
:400E8000014B1878704700BF68640040014B1870704700BF28640040014B1878704700BF48640040014B1870704700BF0864004008B501E0FFF7F0FFFFF7E2FF10F0080F19
:400EC000F8D108BD08B5F920FFF7E0FFF920FFF7E9FF00F0C5FD064A137843F01003137000F0C2FDFFF7E4FF0120FFF7C3FF08BD9864004008B5054B1B7823B9FFF7E2FFB7
:400F00000122024B1A70FFF7ADFF08BD8581FF1F024A137843F080031370704774650040014B1880704700BF086A0040014B1880704700BF886A0040014B1880704700BF5A
:400F4000486A0040014B1870704700BF85650040014B1878704700BF65650040014B188880B27047A86A004008B501E0FFF7F6FFFFF7EEFF10F0100FF8D108BD10B5154A4B
:400F8000137803F0C00343F0090313702032137843F001031370104C237843F00103237044F61F60FFF7BCFF44F61F60FFF7BEFF40F2DB50FFF7C0FF0020FFF7C3FF00F026
:400FC0004FFD237843F01003237000F04DFDFFF7CBFF10BD746500409565004008B5054B1B7823B9FFF7CAFF0122024B1A70FFF78FFF08BD8681FF1F014B1B6898647047F2
:4010000008ED00E04001C0B2014B1870704700BF02E400E00422014B1A60704700E100E00422014B1A60704780E100E010B50446FFF7F6FF2046FFF7DFFF0720FFF7E2FF9E
:40104000FFF7E8FF10BD00BF014B1B68D864704708ED00E04001C0B2014B1870704700BF03E400E00822014B1A60704700E100E00822014B1A60704780E100E010B504464D
:40108000FFF7F6FF2046FFF7DFFF0720FFF7E2FFFFF7E8FF10BD00BF044A137803F0FD03400000F002001843107070472051004038B59DF81040651EEDB2032D51D80138DD
:4010C00009282ED8DFE800F0052D2D052D2D0F192D230F2B03D92548007840B222E02448007840B21EE00F2B03D92248007840B218E02148007840B214E00F2B03D91F48E3
:40110000007840B20EE01E48007840B20AE00F2B03D91C48007840B204E01B48007840B200E0002001EB401101FB02F2D20B91B20D2B0BD8C3F10E0192B20A4191B2621E8B
:40114000124800EB82020133937005E0631E0F4A02EB83030F229A70013C0C4B23F8241038BD0020FFF7DAFA38BD00BF180100491C010049190100491D0100491A01004996
:401180001E0100491B0100491F0100498881FF1FF8B5074600F064FC06460D4D2B7843F003032B700B4C237843F0030323700A4B1F700320FFF7B4FA2B7803F0FC032B70D2
:4011C000237803F0FC032370304600F04DFCF8BDF8460040F946004092580040F8B504460022C04B1A7401285AD13822BE4B1A70052702331F70072201331A700025013321
:401200001D7001331D70162201331A7002331D7001331D7001331D7001260A331E70142203F527631A70042201331A70182201331A7001331D701123AC4A13701221013242
:4012400011700132157002321670013213701922A74B1A70972201331A704420FFF798FF5822A44B1A7001331D7005331F70022201331A7001331D7001331D70284600F069
:40128000A3FAA7229C4B1A603146384600F0C0FA3146672000F040FB98491D20FFF74AFA022C5DD13822904B1A70042202331A70062201331A70002501331D7001331D70BA
:4012C0003F2201331A7002331D7001331D7001331D7001260A331E70502203F527631A70272201331A702C2201331A7001331D70552203331A705A2201331A700527013376
:401300001F7002331E70112201331A70192201331A70972201331A704420FFF739FF5822744B1A7001331D7005331F70022201331A7001331D7001331D70284600F044FA1D
:401340004FF47A426C4B1A603146384600F060FA3146252000F0E0FA69491D20FFF7EAF9032C5DD13822604B1A70042202331A70062201331A70002501331D7001331D7052
:401380003F2201331A7002331D7001331D7001331D7001260A331E70502203F527631A70272201331A702C2201331A7001331D70552203331A705A2201331A7005270133B5
:4013C0001F7002331E70112201331A70192201331A70972201331A704420FFF7D9FE5822444B1A7001331D7005331F70022201331A7001331D7001331D70284600F0E4F94F
:401400004FF47A423C4B1A603146384600F000FA3146252000F080FA3A491D20FFF78AF9042C5DD13822304B1A70042202331A70062201331A70002401331C7001331C7042
:401440003F2201331A7002331C7001331C7001331C7001250A331D70502203F527631A70272201331A702C2201331A7001331C70552203331A705A2201331A7005260133FB
:401480001E7002331D70112201331A70192201331A70972201331A704420FFF779FE5822144B1A7001331C7005331E70022201331A7001331C7001331C70204600F084F98C
:4014C0004FF47A420C4B1A602946304600F0A0F92946252000F020FA0B491D20FFF72AF9F8BD00BF8881FF1F004E00408A5800409058004094580040C481FF1F9917000094
:401500009D170000A1170000A51700002DE9F04182B0394D4FF0010885F80080374E00247474102000F062F9102000F0E3F907211D20FFF713F90427314B1F7001331C70DA
:4015400007331C702F4A137843F0180313702E4B1C7003F2F5231C7001331C700A23A2F2872213700132147002321470122105321170132101321170043214701421A2F6BC
:401580008C221170CDF8008047F606024FF400410320FFF78DFD0223009310234FF4004249F2DA012046FFF783FD0323009310234FF4004249F2DA012046FFF779FD0097F9
:4015C00010234FF4004249F2DA012046FFF770FD2B78013B06EB83039A780C4B1A702B78013B36F823200A4B1A802878FFF7F6FD02B0BDE8F08100BFF080FF1F8881FF1F07
:4016000096580040075B0040935800400E4E00400C4E004070B500F023FA06462A4B1B782A4B1A7842F001021A701A7842F010021A7010331A7842F001021A701A7842F075
:4016400010021A70224D2B7843F002032B70214C237843F0020323701F4A137843F0030313700320FFF75CF82B7803F0FD032B70237803F0FD032370184A137843F006037E
:4016800013707A22164B1A70164A137843F0010313701032137843F0010313700F3A137843F0010313701032137843F0010313704FF000530C4A1360A2F5C07213603046D2
:4016C00000F0D2F970BD00BFF080FF1FAA430040F8460040F9460040915800407758004082580040A143004080E200E008B5084B9B7C4BB9064BDB7C13F0FF0F01D1FFF727
:4017000005FF0122024B9A74FFF784FF08BD00BF8881FF1F024A137843F0010313707047004E00400E4B1B7803F00303012B03D80C4B188880B209E00A4A12780A4908787E
:4017400042EA0020032B01D1084B1B78084B1B7C13F0FF0F02D00022054B5A7400B27047144E0040104E0040114E0040124E00408881FF1F064B5B69C01A4FF47A7303FBFE
:4017800000F0044B1B6890FBF3F000B2704700BF8881FF1FC481FF1F704700BF704700BF704700BF704700BF10B5002404E02046FEF7A8FE0134E4B2012CF8D9FF22014B6B
:4017C0001A7010BDF180FF1F10B50446FFF7ECFF2046FEF789FE014B1C7010BDF180FF1F014B188880B2704780400040034B1A7800F0F80010431870704700BF824000400D
:40180000024B187800F00700704700BF8240004070B505460E46FFF7F3FF0446FFF7E0FFA84256D02B4B1B7803F0010294B900B185B938B9284B1D80284A137803F0BF0393
:40184000137070BD254A137843F040031370224B1D8070BD22B3002321490B7001240F310C7004310B700C390B7803F07F030B701A4B1B7813F0080F00D08DB9194B188044
:401880000721013B1970164B1B7813F0010FFAD110490B7803F0FE030B700021104B19700C4B1B7813F0010F0DD00E4B1D800EB1032200E001220A4B1A70094B1B7813F099
:4018C000010FFAD170BD044B1D8002490B7813430B7070BDA243004080400040824000400140004002400040014B188880B2704700410040034B1A7800F0F8001043187005
:40190000704700BF02410040024B187800F00700704700BF0241004070B505460E46FFF7F3FF0446FFF7E0FFA84256D02B4B1B7803F0010294B900B185B938B9284B1D80CA
:40194000284A137803F0BF03137070BD254A137843F040031370224B1D8070BD22B3002321490B70012413310C7004390B7008390B7803F07F030B701A4B1B7813F0080F9B
:4019800000D08DB9194B18800721013B1970164B1B7813F0010FFAD110490B7803F0FE030B700021104B19700C4B1B7813F0010F0DD00E4B1D800EB1032200E001220A4BFA
:4019C0001A70094B1B7813F0010FFAD170BD044B1D8002490B7813430B7070BDA143004000410040024100400140004002400040014B1B685864704708ED00E04001C0B2BE
:401A0000014B1870704700BF01E400E00222014B1A60704700E100E00222014B1A60704780E100E010B50446FFF7F6FF2046FFF7DFFF0720FFF7E2FFFFF7E8FF10BD00BFB8
:401A40000222014B1A60704780E200E0000000000230800803D000BF01380046FCD17047EFF3108072B6704780F31088704700BF014B1868704700BF5481FF1F0E4B70B5AF
:401A80001E460E4C0025E41AA410A54204D056F8253098470135F8E700F050FD084B094C1E46E41AA4100025A54204D056F8253098470135F8E770BD4825000048250000C6
:401AC000482500005025000010B5431E0A44914204D011F8014B03F8014FF8E710BD03460244934202D003F8011BFAE7704700000EB400B54FF402719CB0ADF814106FF017
:401B00000041049107914FF6FF711DAB02900690084853F8042BADF81610006802A9019300F064F8029B00221A701CB05DF804EB03B070475481FF1F2DE9F0478E68824649
:401B40009E420C46914698463ED88A8912F4906F3AD02568096902236F1A656905EB450595FBF3F57B1C43449D4238BF1D4653050FD5294600F040FB064698B13A4621694D
:401B8000FFF7A2FFA38923F4906343F08003A38113E02A4600F08EFB064670B92169504600F0DEFA0C23CAF80030A3894FF0FF3043F04003A381BDE8F08726613E44266045
:401BC00046466561ED1BA560464528BF464649463246206800F0A8FAA36800209B1BA36023681E442660BDE8F08700002DE9F04F9DB003938B8980461C060D4616460DD52F
:401C00000B695BB9402100F0F7FA2860286118B90C23C8F80030CDE040236B610023099320238DF82930DFF89CB130238DF82A3037463C4614F8013B1BB9B7EB060910D01B
:401C400003E0252BF9D02746F3E74B46324629464046FFF771FF013000F0A780099B4B4409933B78002B00F0A08000234FF0FF3204930793059206938DF853301A930126E8
:401C8000052221784E4800F041FA671C049B38B14B4A3C46801A06FA00F018430490EFE7D90644BF20228DF853201A0744BF2B228DF8532022782A2A03D0079A00210A2000
:401CC0000BE0039A111D12680391002A10DA524243F00200079204900BE027463B780134303B092B03D800FB02320121F5E701B107923B782E2B1ED17B782A2B0AD1039B28
:401D000002371A1D1B680392002BB8BF4FF0FF33059310E0002319460593781C0A2407463A780130303A092A03D804FB01210123F5E703B1059103223978224800F0E6F982
:401D400040B14023CBEB000003FA00F0049B013718430490397806221B487E1C8DF8281000F0D4F988B1194B33B9039B073323F007030833039314E003AB00932A46144B03
:401D800004A94046AFF3008007E003AB00932A460F4B04A9404600F093F8B0F1FF3F824603D0099B5344099342E7AB895B0601D4099801E04FF0FF301DB0BDE8F08F00BFAA
:401DC000062500000C2500001025000000000000391B00002DE9F04791461F460A698B6806469342B8BF1346C9F8003091F843200C46DDF8208012B10133C9F80030236807
:401E0000990642BFD9F800300233C9F80030256815F0060510D104F1190A07E00123524639463046C04701301AD00135E368D9F800209B1A9D42F1DB94F8433022680033FD
:401E400018BF012392060FD5E118302081F843005A1C94F845102244023382F8431003E04FF0FF30BDE8F08704F1430239463046C0470130F4D02268D9F80050E36802F0A7
:401E80000602042A08BF5D1B2269A3680CBF25EAE57500259342C4BF9B1AED184FF000091A344D4509D00123224639463046C0470130D5D009F10109F3E70020BDE8F08733
:401EC0002DE9F04317460A7E85B06E2A984606460C460C9B01F1430E00F0AE8011D8632A22D009D8002A00F0BB80582A40F0CA8081F84520834955E0642A1ED0692A1CD0EF
:401F0000C0E0732A00F0B08009D86F2A2ED0702A40F0B8800A6842F020020A603EE0752A24D0782A3AD0ADE01A6801F14205111D1960136884F84230A8E021681A6811F051
:401F4000800F02D0111D196008E011F0400F02F10401196002D0B2F9003000E01368002B3CDA2D225B4284F8432037E021681A6811F0800F02D0111D196007E011F0400F3A
:401F800002F10401196001D0138800E01368227E5C496F2A14BF0A2208221BE078225A4984F845202268186812F0800F00F104051D6003D1550601D5038800E00368D00705
:401FC00044BF42F0200222601BB9226822F0200222601022002084F8430001E049490A226568002DA56008DB206820F0040020602BB9002D7DD175460CE0002B79D0754611
:40200000B3FBF2F002FB1033CB5C05F8013D03460028F5D1082A0BD12368DA0708D5236962689A42DEBF302305F8013C05F1FF35C5EB0E0323612EE008681A6810F0800F86
:40204000496903D0101D1860136808E010F0400F02F104001860136801D0198000E0196000232361754616E01A68111D1960156800216268284600F049F808B1401B60607B
:40208000636804E004F1420584F8422001232361002384F84330CDF800803B4603AA21463046FFF797FE013002D14FF0FF3026E023692A4639463046C0470130F5D02368D1
:4020C0009B0710D5002504F1190907E001234A4639463046C0470130E7D00135E368039A9B1A9D42F2DBE068039B9842B8BF184605E00B7804F1420584F842308AE705B0D2
:40210000BDE8F083172500002825000010B5C9B202449042034605D01C7801308C42F8D1184610BD002010BD884210B501EB020301D8421E0BE09842FBD28118D21AD3422F
:4021400004D013F8014D01F8014DF8E710BD994204D011F8014B02F8014FF8E710BD000038B50546002944D051F8043C0C1F002BB8BFE41800F0D4F81E4A1368114613B9BC
:402180006360146030E0A3420DD92268A018834201BF18685B681218226063600C6023E0A24203D813465A68002AF9D118681918A1420BD12168014458188242196013D188
:4021C00010685268014419605A600DE002D90C232B6009E021686018824201BF106852680918216062605C602846BDE8384000F098B838BDA481FF1F70B5CD1C25F00305C5
:4022000008350C2D38BF0C25002D064601DBA94202D90C23336046E000F082F8234B1C681A462146A1B10B685B1B0ED40B2B03D90B60CC18CD501EE08C420BBF63684B682B
:402240001360636018BF0C4615E00C464968E9E7174C23681BB9304600F052F820602946304600F04DF8431C18D0C41C24F00304A0420DD12560304600F053F804F10B00F3
:40228000231D20F00700C31A0ED05A42E25070BD211A304600F034F80130EBD10C233360304600F03EF8002070BD00BFA481FF1FA081FF1FF8B5074615460E4621B9114691
:4022C000BDE8F840FFF798BF1AB9FFF749FF2846F8BD00F027F885420ED929463846FFF78BFF044650B131462A46FFF7EDFB31463846FFF735FF01E03046F8BD2046F8BD00
:4023000038B5064C0023054608462360FEF794F9431C02D1236803B12B6038BDC881FF1F7047704751F8040C0028BEBF091851F8043CC01804387047000000002A2A2A479F
:402340007265656E20486F7573652050726F6A6563742A2A2A200A0D000000000000000000000000000000000000000000000000456E646C657373206C6F6F703A20256458
:402380000D0A000042797465202564203A2025640D0A000053657474696E67207468652063757272656E742074696D6520666F7220746865206465766963650D0A0000000F
:4023C00053657474696E67207468652063757272656E742064617920666F7220746865206465766963650D0A0000000053656E64696E67206F757420746865206375727231
:40240000656E74206465766963652074696D650D0A00000053656E64696E67206F7574207468652063757272656E7420646576696365206461790D0A000000004772656593
:402440006E486F75736520636F6E74726F6C6C657220302E312C20646576656C6F7065642062792059616D656E6920476C65656E20616E64204E6461737369204861726FCB
:402480006C640D0A0000000053656E64696E6720616C6C20736176656420646174612E2E2E0D0A00436C656172696E6720746865206C6F6767696E67206D656D6F72792E12
:4024C0002E2E0D0A00000000035B00402443004040000000C84900401900305100404000F0510040100000000140001000140140000800400140000A004C014000020050D0
:40250000014020004300232D302B2000686C4C006566674546470030313233343536373839414243444546003031323334353637383961626364656600000000F8B500BF98
:40254000F8BC08BC9E4670474D000000B5060000F8B500BFF8BC08BC9E4670472900000070250000C880FF1F900000007800000000000000000083032705CB066F08130A7E
:40258000B70B8303D081FF1F0000E02EC05D00001800000000366E0101FF000000000000000000000000000000000000000000000000000000000000000000000425000053
:4025C000000000000000000000000000000000000000000000000000000000000000000000000000000000000000000000000000000000000000000000000000F480FF1F49
:40260000000000000000000000000000000000000000000000000000000000000000000000000000000000000000000000000000000000000000000000000000000000009A
:40264000000000000000000000000000000000000000000000000000000000000000000000000000000000000000000000000000000000000000000000000000000000005A
:40268000000000000000000000000000000000000000000000000000000000000000000000000000000000000000000000000000000000000000000000000000000000001A
:4026C00000000000000000000000000000000000000000000000000000000000000000000000000000000000000000000000000000000000000000000000000000000000DA
:020000040003F7
:0200000480007A
:40000000035200400364004003650040010301400404014002050140010701405B080140350901403B0A0140290B01403D0C01402F0D0140411401401F1501400117014034
:400040004F1801402D1901405A1A0140421B0140064001400F410140094201400743014004440140034501400A4601400847014006480140094901400D4C0140074D01404B
:400080000650014003510140014004C06440880D89388D0F850D89728B0DE6C2B802BE01D804DF011D01E811B50116012E0130013E01404645EC4620480B49FF4AFF4BFFA9
:4000C0004F01501852805401560458045A045B045D335F016040624064406540668068806A806C806E808010820C870488388B048C208E0C8F0292019501960198089A32A6
:400100009C019F02A101A438A801A901AD01B001B101B438B502B606B704B802BE40BF51C042C106C203C401C5E0C70CC812C9FFCAFFCBFFCC62CDA0CEF0CF41D00CD4188C
:40014000D604D804D904DA04DB04DC02DD22DF01E640E702E910EA30EB10ED10EE10EF1200820110088109080A040F2010041104178018411A041B201E80200421802201F7
:40018000288529523080310838583B10409141104680488049104F255004571059015E805F0560046180620167807680778097809E01B001C00BC22FC486CA0DCC0ACE0E0D
:4001C000D08FD224D6D1D88DEC40001C02020D010E03100C12111C101E0C2010241428092A10301F37013F40580459045C025F0180068101820183068B0392039601970CDD
:400200009D0C9E059F03A202A308A606AD01AF0EB007B10FBA02BB02C003C540C9FFCA07CBFFCC40CD20CEF0CF05D008D804D904DA04DC22DD02DF01E040E1A8E240E320CA
:400240000040034007400A410E410F2010A41501170418401E40200227402D012E403404374438403E013F2045084C804D0157109201964097809B049E019F40A020A1088E
:40028000A710C019C2B9C43ECA90CC50CEA8D040E811010109020D01100316011C031F012C0232033503380839203E04580459045C205F0187018A108C148E08900691012D
:4002C00092089A0A9C019F01A006A218A701A806AA08AD01B401B61EB701BA80BE10BF40C053C104C5EBC70CC813C9FFCAFFCBFFCEF0CF44D00CD401D804D904DA04DB049C
:40030000DC02DD22DF01E6C0EA40EB020140030408200A400B010C410E410F20104813201540174019401A051D0822402704282029402B1030013340374038083E413F202C
:4003400040204240482049414B01500C59015A845B208B408E01C003C2BBC48ACA0ACC19CEB2D003D208D60FE6C20301350137014010410449FF4AFF4BFF4DA04F04501869
:40038000528059045A045B045C105D115F01604062C06440654066C068C06AC06CC06EC08F0194029A039B01B002B201B501BF10C010C105C5D1C602C807C9FFCAFFCBFFD3
:4003C000CDAFCE0FCF04D018D405D604D804D904DA04DB04DC01DD11DF01E040E2C0E440E540E6C0E8C0EAC0ECC0EEC00E100F081E502001218022202708362038023F8093
:400400004001428045804F89568057405E405F09678070018740C260CC20CE11D019D210D6D0D880E602EA01EC10EE10401249FF4AFF4BFF4F0150185A045D045F01604063
:40044000624064406540668068806A806C806E808024810E82808460850189018A048C408D01907F941C950C966197029A639B029C679D089E18A010A102A30CA408A504AF
:40048000A818A90CAC1CAD0EAE62B060B280B30EB501B61FBAA0C012C9FFCAFFCBFFCD83CE03CF01D018D602D713D804D904DA04DB04DC22DD24DF01E040E240E440E540A4
:4004C000E680E880EA80EC80EE8000820328054006010840092910A8120119711A011B0821302314284029422A28308031283956400843404408460447405A02695C70A87E
:40050000710472289202953497109D53A320A441A508C00FC20FC40FCA0FCC0ECE0FD03CD601EE100001030404030503080F09030C030D100E0C11021301140F151817046D
:4005400019081A031C0C1D181E031F0420082101230224042518280C291C2C022D042F18300F3103331C3A023B08401349FF4AFF4BFF4D834E034F015018580459045A044A
:400580005C225D045F016040624064406540668068806A806C806E808A01AE01B001BE01C012C5ECC702C813C9FFCAFFCBFFCD83CE03CF01D018D280D401D604D804DA041F
:4005C000DB04DD44DF01E040E240E440E540E680E880EA80EC80EE800042012003200604082009080A010B0410A812421740184019021B011E8020802108220329242B8124
:40060000302031483201380239183A404348460447404D084F01560457085D085E805F0167407740874088018B808C2191189201930499649D029E049F40A0A8A320A44116
:40064000A508B121B521C04FC207C48FCA0FCC0FCE0FD03AD6D0D880EA01EC103220330237883820CCF0CE1009800F016001634087408B088C1094209F88A620A702C2C0E3
:40068000D640D840E6403E1094019F80A620A702AB01B580CE20E8801380940196109F80A620A702C44078407C04DC01DE01870294049C404508900194049C409F02A31047
:4006C000A801B710D001E80890019F02A310A508B040B404E801EC0225109610A620A702B401C82086208702A620A702AA10B510E210E640EA80132216807B107C019001CE
:400700009E809F02A310A508B680C40EDE03EE0810408840AB20B508C408E201EC08000C0C0C0E0410161A021C1400FB010303C0C0000000C000C00001000000800040808D
:400740008000800000000000000B0B0000000000000202000000000067001801000000000000000000000000000000000000000000000000000000000000000000000000DF
:400780000000000000000000000000000000000000000000000000000000000000000000000000000000000000000000000000000000000000000000000000000000000039
:4007C00000000000000000000000000000000000000000000000000000000000000000000000000000000000000000000000000000000000000000000000000000000000F9
:4008000000000000000000000000000000000000000000000000000000000000000000000000000000000000000000000000000000000000000000000000000000000000B8
:400840000000000000000000000000000000000000000000000000000000000000000000000000000000000000000000000000000000000000000000000000000000000078
:0200000490006A
:0400000000004005B7
:0200000490105A
:04000000BC90ACAF55
:0200000490303A
:0200000075DAAF
:0200000490402A
:4000000000000000000000000000000000000000000000000000000000000000000000000000000000000000000000000000000000000000000000000000000000000000C0
:400040000000000000000000000000000000000000000000000000000000000000000000000000000000000000000000000000000000000000000000000000000000000080
:400080000000000000000000000000000000000000000000000000000000000000000000000000000000000000000000000000000000000000000000000000000000000040
:4000C0000000000000000000000000000000000000000000000000000000000000000000000000000000000000000000000000000000000000000000000000000000000000
:0200000490501A
:0C00000000012E16106900012E25864319
:00000001FF